:020000040800F2
:1000000000400020D5450008D90B0008DB0B000894
:1000100000000000000000000000000000000000E0
:10002000000000000000000000000000DD0B0008E0
:100030000000000000000000DF0B0008E10B0008DA
:1000400025460008254600082546000825460008E4
:1000500025460008254600082546000825460008D4
:1000600025460008E90B0008F90B0008FD0B000805
:1000700025460008254600082546000825460008B4
:1000800025460008254600082546000825460008A4
:100090002546000825460008254600082546000894
:1000A0002546000825460008254600082546000884
:1000B000254600082546000825460008290C0008AA
:1000C00010B5064C2378002B07D1054B002B02D02E
:1000D000044800E000BF0123237010BD5C01002034
:1000E0000000000080460008044B10B5002B03D030
:1000F0000349044800E000BF10BDC04600000000F6
:100100006001002080460008002243088B4274D31F
:1001100003098B425FD3030A8B4244D3030B8B4208
:1001200028D3030C8B420DD3FF22090212BA030C11
:100130008B4202D31212090265D0030B8B4219D3F2
:1001400000E0090AC30B8B4201D3CB03C01A524112
:10015000830B8B4201D38B03C01A5241430B8B425A
:1001600001D34B03C01A5241030B8B4201D30B0343
:10017000C01A5241C30A8B4201D3CB02C01A52416A
:10018000830A8B4201D38B02C01A5241430A8B422D
:1001900001D34B02C01A5241030A8B4201D30B0216
:1001A000C01A5241CDD2C3098B4201D3CB01C01A30
:1001B000524183098B4201D38B01C01A524143093A
:1001C0008B4201D34B01C01A524103098B4201D328
:1001D0000B01C01A5241C3088B4201D3CB00C01A95
:1001E000524183088B4201D38B00C01A524143080D
:1001F0008B4201D34B00C01A5241411A00D2014632
:10020000524110467047FFE701B5002000F006F8A4
:1002100002BDC0460029F7D076E770477047C04658
:1002200010B5802100224901034803F098FA00210B
:10023000024802F0B9FA10BD000400483808002056
:1002400010B5802100228901094803F088FA0821AD
:10025000084802F0A9FA084C00220221200003F00D
:100260007EFA00220121200003F079FA10BDC04679
:1002700000040048380800200008004810B50C2190
:10028000014802F091FA10BD38080020F0B589B09D
:100290001422002103A804F0EBF9344B59698020A3
:1002A0000003014359615A6902400092009A59695A
:1002B00080208002014359615A6902400192019AEB
:1002C0005A698021C9020A435A615B690B40029353
:1002D000029BE024240200222100254803F03FFA7B
:1002E000002224499020C00503F039FA224D002253
:1002F0002900224803F033FA0394012704970024CD
:1003000005940326069603A9194803F055F9CF234F
:10031000039304970594069603A99020C00503F063
:100320004BF904230393164B0493059403A9134834
:1003300003F042F9039504970594069603A90F4824
:1003400003F03AF981231B020393049402230593DB
:1003500003A90A4803F030F938230393049605945F
:1003600003A9064803F028F909B0F0BD00100240C7
:1003700000080048CF80000003320000000400485D
:100380000000111000B583B00D4A516901231943D3
:100390005161526913400193019B00220021092001
:1003A00003F0CCFA092003F0F9FA002200210B2017
:1003B00003F0C4FA0B2003F0F1FA03B000BDC0460D
:1003C0000010024030B58DB02022002104A804F0B6
:1003D0004FF90822002101A804F04AF90C4C0D4BFA
:1003E000236000256560A560E56025616561A56104
:1003F000012303930593099303A9200001F0FCFF57
:100400000195029501A9200002F00EFA0DB030BD51
:10041000EC060020002C0140F0B5C64600B59CB0AB
:100420001022002118A804F023F90822002116A8A0
:1004300004F01EF91C2200210FA804F019F91C2257
:10044000002108A804F014F91C22002101A804F0DE
:100450000FF9294C8023DB05236000256560A5602A
:10046000264E3388E3602561A561200001F090FFEE
:1004700080235B01189318A9200002F0D5F8200012
:1004800001F0A0FF1695179516A9200002F0CCF9EF
:10049000602398460F9330880321FFF735FE80B222
:1004A000109002271197139500220FA9200002F047
:1004B00039F84346089330880321FFF725FE80B2C0
:1004C000400009900A970C950C2208A9200002F020
:1004D00029F84346019330880321FFF715FE80B2C7
:1004E000029003970595082201A9200002F01AF84E
:1004F0001CB004BC9046F0BD38080020000000206D
:1005000010B50948094B0360E1235B0243600023F7
:100510008360C36003610C2242618361C361036233
:10052000436202F095FB10BDB40500200048004076
:10053000054B064A1A60BFF34F8F054B054ADA6038
:10054000BFF34F8FC046FDE7F03F0020EFBEADDEAA
:1005500000ED00E00400FA0570B51B4B586A03F08B
:10056000E9F902282FD0184BD86A03F0E3F90228E2
:1005700029D0154B186B03F0DDF9022823D0134D59
:10058000114CC823124A2900606A03F043F9C823BA
:10059000104A1149E06A03F03DF9C8230F4A2900C7
:1005A000206B03F037F98023DB0500225A6200211B
:1005B000200002F0D1F80821200002F0CDF80C2133
:1005C000200002F0C9F870BD380800209C0300200C
:1005D00014000048140400482C07002014080048A8
:1005E00010B598B0302200210CA804F041F8102278
:1005F000002107A804F03CF81C220021684604F002
:1006000037F822230B93213B0E9313930F330F9351
:100610000BA802F055FB07230793043B0893002423
:1006200009940A94012107A802F012FE80239B027C
:1006300000930694684602F0E3FE18B010BD000077
:1006400010B502F09BFFFFF7CBFFFFF71FFEFFF790
:1006500099FEFFF7B7FEFFF7DFFEFFF751FF00F04F
:100660009BF880214900434803F072F8002801D02C
:10067000FFF75EFF8021012289013E4803F06FF8F9
:10068000C822FF213C4803F0F3FF002321E03A4A4F
:1006900059007D2040428852591C490037488852F1
:1006A000991C490005248C52D91C49008852191DF7
:1006B00049000A30FF308852591D490000208852F5
:1006C000991D4900C43C8C52D91D490088520833F9
:1006D0009BB2C62BDBD9C8220021274803F0C8FFF4
:1006E000002314E0264A0221D154581C0021115441
:1006F000981C1154D81C1154181D01241454581D51
:100700001154981D1154D81D115408339BB2C62B97
:10071000E8D91C4A536A1C4999621368D868802139
:1007200089000143D960D16A18488862D86880215D
:1007300009010143D960126B15499162D968802281
:1007400052010A43DA6080210A4C0122890120000B
:1007500003F005F880214900200002F0F9FF00288D
:10076000F1D0802101224901200002F0F8FFFFF7BB
:10077000F3FEE8E7000400489C03002000FFFFFFB1
:100780002C07002038080020210200084102000840
:100790007D0200087047000010B5094C002209498D
:1007A000200003F071F90849200003F089F9074996
:1007B000200003F0D5FE200003F08BF910BDC046E9
:1007C000BC080020040000204C000020380000205D
:1007D00010B5FFF705FF10BD00B583B002680C4BE4
:1007E0009A4201D003B000BD0A4AD16980200004BA
:1007F0000143D161D36903400193019B0022002191
:100800001F2003F09BF81F2003F0C8F8EAE7C0465A
:10081000005C00400010024010B5010087239B00DF
:10082000C058ED31FF3103F071F910BD10B5030070
:10083000872292008058CA00521A94001B1919335B
:10084000FF331A6803F096F910BD10B50300872234
:1008500092008058CA00521A94001B199A6B03F038
:10086000C5F910BD10B587239B00C05803F057FA97
:1008700010BD70B505008724A4000121005903F0C4
:1008800039FA285903F013FA70BD000010B50400BE
:1008900087239B00C05803F030FAA369002B04D0D3
:1008A000024A136906210B43136110BD00ED00E0FD
:1008B00010B504008369002B05D187239B00E05805
:1008C00003F026FA10BD044A136906218B43136115
:1008D000FFF77EFFF1E7C04600ED00E070B50400D1
:1008E0001E4887239B00C4500433E0501C4B036018
:1008F00008234360022282600023C3600261836197
:10090000C361036200F0D0FA002823D18825AD002E
:10091000182300220021605901F0D4FB5823002243
:100920008021605901F0CEFBC02300228121605953
:1009300001F0C8FB88235B0000220121605901F00F
:10094000C1FB605980235B000022822101F0BAFBC9
:10095000002070BDFFF71EFFD8E7C046E00A002068
:10096000005C004010B588239B00C05800F0FCFAE2
:10097000002803D0022803D0022010BD0020FCE78D
:100980000120FAE710B514001A0088239B00C05814
:10099000230000F011FB002803D0022803D002201E
:1009A00010BD0020FCE70120FAE710B588239B006A
:1009B000C05800F0ABFC002803D0022803D002206E
:1009C00010BD0020FCE70120FAE710B588239B004A
:1009D000C05800F08DFE002803D0022803D002206A
:1009E00010BD0020FCE70120FAE710B588239B002A
:1009F000C05800F0DDFE002803D0022803D00220FA
:100A000010BD0020FCE70120FAE70A0088239B00C4
:100A1000C35849B2002909DB7F211140CA00511A8D
:100A20008A009B180B33FF33187870477F211140E1
:100A3000C800411A8A009B182A331878F5E710B5C8
:100A400088239B00C05800F09BFA002803D002289E
:100A500003D0022010BD0020FCE70120FAE710B50A
:100A60008824A400005900F027FF002803D00228A2
:100A700003D0022010BD0020FCE70120FAE710B5EA
:100A80008824A400005900F029FD002803D0022882
:100A900003D0022010BD0020FCE70120FAE710B5CA
:100AA00088239B00C05800F019FE10BD0048704715
:100AB000780100207047000012230B800048704727
:100AC0002000002004230B800048704734000020E1
:100AD00010B50A00002805D00549064803F0CDFBF3
:100AE000034810BD0249034803F0C7FBF8E7C046BE
:100AF000000D0020E846000810B50A00034C210054
:100B0000034803F0BAFB200010BDC046000D0020D2
:100B1000D446000810B50A00002805D0054906484B
:100B200003F0ABFB034810BD0249034803F0A5FBEB
:100B3000F8E7C046000D00200047000810B50A0085
:100B4000002805D00549064803F097FB034810BD6F
:100B50000249034803F091FBF8E7C046000D00206E
:100B6000B846000810B50A00002805D00549064817
:100B700003F083FB034810BD0249034803F07DFBEB
:100B8000F8E7C046000D0020C4460008002070476A
:100B90000020704710B50100044C200003F0F4FC65
:100BA000200003F0F8FC002010BDC046BC08002067
:100BB00010B5064C00220649200003F0DAFC054976
:100BC000200003F0E1FC002010BDC046BC0800205E
:100BD000E8120020000F00207047FEE770477047C2
:100BE00010B502F0DBFC10BD10B5024802F04DFE5E
:100BF00010BDC046780800207047000010B50648B8
:100C000002F043FE054802F040FE054802F03DFEBA
:100C1000044802F03AFE10BDF40700202C05002025
:100C2000700500202406002010B5024801F0BCF930
:100C300010BDC046E00A002082B00A4B996901222B
:100C40001143996199690A400092009ADA698021FA
:100C500049050A43DA61DB690B400193019B02B04D
:100C60007047C0460010024010B588B0040014223E
:100C7000002103A803F0FCFC2268124B9A4201D029
:100C800008B010BD104B99698020000101439961A3
:100C90009A6902400192019A5A69802189020A43A5
:100CA0005A615B690B400293029BC0239B00039334
:100CB000022304930793902003A9C00502F07CFC53
:100CC000DEE7C046002C01400010024010B582B0A3
:100CD000040003688022D205934204D0344A934230
:100CE0005BD002B010BD334AD16901231943D161F1
:100CF000D26913400093009B2F48304B03601023B0
:100D00004360002383608022C26003618022D2009E
:100D10004261836180239B01C36102F04FFD002883
:100D200032D1254B63625C622548264B0360102359
:100D30004360002383608022C2608032026180228F
:100D4000D2004261836180239B01C36102F036FDC2
:100D500000281CD11A4B23635C621B481B4B0360A9
:100D600010234360002383608022C26003614361DB
:100D7000836180239B01C36102F020FD002809D11B
:100D8000114BE3625C62ACE7FFF704FDC9E7FFF7D4
:100D900001FDDFE7FFF7FEFCF2E7064AD169022317
:100DA0001943D161D26913400193019B99E7C04671
:100DB00000040040001002402C05002058000240B2
:100DC000F407002044000240780800200800024098
:100DD00010B588B004001422002103A803F048FCD9
:100DE0002A4B22689A4201D008B010BD284BD9691D
:100DF0008022D2021143D961D96911400191019930
:100E00005969114359615B691A400292029BC023E0
:100E10001B010393022304930133069301330793C9
:100E200003A91C4802F0C8FB1B481C4B03600023AD
:100E3000436083608022C2600361436183618023D9
:100E40009B01C36102F0BAFC002819D1124B636602
:100E50005C621348134B03601023436000238360DC
:100E60008022C26003614361836180239B01C3616F
:100E700002F0A4FC002806D1094B23665C62B3E7AC
:100E8000FFF788FCE2E7FFF785FCF5E70048004044
:100E90000010024000040048700500206C00024071
:100EA000240600208000024070B5041E58D0EA23BA
:100EB000FF33C35C002B05D0EA23FF330322E25447
:100EC000002218E0E933FF330022C254FFF784FC0C
:100ED000F2E7D100891A8B00E318190029310120AB
:100EE000087001390A7018002B3000210170596315
:100EF0009963D963013260689042EAD8002214E015
:100F0000D100891A8B00E3181D000A35FF35002136
:100F10002970013D2A70033529700935296004358F
:100F200029601D33FF33196001329042E8D8402315
:100F300001222168CA5200222168CA524421206835
:100F400042520C3120684252064A2168CA5200229D
:100F50001C3BE2540122EA23FF33E254002070BD1F
:100F60000120FCE700BFFFFF016858228B5A0348AD
:100F700003439BB28B5200207047C0460080FFFFA6
:100F8000F4235B00C35C012B13D0F4235B0001222C
:100F9000C25400290AD19D3BFF3B7F320168CA52EF
:100FA000F4235B000022C254002070472423C15464
:100FB000F6E70220F9E70000F0B54DB2002D65DB41
:100FC0007F240C40E600361BB4000934FF340419BA
:100FD0007F2631402170ED0F6570E260E370F423ED
:100FE0005B00C35C012B00D175E1F4235B0001229F
:100FF000C254E378012B00D174E0002B4ED0022BB9
:1010000059D0032B61D02278930001688C46634449
:101010001988B24D29400A43B1490A431A80A37A7C
:10102000002B00D0B5E06378002B00D167E0A288E8
:1010300005685023EB5A2178C9005B185B198021A1
:10104000C9008C46634401218A431A8023789B009F
:101050000268944663441A88510604D59F490A40A1
:10106000A0490A431A802278920003689C46624491
:1010700013889D490B4020214B4099490B43138015
:10108000F4235B000022C2540020F0BD7F240C40FA
:10109000E600361BB4002834041999E723789B0036
:1010A0000268944663441A88904911408022920055
:1010B0000A431A80A7E723789B000268944663449A
:1010C0001A888A490A401A809DE723789B000268A3
:1010D000944663441A8885491140C022D2000A43CD
:1010E0001A8090E723789B000268944663441A882C
:1010F0007E4911408022D2000A431A8083E7A288E9
:1011000005685026AB5B2178C9005B185B197849EC
:101110008C46634401218A431A8001688B5B2278E4
:10112000D2009B185B18734A94466344E1683E29D9
:1011300026D94A0992B2C90601D1013A92B2920265
:1011400092B26D490A431A8023789B000268944644
:1011500063441A88510404D560490A4067490A4328
:101160001A8023789B000268944663441988644A75
:101170001140C02292015140594A0A431A807FE728
:101180004A0892B2C90701D5013292B292021A807E
:10119000DAE723789B000268944663441A88594929
:1011A0001140594A0A431A80E28805685027EB5BD0
:1011B0002178C9005B185B198021C9008C46634403
:1011C0000126B2431A8022890568EB5B2178C900A9
:1011D0005B185B1946498C466344B2431A806378B6
:1011E000002B3DD123789B000268944663441A8803
:1011F000510404D539490A4040490A431A802378EA
:101200009B000268944663441A88510604D533490A
:101210000A4034490A431A8023789B0002689446A6
:1012200063441A882D4911402E4A0A431A802178B6
:10123000890003689C4661440B88314A1A40C023E8
:101240009B015340264A13430B8023789B0001687F
:101250008C4663441988244C21400A431A800FE7C6
:1012600023789B000268944663441A88510404D58D
:101270001A490A4021490A431A8023789B000268D0
:10128000944663441A88510604D514490A40154906
:101290000A431A8023789B000268944663441A88A4
:1012A0000E491140154A0A431A80217889000368C3
:1012B0009C4661440B880C4A1340094A13430B8037
:1012C00023789B0001688C46634419880C4C2140AC
:1012D0000A431A80D4E60220D7E6C0460F0F00006A
:1012E0008080FFFFC080FFFFBF8FFFFF8F89FFFF60
:1012F00004040000060400000080FFFF80C0FFFF20
:101300008FBFFFFF0F0E00008081FFFF10B54AB2B4
:10131000002A3ADB7F230B40DC00E41AA3000933E8
:10132000FF33C3187F2421401970D20F5A70F42262
:101330005200825C012A00D1C1E0F4225200012156
:1013400081549A7A002A41D15A78002A25D01A78F5
:10135000920001688C46624411884C0604D5594CB1
:101360002140594C214311801B789B000268944610
:1013700063441A8855491140554A0A431A80F42398
:101380005B000022C254002010BD7F230B40DC0014
:10139000E41AA3002833C318C4E71A78920001683E
:1013A0008C46624411884C0404D5464C2140494C7B
:1013B000214311801B789B000268944663441A887D
:1013C00045491140424A0A431A80D8E75A78002A10
:1013D0003AD11A78920001688C46624411884C0414
:1013E00004D5384C21403B4C214311801A7892009F
:1013F00001688C46624411884C0604D5314C21406A
:10140000314C214311801A78920001688C46624465
:1014100011882C4C0C402C49214311801C78A400CD
:1014200002689446644422882B490A4028490A43AA
:1014300022801B789B000268944663441A88234CE0
:101440002240114319809AE71A78920001688C466D
:10145000624411884C0404D51A4C21401D4C214390
:1014600011801A78920001688C46624411884C06FB
:1014700004D5144C2140144C214311801A78920059
:1014800001688C46624411880E4C0C40114921437E
:1014900011801C78A40002689446644422880B4999
:1014A0000A400B490A4322801B789B00026894463D
:1014B00063441A88084C2240114319805FE70220D8
:1014C00062E7C0460F0F0000C080FFFFBF8FFFFF25
:1014D0008080FFFF80C0FFFF8FBFFFFF70B57F24BC
:1014E0002140CD006D1AAC00041925001935FF35D7
:1014F0002A6022001D32FF321360083500222A6064
:10150000173D2A7022000932FF3211701534FF3462
:101510002268934240D9CD006D1AAC0004191D34E5
:10152000FF349B1A2360CC00641AA3001C00C3186C
:101530001333FF331B78002B41D105685033EB5A2E
:1015400004190934FF342478E4001B195B195E4C3C
:10155000A44663443E2A29D95409A4B2D20601D133
:10156000013CA4B2A402A4B2584A14431C800368EC
:10157000CA00511A8A0080180930FF3002789200A0
:101580009B181988524A1140C02292015140514A79
:101590000A431A80002070BDCC00641AA200821891
:1015A0001D32FF32002414601A00BCE75408A4B2B4
:1015B000D20701D50134A4B2A4021C80D7E7CC0025
:1015C000641AA3001C00C3180A33FF331B78002BD6
:1015D00023D105685033EB5A04190934FF342478B9
:1015E000E4001B195B193C4CA44663443E2A0BD90A
:1015F0005409A4B2D50601D1013CA4B2A402A4B2FC
:10160000324D2C431C800AE05408A4B2D50701D502
:101610000134A4B2A4021C8001E0012B24D0CC0030
:10162000641AA3001C00C3180A33FF331B78002B75
:1016300035D105685033EB5A04190934FF34247846
:10164000E4001B195B19204CA44663443E2A1DD9B3
:101650005409A4B2D20601D1013CA4B2A402A4B29E
:101660001A4A14431C8082E705684F33EB5ACE00B8
:10167000761AB40004190934FF342478E4001B19E5
:101680005B19154CA44663441A80C8E75408A4B2F9
:10169000D20701D50134A4B2A4021C8067E7012B54
:1016A00000D064E705684F33EB5ACE00761AB400D9
:1016B00004190934FF342478E4001B195B19024C27
:1016C000A44663441A8052E7060400000080FFFF2E
:1016D0008FBFFFFF8080FFFF020400007F231940BF
:1016E000CB00591A8B00C0182130FF30008870479A
:1016F00010B5F4235B00C35C012B4DD0F4235B00D9
:101700000122C2544CB2002C20DBCA00521A9300B2
:101710000933FF33C31801229A707E3211401970C9
:10172000E40F5C7000291AD1890003689C4661446B
:101730000A881A4B1A401A4B5A401A4B13430B8013
:10174000F4235B000022C254002010BD6A3BFF3B23
:101750000B40DA00D21A93002833C318DBE7002CC1
:101760000CD0890003689C4661440B880E4A1340E4
:10177000102253400B4A13430B80E1E789000368B2
:101780009C4661440A88094B1A4080235B015A40F9
:10179000044B13430B80D3E70220D6E7BFBFFFFF04
:1017A000101000008080FFFFBF8FFFFF8FBFFFFF83
:1017B00010B54AB2002A38DBCC00641AA300093302
:1017C000FF33C31800249C707F3421401970D20F5E
:1017D0005A70F4225200825C012A4AD0F42252004C
:1017E000012181545A78002A27D01A789200016882
:1017F0008C46624411884C0604D51F4C21401F4C76
:10180000214311801A78920003689C466244138831
:101810001B490B4030214B401A490B431380F423E2
:101820005B000022C254002010BD7F230B40DC006F
:10183000E41AA3002833C318C4E71A789200016899
:101840008C46624411884C0404D50B4C21400E4C4C
:10185000214311801B789B000268944663441988D9
:101860000A4A1140C02292015140064A0A431A8096
:10187000D5E70220D8E7C0460F0F0000C080FFFF69
:10188000BF8FFFFF8080FFFF80C0FFFF8FBFFFFF84
:1018900010B501335B0812188020C00084466244F2
:1018A00007E008784C782402044314800231013B9D
:1018B0000232002BF5D110BDF8B505007F240C4095
:1018C000E000001B810069188A63CB6300220A6470
:1018D0000A00293201201070013A14704F6BBB428C
:1018E00033D9DB1BCB63E200121B93001A00EB1809
:1018F00032331B78002B30D02868E200121B930093
:10190000EB1828331B789A00825A520674D5E600E9
:10191000361BB200AA1829321278002A3BD1503265
:10192000825ADB00D3181818614B9C4660443E2F46
:1019300028D97B099BB2FA0601D1013B9BB29B02DD
:101940009BB25C4A1343038027E0E100091B8A0035
:10195000AA180021D1631F00C5E7BFB2AE18B28D2F
:101960003B00B16B2868FFF793FF2A685023D35AD6
:1019700028363178C9005B189B184F4A9446634457
:101980001F8082E07B089BB2FA0701D501339BB22E
:101990009B02038001E0012A24D0E200121B930085
:1019A000EB181A8EBBB2E100091B8E00AE19B16BA9
:1019B0002868FFF76DFF29363378002B55D0012BAF
:1019C00063D1E200121B9300EB1828331B789B00B5
:1019D0002A68944663441A8838491140384A0A43B1
:1019E0001A8052E04F32825ADB00D3181818304B5D
:1019F0009C4660440780D0E7E600361BB200AA1878
:101A000029321278002A1ED15032825ADB00D318B4
:101A10001818294B9C4660443E2F0BD97B099BB27A
:101A2000FA0601D1013B9BB29B029BB2214A1343B0
:101A300003800AE07B089BB2FA0701D501339BB211
:101A40009B02038001E0012A05D0E200121B9300F3
:101A5000EB18DA8DA6E74F32825ADB00D31818183C
:101A6000154B9C4660440780EFE7E200121B930091
:101A7000EB1828331B789B002A68944663441A8825
:101A80000E4911400F4A0A431A802A68E1000C1BD4
:101A9000A300ED1828352B789B00D21813880A492B
:101AA0000B4030214B4009490B4313800020F8BD07
:101AB000060400000080FFFF020400000F0F00007A
:101AC00080C0FFFFC080FFFFBF8FFFFF8080FFFF50
:101AD00030B55D0812188020C0008446624406E0DC
:101AE00014880C70240A4C70013D02320231002D22
:101AF000F6D1DB0701D513880B7030BDF0B583B08C
:101B0000050001AB00221A8028684423C35A9BB207
:101B10006A46D3801BB2002B00DB39E26B46DC88BF
:101B20000F231C4000D0B5E06B4606331B88DB0654
:101B30004BD5028801AB1A801B881B0575D401ABFD
:101B40001B881BB2002BDFDA0388CA4A13400380CC
:101B500028685023C35A84225200AA5CD2009B18E2
:101B60001B18C54A944663441B889B059B0D2A009D
:101B70000932FF329361002B00D077E0002128006A
:101B8000FEF754FE2B6850229A5A9A18BA4B9C467C
:101B900062442B000933FF33D9683E2971D94B09C0
:101BA0009BB2C90601D1013B9BB29B029BB2B349D8
:101BB0000B43138029680A88B14B1A40C0239B014C
:101BC0005A40B04B13430B809EE70388AE4A134044
:101BD000038029685023CB5A2822AA5CD2009B1884
:101BE0005B18AA4A944663441B889B059B0D2B6493
:101BF000AA6B94466344AB6300212800FEF725FEE0
:101C00002423EB5C002B00D17EE7EB6B002B00D094
:101C10007AE72422AB5C802149420B43DBB2CC3112
:101C2000286843520023AB546EE75023C35A8422E2
:101C30005200AA5CD2009B181B188F4A944663443A
:101C40001B889B059B0D2A000932FF3293612900F6
:101C5000ED31FF319288FFF73BFF2A6813888549F1
:101C60000B4013802800FEF7D7FD4DE71400928843
:101C70002169FFF72DFF2369A2699446634423611C
:101C80007CE74B089BB2C90701D501339BB29B028D
:101C900013808FE7A700C019028801AB1A801B8848
:101CA0001BB2002B31DB01AB1B881B0600D42BE7DA
:101CB0002B689C4667443B88734A13403B80E20094
:101CC000121B93001A00EB1832331B78002B00D044
:101CD000E2E028685033C35AAA1811002831097865
:101CE000C9005B181B1869498C4663441B889B0517
:101CF0009B0D136400D1FDE0E200121B91006918F6
:101D00008A8D896BFFF7C4FDF4E05A4B1A400280BC
:101D1000E200121B93001A00EB181333FF331B78F9
:101D2000002B1DD128685033C35A1100AA1809325C
:101D3000FF321278D2009B181B184F4A9446634416
:101D40001E88B605B60D34D06B181A000D32FF325E
:101D500012881933FF3319683300FFF7B9FE28E002
:101D60002868E200121B9300EB180933FF331B783D
:101D70009A00825A520456D55022825ADB00D31858
:101D80001B18424A944663441E88B605B60D3BD1E3
:101D9000E200121B9300EB180933FF331B789B0002
:101DA0002A68944663441A8839491140394A0A43DB
:101DB0001A803100E200121B9300EB18180021304A
:101DC000FF300268921902601A001932FF3210685F
:101DD0008446664416601D33FF331B68002B08D011
:101DE000E200121B900028181530FF300268914263
:101DF00034D2E200121B9300EB180933FF33197839
:101E00002800FEF713FD4EE7E200121B9300EB18CB
:101E10001A000F32FF3212881933FF33196833006A
:101E2000FFF756FEB4E75022825ADB00D3181B1886
:101E3000114A944663441E88B605B60DA8D0E20048
:101E4000121B9300EB181A001132FF32128819335B
:101E5000FF3319683300FFF73BFE99E7E100091BE8
:101E60008A00AA180932FF32117832002800FFF7E1
:101E700035FB18E78F0F0000060400000080FFFF0D
:101E80008FBFFFFF8080FFFF0F8FFFFF0204000066
:101E90000F0F0000C080FFFF2868E200121B9300B4
:101EA000EB1828331B789A00825A52064DD55022DF
:101EB000825ADB00D3181B18374A944663441B88A8
:101EC0009B059B0DE100091B8A001100AA181364F1
:101ED000002B34D1E200121B9300EB1828331B783F
:101EE0009B002A68944663441A882C4911402C4A66
:101EF0000A431A8028685023C25AE100091B8B004C
:101F0000EB18190028310978C90052181218224913
:101F10008C46624412889205920D1A64996B8C4625
:101F200062449A63DB6B002B28D1E3001C1BA300E7
:101F3000EB18283319782800FEF787FCE4E56918C8
:101F4000CA8D896BFFF7A4FCC4E75022825ADB00DC
:101F5000D3181B18134A944663441B889B059B0D9A
:101F6000E100091B8A001100AA181364002BB1D0EC
:101F700069180A8E896BFFF78BFCABE7E1000C1B3D
:101F8000A1006918283109782800FFF795FCBBE506
:101F9000002003B0F0BDC046020400000F0F000097
:101FA00080C0FFFF0604000070B5040044230268EF
:101FB000D35A1BB2002B46DB236844229A5A52059F
:101FC00044D4236844229A5A520404D544215A5ACC
:101FD000344802405A52236844229A5A920404D543
:101FE00044215A5A304802405A52236844229A5A8D
:101FF000D20438D4236844229A5A120513D54422B5
:10200000995A2A480140995220684023C15A08250C
:102010002943C1522068C15A04252943C15223686B
:102020009B5ADB0431D5236844229A5A920530D456
:10203000236844229A5AD20504D544215A5A1C488E
:1020400002405A5270BDFFF759FDB5E744215A5A74
:10205000184802405A522000FEF70BFC00212000D5
:10206000FEF78EFFADE74022995A04208143995232
:10207000114B21688B522000FEF71AFC2168442284
:102080008B5A0E4803408B52B4E72000FEF7FEFB4C
:10209000C9E744215A5A0A4802405A522000FEF722
:1020A000E1FBC5E7FFBFFFFFFFDFFFFFFFF7FFFF1C
:1020B000FFFEFFFFFFFBFFFF00BDFFFFFFEFFFFF86
:1020C000FFFDFFFF10B50C060FD57F242140CC008B
:1020D000611A8C0028340019002A0DD00122827266
:1020E000C3801B0C0381002010BDCC00611A8C0042
:1020F0000934FF340019EFE782728380F3E70000B0
:1021000030B5036A012293430362036A426884691B
:102110007325AC430D682C430225AB438D682B43DC
:10212000144DA84208D0144DA84205D0134DA84222
:1021300002D0134DA84205D10825AB43CD682B43EF
:102140000425AB430B4DA84208D00B4DA84205D047
:102150000A4DA84202D00A4DA84205D1094D2A4095
:102160004D692A438D692A43426084614A6842630B
:10217000036230BD002C014000400140004401409A
:1021800000480140FFFCFFFF70B5036A194A134085
:102190000362036A4268C4697325AC430E68264330
:1021A000154C23408C6824022343144CA04219D0C0
:1021B000124CA04208D0124CA04205D0114CA042B3
:1021C00002D0114CA04207D1104C14404A691201B0
:1021D00022438C6925012A434260C6614A68C26372
:1021E000036270BD0A4C1C40CB681B022343094CA0
:1021F0002340DDE7FFFEFFFFFFFDFFFF002C014056
:10220000004001400044014000480140FFCFFFFF73
:10221000FFF7FFFFFFFBFFFF30B5036A134A1340D0
:102220000362026A4368C469114D2C400D682D0297
:102230002C43104D15408A6812032A430E4DA842C4
:1022400008D00E4DA84205D00D4DA84202D00D4D2C
:10225000A84204D10C4D2B404D69AD012B43436086
:10226000C4614B680364026230BDC046FFEFFFFFEC
:10227000FF8CFFFFFFDFFFFF002C0140004001400B
:102280000044014000480140FFBFFFFF30B5036A32
:10229000046A0125AC4304628469EF35AC43120142
:1022A00022430A24A34319438261016230BD000026
:1022B00030B5036A1024A34303628469036A054DA1
:1022C0002C4012032243A024A34309011943826135
:1022D000016230BDFF0FFFFF836870229343072226
:1022E0001143194381607047704700000368214A19
:1022F000904206D08022D205904202D01E4A9042DF
:1023000003D1702293434A6813431A4A904212D071
:102310008022D20590420ED0174A90420BD0174A25
:10232000904208D0164A904205D0164A904202D0F8
:10233000154A904203D1154A1340CA6813438022BC
:1023400093434A69134303608B68C3620B688362DB
:10235000084B984208D00A4B984205D0094B984246
:1023600002D0094B984201D10B69036301234361F9
:102370007047C046002C014000040040002000408F
:10238000004001400044014000480140FFFCFFFFC5
:1023900070B5041E14D03D23C35C002B0AD03D252C
:1023A00002236355211D2068FFF7A0FF0123635519
:1023B000002070BD3C330022C254FEF787FCEEE7DC
:1023C0000120F6E770B5041E14D03D23C35C002B3A
:1023D0000AD03D2502236355211D2068FFF786FFA3
:1023E00001236355002070BD3C330022C254FFF727
:1023F0007BFFEEE70120F6E7F0B5C64600B5040026
:102400000D00002843D03D23C35C002B39D03D266E
:102410000223A355210004C99368072083439360D6
:102420002068FFF763FF216888688A690F6A2B6854
:1024300018438046174B1340AA691202A86802434A
:102440001A43154B1A40EB691B02E86803431A4311
:102450002B691B01286A000303431343AA229743F5
:102460006A686D692D012A433A43404688602168B5
:102470008B6123681A620123A355002004BC904697
:10248000F0BD3C330022C254FEF7EEFBBFE7012053
:10249000F4E7C046FCFCFFFF0303FFFF70B5036ACF
:1024A000102293430362036A42688469174D2C40EB
:1024B0000D682D0225432024A3438C682401234367
:1024C000134CA04219D0124CA04208D0114CA0428B
:1024D00005D0114CA04202D0104CA04207D1104CA4
:1024E00014404A69920022438C69A600324342603C
:1024F00085614A688263036270BD8024A3431C0027
:10250000CB681B0123434024A343DCE7FF8CFFFF80
:10251000002C0140004001400044014000480140BF
:10252000FFF3FFFF70B504000D003C23C35C012BDB
:1025300069D03C230121C15401330131C154042A23
:1025400037D019D9082A4AD00C2A2AD12900006884
:10255000FFF762FE2268D16980231B010B43D36120
:102560002268D36929490B40D3612168CB692A6964
:1025700012021343CB6114E0002A12D12900006833
:10258000FFF7BEFD2268936908210B43936122681F
:10259000936904398B4393612268936929690B43DA
:1025A00093613D230122E254013B0022E2540020CA
:1025B00070BD29000068FFF771FF226891698023D0
:1025C0001B010B4393612268936910490B4093618F
:1025D00021688B692A69120213438B61E1E72900A4
:1025E0000068FFF7D1FD2268D36908210B43D3614E
:1025F0002268D36904398B43D3612268D36929697E
:102600000B43D361CDE70220D2E7C046FFFBFFFFBB
:1026100030B58468034D2C401B021A4311432143FB
:10262000816030BDFF00FFFF10B504003C23C35C98
:10263000012B00D17FE03C230122C254013301323F
:10264000C254026893683D48034093600B68402B76
:102650005DD010D9702B43D020D8502B4DD0602B9B
:1026600036D1CA6849682068FFF722FE60212068D9
:10267000FFF732FE2CE0102B53D008D9202B55D079
:10268000302B25D130212068FFF726FE20E0002BDB
:102690001ED100212068FFF71FFE19E080225201A1
:1026A000934210D080229201934211D1CB684A68A4
:1026B00089682068FFF7ACFF226891688023DB01FE
:1026C0000B43936004E02268936807218B43936077
:1026D0003D230122E254013B0022E254002010BDC0
:1026E000CB684A6889682068FFF792FF2268936880
:1026F00077218B430B439360EAE7CA6849682068F7
:10270000FFF7C4FD50212068FFF7E6FDE0E7CA6847
:1027100049682068FFF7BAFD40212068FFF7DCFD1B
:10272000D6E710212068FFF7D7FDD1E720212068E8
:10273000FFF7D2FDCCE70220D1E7C0468800FFFFBB
:1027400010B501248C40036AA3430362036A8A40E4
:102750001A43026210BD000010B504000122006897
:10276000FFF7EEFF23680C4A934208D00B4A9342CE
:1027700005D00B4A934202D00A4A934204D1596CC5
:10278000802212020A435A642268136801210B4313
:102790001360002010BDC046002C014000400140E5
:1027A000004401400048014010B5040000220068C8
:1027B000FFF7C6FF2368154A93421AD0144A934282
:1027C00017D0144A934214D0134A934211D023686D
:1027D000196A124A114207D1196A114A114203D1EA
:1027E0001A6801218A431A603D230122E254002025
:1027F00010BD196A094A1142E9D1196A084A114201
:10280000E5D15A6C07490A405A64E0E7002C0140C0
:102810000040014000440140004801401111000007
:1028200044040000FF7FFFFFF0B53C23C35C012B95
:102830001ED03C22012585543D2402230355066801
:1028400073687027BB437360066873680F683B4307
:1028500073600668B3688027BB43B3600668B368DB
:1028600049680B43B3600555002383540020F0BD35
:102870000220FCE770B504008368026913434269D3
:102880001343C269134301680A6873480240134343
:102890000B602268536871490B40E1680B43536039
:1028A000A269236A1A4321688B686D480340134369
:1028B0008B6025686B4B9D4226D06B4B9D4237D079
:1028C0006A4B9D4256D06A4B9D424FD010238022C6
:1028D0001202E16991424FD0022B00D1A0E000D852
:1028E0008EE0042B00D1A7E0082B00D0B2E0616895
:1028F000480880231B029C466044FDF705FC000449
:10290000000CE860002060E05A4B1A6B0323134070
:10291000012B09D0002B05D0022B07D0032B27D089
:102920001023D4E70023D2E70423D0E70823CEE71F
:10293000504B1B6BC02292021340802252029342E2
:102940000ED009D98022920293420BD0C02292026B
:10295000934209D10223BAE7002B05D10023B6E741
:102960000423B4E70823B2E71023B0E70023AEE75F
:102970000223ACE70023AAE7022B27D00FD9042BB0
:102980002FD0082B39D16368580880235B029C46FE
:1029900060446168FDF7B8FB83B200200CE0002BB7
:1029A0002BD100F01DFD400063685B08C018616812
:1029B000FDF7AAFB83B200200F22190091435B10A0
:1029C000083A13400B432268D36070BD636858080F
:1029D000294B9C4660446168FDF796FB83B200205A
:1029E000EAE700F0EBFB400063685B08C018616831
:1029F000FDF78AFB83B20020DEE701200023DBE73E
:102A0000002B27D100F0ECFC63685B08C0186168FC
:102A1000FDF77AFB23680004000CD8600020D4E79F
:102A200061684808154B9C466044FDF76DFB000447
:102A3000000CE8600020C8E700F0C0FB63685B089A
:102A4000C0186168FDF760FB23680004000CD860C3
:102A50000020BAE70120B8E7F369FFEFFFCFFFFFDF
:102A6000FFF4FFFF003801400044004000480040F0
:102A7000004C0040001002400024F40000127A00D4
:102A8000436ADB0706D5026853682C490B40816A0C
:102A90000B435360436A9B0706D502685368284975
:102AA0000B40C16A0B435360436A5B0706D502685B
:102AB000536824490B40016B0B435360436A1B0767
:102AC00006D50268536820490B40416B0B435360A5
:102AD000436ADB0606D5026893681C490B40816B8C
:102AE0000B439360436A9B0606D5026893681849B6
:102AF0000B40C16B0B439360436A5B060BD50268C6
:102B0000536814490B40016C0B43536080235B03F3
:102B1000026C9A420AD0436A1B0606D502685368C3
:102B20000D490B40816C0B4353607047026853683A
:102B30000A490B40416C0B435360ECE7FFFFFDFF7C
:102B4000FFFFFEFFFFFFFBFFFF7FFFFFFFEFFFFF2A
:102B5000FFDFFFFFFFFFEFFFFFFFF7FFFFFF9FFF1D
:102B6000F0B5C64600B506000C0017009846069D55
:102B70003368DB6923401B1B5A425341BB421ED1C1
:102B80006B1CF5D0002D05D000F010FD4346C01A97
:102B9000A842EDD9326813680B490B4013603268C4
:102BA0009368A331FF318B43936020236922B35490
:102BB0000132B35448330022F254032000E00020D5
:102BC00004BC9046F0BDC0465FFEFFFF30B583B049
:102BD00004000023C36600F0E9FC05002368194ADD
:102BE00093420DD0184A93420AD020236922A3545D
:102BF0000132A35448330022E254002003B030BD18
:102C00001B681B0710D423681B685B07EDD5802168
:102C10000E4B00932B000022C9032000FFF7A0FFFA
:102C20000028E2D00320E9E78021084B00932B0025
:102C3000002289032000FFF793FF0028E3D0032040
:102C4000DCE7C0460038014000440040FFFFFF01C0
:102C500010B5041E30D06923C35C002B22D0692339
:102C60002422E2542268136801218B431360200060
:102C7000FFF700FE012814D0636A002B18D12268E8
:102C800053680E490B405360226893682A218B4396
:102C900093602268136829390B4313602000FFF703
:102CA00095FF10BD68330022C254FEF791F8D6E7B5
:102CB0002000FFF7E5FEE2E70120F2E7FFB7FFFFA4
:102CC00070B582B004000368DB072BD5B34B5A689C
:102CD0000C231340042B1DD0B04B5A680C23134017
:102CE000082B0ED06368012B41D0002B56D1AB4B83
:102CF0001A68AB490A401A601A68AA490A401A6061
:102D00003BE0A64B5B68C022520213408022520275
:102D10009342E7D1A14B1B689B0303D56368002B4B
:102D200000D139E223689B0778D59C4B5B680C2265
:102D30001A4262D0994B5A680C231340082B53D087
:102D4000E368002B00D18BE0944A136801210B4308
:102D5000136000F02BFC0500904B1B689B0776D49A
:102D600000F024FC401B0228F6D9032017E28B4A0E
:102D7000116880235B020B4313606368002B25D02E
:102D800000F014FC0500854B1B689B03CAD400F0BF
:102D90000DFC401B6428F6D9032000E2052B09D066
:102DA0007E4B1A687E490A401A601A687D490A40BB
:102DB0001A60E2E7794B19688022D2020A431A604E
:102DC0001968802252020A431A60D6E700F0EEFB2F
:102DD0000500724B1B689B03A4D500F0E7FB401B6A
:102DE0006428F6D90320DAE16C4B5B68C0225202FA
:102DF0001340802212029342A2D1684B1B689B07AA
:102E000004D5E368012B01D00120C8E163490B68B8
:102E1000F82293432269D20013430B6023681B07F7
:102E200044D5E369002B2ED05C4A536A01210B4341
:102E3000536200F0BBFB0500584B5B6A9B0735D41F
:102E400000F0B4FB401B0228F6D90320A7E1534948
:102E50000B68F82293432269D20013430B60DDE72D
:102E60004E4A136801218B43136000F09FFB05005D
:102E70004A4B1B689B07D1D500F098FB401B0228EA
:102E8000F6D903208BE1454A536A01218B435362F3
:102E900000F08CFB0500414B5B6A9B0706D500F0F8
:102EA00085FB401B0228F6D9032078E123685B07E5
:102EB00000D47FE0394BDB69DB001DD4374AD16990
:102EC000802040050143D161D36903400193019BF8
:102ED0000125354B1B68DB0510D5A368012B21D0DC
:102EE000002B36D12D4B1A6A01218A431A621A6AC5
:102EF00003318A431A621AE00025EAE72A4A116878
:102F000080235B000B43136000F050FB0600264B50
:102F10001B68DB05E1D400F049FB801B6428F6D96F
:102F200003203CE11D4A136A01210B431362A3688D
:102F3000002B24D000F03AFB0600184B1B6A9B07BD
:102F400036D400F033FB801B184B9842F5D9032090
:102F500025E1052B09D0114B1A6A01218A431A6217
:102F60001A6A03318A431A62E1E70C4B1A6A042198
:102F70000A431A621A6A03390A431A62D7E700F051
:102F800015FB0600054B1B6A9B0711D500F00EFBD5
:102F9000801B064B9842F5D9032000E10010024047
:102FA000FFFFFEFFFFFFFBFF0070004088130000E3
:102FB000012D3AD02368DB0610D56369012B3AD086
:102FC000053358D1784A536B04218B435363536BB9
:102FD000F4318B43A169C9000B43536323689B06FB
:102FE00000D482E0704B5A680C2313400C2B60D045
:102FF0006D4B5A680C231340082B53D0236A002BC7
:1030000060D0694A516B80235B020B43536300F02D
:10301000CDFA0500644B5B6BDB0366D400F0C6FAA7
:10302000401B0228F6D90320B9E05F4AD3695F4903
:103030000B40D361BEE75C4B5A6B04210A435A63D1
:103040005A6B03390A435A6300F0B0FA0500564B35
:103050005B6B9B0706D400F0A9FA401B0228F6D947
:1030600003209CE050494B6BF8229343A269D200A5
:1030700013434B63B2E74C4B5A6B04210A435A6328
:103080005A6B03398A435A6300F090FA0500464BA5
:103090005B6B9B07A2D500F089FA401B0228F6D98A
:1030A00003207CE0404B5B68C022520213409342F5
:1030B000A4D13D4B5B6BDB0317D5236A012B14D0E6
:1030C00001206CE0384A536B39490B40536300F0E0
:1030D0006DFA0500344B5B6BDB0306D500F066FA36
:1030E000401B0228F6D9032059E0636A002B55D013
:1030F0002D4A51680C220A40082A52D0022B12D0C5
:10310000294A13682B490B40136000F04FFA040062
:10311000254B1B689B013DD500F048FA001B022897
:10312000F6D903203BE0204A136822490B40136084
:1031300000F03CFA05001C4B1B689B0106D500F013
:1031400035FA401B0228F6D9032028E0164BDA6A2C
:103150000F218A43216B0A43DA625A6816490A40F2
:10316000E16AA06A01430A435A6019688022520446
:103170000A431A6000F01AFA04000B4B1B689B010B
:1031800006D400F013FA001B0228F6D9032006E04B
:10319000002004E0002002E0012000E0002002B056
:1031A00070BD0120FBE7C04600100240FFFFFFEFAB
:1031B000FFFFFEFFFFFFFFFEFF7FC2FF30B589B0BC
:1031C00004AA1F4B180032C832C2110002680A60FC
:1031D0006A46103313CB13C21B681360194B5A682D
:1031E0000C231340082B04D00C2B26D0164809B012
:1031F00030BD910C0F23194004A8445C1149C96AE1
:103200000B406946C95CC0235B021A4080235B0205
:103210009A4208D0C0235B029A4209D00A48FCF7C0
:1032200073FF6043E3E70848FCF76EFF6043DEE7A7
:103230000648FCF769FF6043D9E70448D7E7C04672
:10324000984600080010024000127A00006CDC0270
:1032500070B505000C00594B1A68012313408B42CE
:103260000BD256490B680122934323430B600B6832
:103270001A40A24201D0012070BD2B689B0706D5E1
:103280004F4A5368F0218B43A9680B4353602B6866
:10329000DB0763D56B68012B09D0022B28D0032BE9
:1032A0002CD0474A1268920705D40120E4E7444A2B
:1032B000126892037FD542494A6803208243134330
:1032C0004B6000F073F906006B68012B1CD0022BD9
:1032D00028D0032B34D03A4B5B680C221A423DD0E5
:1032E00000F064F9801B374B9842F4D90320C3E700
:1032F000334A12689201DED40120BDE7304A526B96
:10330000D203D8D40120B7E72D4B5A680C231340C1
:10331000042B23D000F04AF9801B2A4B9842F3D9A2
:103320000320A9E7264B5A680C231340082B15D01D
:1033300000F03CF9801B234B9842F3D903209BE714
:103340001F4B5A680C2313400C2B07D000F02EF9AA
:10335000801B1C4B9842F3D903208DE7174B1A684A
:1033600001231340A3420BD914490B680122934354
:1033700023430B600B681A40A24201D001207BE777
:103380002B685B0706D50E4A53680F490B40E96866
:103390000B435360FFF712FF094B5A6812090F23C2
:1033A00013400A4AD35CD840094B1860002000F053
:1033B000D3F8002060E701205EE7C046002002400D
:1033C0000010024088130000FFF8FFFF10470008BC
:1033D00048000020014B18687047C0464800002094
:1033E00010B5FFF7F7FF044B5A68120A0723134082
:1033F000024AD35CD84010BD0010024020470008AC
:1034000070B582B004000368DB0335D54B4BDB6934
:10341000DB0066D4494AD169802040050143D1616F
:10342000D36903400193019B0125454B1B68DB05D4
:1034300059D5424B1B6AC0229200134013D06168D9
:103440000A409A420FD03D4B186A3E4A02401E6A1B
:103450008021490231431962196A3B4E3140196299
:103460001A62C30753D4354A136A36490B40616860
:103470000B431362012D59D02368DB0706D52F4A71
:10348000136B03218B43A1680B43136323689B07D2
:1034900006D52A4A136B2D490B40E1680B43136391
:1034A00023689B0606D5254A136B10218B4321699F
:1034B0000B43136323689B0306D5204A136B8021BB
:1034C0008B43A1690B43136323685B0533D51B4A08
:1034D000136B40218B4361690B431363002002B0DF
:1034E00070BD0025A1E7164A116880235B000B43DD
:1034F000136000F05BF80600114B1B68DB0598D4E5
:1035000000F054F8801B6428F6D90320E7E700F0A8
:103510004DF80600094B1B6A9B07A4D400F046F83F
:10352000801B0B4B9842F5D90320D8E7D369094992
:103530000B40D361A0E70020D1E7C0460010024055
:1035400000700040FFFCFFFFFFFFFEFFFFFFFCFFDE
:1035500088130000FFFFFFEF10B50400FFF73AFFEC
:10356000FA218900FCF7D0FD00F022FA01200022A8
:103570002100404200F0E2F9002010BD10B5064ADB
:10358000136810210B4313600020FFF7E5FFFDF7E0
:1035900053FB002010BDC04600200240024A1368C1
:1035A000013313607047C046D0160020014B1868E5
:1035B0007047C046D0160020F0B5C64600B582B0B0
:1035C000002338E0042600E00026AE4035003D43ED
:1035D0000234A400574EA551574C25684246D443A7
:1035E0002E0026404A68D20302D5424615432E00DB
:1035F000514D2E606D682E0026404A68920302D518
:10360000424615432E004C4D6E60AD682E0026409C
:103610004A68D20202D5424615432E00464DAE609E
:10362000ED682C404A68920202D542462A431400B3
:10363000414AD46001330A681400DC4076D0012589
:103640009D402A409046F5D04C68022C01D0122CA7
:103650000ED1DC080834A400275807261E40B60007
:103660000F22B24097430A69B24016003E432650EB
:1036700002685F0003242600BE40F64332409446B1
:103680004A681440BC406246144304604C68621EA1
:10369000012A03D9112C01D0122C10D18468344096
:1036A000A446CC68BC406246144384604468AC4382
:1036B0004A681209012515409D4025434560C468AC
:1036C00026408C68BC403443C4604A68D200B1D5FF
:1036D0001A4DAE6901242643AE61AD692C400194B8
:1036E000019C9C08A51CAD00124EAF5903261E403C
:1036F000B5000F26AE40B7439026F605B04200D184
:1037000062E70F4EB0420BD00E4EB0420AD00E4EC2
:10371000B04209D00D4EB04200D153E7052654E720
:10372000012652E7022650E703264EE702B004BC0A
:103730009046F0BD0000014000040140001002402E
:103740000004004800080048000C00480010004831
:1037500003690B4201D1002070470120FCE7002AD9
:1037600001D1816270478161FCE770B5C56B0124AE
:10377000066CB4406C60046863604368102B04D02E
:10378000036899600368DA6070BD03689A60036833
:10379000D960F9E710B504000368064A944663440B
:1037A00018001421FCF7B0FC80002064024BE36396
:1037B00010BDC046F8FFFDBF0000024070B5041EFA
:1037C00024D021250223435501680B68104A1A4072
:1037D000436880680343E0680343206903436069EA
:1037E0000343A0690343E069034313430B602000D4
:1037F000FFF7D0FF0023A362E36223636363A36345
:10380000012262551F32A354002070BD0120FCE745
:103810000FC0FFFF70B504002020205C012832D0CB
:103820002020012525540130205C012804D02023CC
:103830000022E254022070BD2030013525540020C2
:10384000A063256828680126B04328602000FFF7A0
:103850008CFFE36A002B0BD0226813680E210B4308
:1038600013602268136801210B4313600020E2E714
:10387000226813680A210B43136022681368063913
:103880008B431360EDE70220D5E770B5C36B1A6870
:1038900004682568016C04238B401A4212D06B0720
:1038A00010D523689B0603D4236804229343236026
:1038B000C26B0423016C8B405360C36A002B00D0A1
:1038C000984770BD02238B401A4218D0AB0716D51B
:1038D00023689B0606D423680A229343236021238E
:1038E000093AC254C26B0223016C8B4053602023FF
:1038F0000022C254836A002BE3D09847E1E70823F3
:103900008B401A42DDD02B07DBD523680E22934370
:103910002360C26B01231900046CA14051608363D2
:10392000212283541F330022C254036B002BC8D0C2
:103930009847C6E72123C05CC0B2704770B5002825
:1039400011DB8408134DC034A400625903231840CE
:10395000C000FC331E008640B24389010B40834007
:103960001343635170BDC0B20F220240083A92085F
:1039700006329200084BD3185D6803242040C00033
:10398000FF2214008440A54389010A4082402A4353
:103990005A60E7E700E100E000ED00E01F23184077
:1039A0001E3B8340014A13607047C04600E100E0BF
:1039B00001380A4B98420FD8094A50600948036AF7
:1039C0001B021B0AC02109060B43036200239360FC
:1039D00007331360002070470120FCE7FFFFFF0062
:1039E00010E000E000ED00E080B500AF1A4B1A686F
:1039F0001A4B9A420BD1184B194A1A60194B83F390
:103A00000888194B1B68194A13609847FEE7184B42
:103A10001A6801210A431A605A68164802405A601F
:103A20001A68154802401A601A68144802401A6061
:103A30005A68134802405A60DA6A0F208243DA62F9
:103A40001A6B104802401A635A6B8A435A63002269
:103A50009A60BD4680BDC046F03F0020EFBEADDE9F
:103A6000EDFEFECA5022002004C8FF1FD41600201D
:103A7000001002400CB8FF08FFFFF6FEFFFFFBFF3F
:103A8000FFFFC0FF2CFEFCFF10B5002816D08523D9
:103A90009B00C358002B03D085239B000024C450F7
:103AA000002902D084239B00C150FE235B0001212A
:103AB000C1540270FCF712FF002010BD0220FCE789
:103AC000002904D085239B00C150002070470220AC
:103AD000FCE710B5FCF746FF002010BD10B58523AC
:103AE0009B00C358002B07D01B689847002801D1C2
:103AF000002010BD0220FCE70220FAE710B5852364
:103B00009B00C3585B689847002010BD70B5040047
:103B100082239B00C518280000F02CF9FA235B00D3
:103B20000122E250124BE25A163BE2501033E15CA4
:103B3000EA3BFF3B0B40012B0FD0002B07D0022BA1
:103B400010D07F2399432000FCF73FFF03E02900BA
:103B5000200000F0B3FA002070BD2900200000F022
:103B6000D1FAF8E72900200000F0EBFAF3E7C046AD
:103B70000E02000010B504001300002929D1FA221A
:103B800052008258032A01D0002010BD421DFF328E
:103B90009168D26891420FD885239B00C3581B6956
:103BA000002B05D0FE225200825C032A00D19847E8
:103BB000200000F0AEFBE7E7891A0530FF30816096
:103BC0008A4200D90A0092B21900200000F099FB45
:103BD000DAE785239B00C3589B69002BD4D0FE22D3
:103BE0005200825C032ACFD19847CDE770B504001C
:103BF000130000294ED1FA2252008258022A06D020
:103C000080239B00E35C012B3FD0002070BDC26984
:103C1000056AAA421ED8866929003000FCF7FAFA24
:103C2000002906D1B54204D8FC235B00E3589E422C
:103C30001DD385239B00E358DB68002B06D0FE22B2
:103C40005200A25C032A01D120009847200000F016
:103C50006CFBD5E7521BC26192B2190000F039FB30
:103C60000023002200212000FCF709FFC8E7002202
:103C7000200000F02EFBFC235B000022E25000231A
:103C800000212000FCF7FBFEBAE780239B00002206
:103C9000E254BAE785239B00C3585B69002BB4D07C
:103CA000FE225200825C032AAFD19847ADE770B57F
:103CB0000400402300220021FCF764FE40258823F5
:103CC0005B00E550D03B002280212000FCF75AFE2B
:103CD0002562FE235B000122E2541C33E358002BD3
:103CE00006D085239B00E3585B6821792000984724
:103CF000002070BD017400207047FE235B00C15C92
:103D0000FE22FF328154FA3AFF3AC2540020704733
:103D1000FE23FF33C25C013BC2540020704710B544
:103D2000FE235B00C35C032B01D0002010BD852364
:103D30009B00C358DB69002BF7D09847F5E70300D9
:103D4000002002E00130C0B201331A78002AF9D114
:103D5000704710B504004B88012B0AD181239B00CA
:103D60000122C2501033C3589B689847200000F0CE
:103D7000D0FA10BD0B7803704B7843708B78CA78FB
:103D800012029B1843800B794A7912029B18838098
:103D90008B79CA7912029B18C380704710B5040052
:103DA0008021FCF712FE00212000FCF70EFE10BD62
:103DB00030B583B004000D004A88130A072B00D9E0
:103DC0008EE09B004F49CB589F4684239B00C358ED
:103DD0001B68007C6A46911D98476B4606331B881A
:103DE000002B03D0EA88002A00D07EE003B030BD6B
:103DF000037C002B09D185239B00C3589B6A6A462C
:103E0000901D984702234370E7E785239B00C35822
:103E1000DB6A6A46901D984702234370DDE7D2B201
:103E2000052A39D89200384B9B589F4684239B0023
:103E3000C3585B68007C6A46911D9847CDE7842390
:103E40009B00C3589B68007C6A46911D9847C4E755
:103E500084239B00C358DB68007C6A46911D984709
:103E6000BBE784239B00C3581B69007C6A46911DF5
:103E70009847B2E784239B00C3585B69007C6A467D
:103E8000911D9847A9E784239B00C3589B69007C38
:103E90006A46911D9847A0E72900FFF77FFFA5E735
:103EA000037C002B07D185239B00C3585B6B6A46BC
:103EB000901D984791E72900FFF770FF96E7037C74
:103EC000002B09D185239B00C3581B6B6A46901DAC
:103ED00098470723437080E72900FFF75FFF85E7D6
:103EE00029002000FFF75AFF80E7191C934200D9F0
:103EF000111C8AB26B46D9800100200000F0DBF96A
:103F000074E7C046284700084847000870B5040019
:103F10008B88002B22D1CB88002B1FD18B787F255B
:103F20001D40FE235B00C35C032B0FD0FF235B000F
:103F3000C5542900FCF783FD200000F0EAF9002DAC
:103F400007D0FE235B000222E2540AE0FFF726FFBF
:103F500007E0FE235B000122E25402E02000FFF7AD
:103F60001DFF70BD70B504000D008978284B1970D5
:103F700001290AD8FE235B00C35C022B09D0032B66
:103F80001ED02900FFF70AFF02E02900FFF706FF15
:103F900070BD002911D04160FE235B000322C25492
:103FA000FFF79CFD022803D0200000F0B2F9EFE7F4
:103FB00029002000FFF7F2FEEAE700F0AAF9E7E7A0
:103FC000002911D0436899421ED0D9B2FFF796FD5F
:103FD0000F4B197861602000FFF780FD02280ED09A
:103FE000200000F096F9D3E7FE235B000222C254C2
:103FF0004160FFF783FD200000F08BF9C8E729003E
:104000002000FFF7CBFEC3E700F083F9C0E7C0460E
:104010009803002010B5CB88012B09D1FE235B004B
:10402000C35C022B07D0032B0DD0FFF7B7FE01E0D6
:10403000FFF7B4FE10BD00238360010008310122A8
:1040400000F039F9F6E7011D012200F034F9F1E73B
:1040500010B5FE235B00C35C023BDBB2012B0ED824
:104060000123C36081239B00C358002B01D003238D
:10407000C36001000C31022200F01DF910BDFFF7F2
:104080008DFEFBE710B50400FE235B00C35C023B22
:10409000DBB2012B0ED84B88012B0AD181239B0068
:1040A0000022C2501033C3589B689847200000F08C
:1040B00030F910BDFFF772FEFBE7000010B54B783A
:1040C000092B19D89B000E4AD3589F46FFF770FE64
:1040D000002010BDFFF71AFFFAE7FFF743FFF7E7ED
:1040E000FFF798FFF4E7FFF7B3FFF1E7FFF731FEC3
:1040F000EEE7FFF7C7FFEBE7FFF750FEE8E7C04644
:104100006047000870B504000D00FE235B00C35C2F
:10411000032B13D10B79012B0DD885239B00C3589A
:104120009B689847EB88002B01D0002070BD2000D1
:1041300000F0EFF8F9E7FFF731FEF6E7FFF72EFEA4
:10414000F3E770B505000C008A88D1B220786023AF
:104150000340202B08D1F533FF33EB589B68210037
:1041600028009847002070BD6378012B2CD0002BCD
:1041700052D0032BF6D1FA33FF33EB5C022B06D07F
:10418000032B0CD021002800FFF708FEEAE70029E6
:10419000E8D08029E6D02800FCF717FCE2E7638826
:1041A000002B06D1002904D0802902D02800FCF77A
:1041B0000CFC85239B00EB589B6821002800984746
:1041C000280000F0A6F8CDE7FE235B00EB5C022B95
:1041D00006D0032B0CD021002800FFF7DFFDC1E73C
:1041E0000029BFD08029BDD02800FCF7EEFBB9E73D
:1041F0006388002BB6D14B0603D1280000F089F864
:10420000B0E72800FCF7F1FB85239B00EB589B6887
:10421000210028009847F0E7FE235B00EB5C022BAF
:1042200006D0032B0AD021002800FFF7B7FD99E73D
:104230004B0697D02800FCF7C8FB93E7130612D46F
:104240007F240C40103424012C1904342800FCF77E
:10425000DCFB00280ED0012323600222210028006D
:1042600000F029F87EE77F240C40013424012C194A
:104270000434EBE700232360EFE770B504000D0082
:104280001600002816D0FFF75AFD0130400080B21A
:104290003080287003236B70013B08E001345A1C06
:1042A000D2B2E9540233DBB2AA180021117021788E
:1042B0000029F3D170BD10B51300FA225200022478
:1042C00084508361C3610A000021FCF7C8FB002011
:1042D00010BD10B513000A000021FCF7C0FB002040
:1042E00010BD10B51300FA22520003248450EC3A9A
:1042F0008350043283500A000021FCF7C0FB0020E9
:1043000010BD10B513000A000021FCF7B8FB002017
:1043100010BD10B5FA235B000422C2500023002216
:104320000021FCF79CFB002010BD10B5FA235B00B8
:104330000522C250002300220021FCF7A0FB002030
:1043400010BD86239B00C358002B05D08522920008
:1043500000219950002070470220FCE710B5862309
:104360009B00C4580433C358002B0DD08022920008
:10437000A05CFF2808D09B68044AA25C21009847F3
:1043800080239B00FF22E254002010BD01020000A8
:1043900043230380004870478400002043230380A8
:1043A00000487047C800002043230380004870473E
:1043B000180100200A230380004870470C010020E8
:1043C00070B504008626B6008559FCF768FB832388
:1043D0009B00E850A359002B0BD087239B00E35888
:1043E000DB6883229200A918083AA8589847002051
:1043F00070BD0220FCE7000070B505000C008623AC
:104400009B00C6580978B93BFF3B0B402AD0202BB4
:104410000AD1E288002A09D187239B00C3589B68F0
:104420006078002221009847002070BD49B2002921
:104430000CDAFD33FF33C3589B686078310098472E
:10444000E28831002800FFF736FFEDE7627880232D
:104450009B00F254E288074BF254E2883100FFF7E8
:1044600040FFE1E763780A2BDED101220249FFF722
:1044700022FFD9E7010200009903002070B5040073
:104480008121FCF792FA01212000FCF78EFA8221AB
:104490002000FCF78AFA86239B00E358002B0BD000
:1044A00087239B00E3585B6898478625AD006059D9
:1044B000FCF700FB00236351002070BD70B50400C1
:1044C000037C002B34D18025AD002B0002228121FA
:1044D000FCF758FA2B00022201212000FCF752FAC7
:1044E0000823032282212000FCF74CFA8720800059
:1044F000FCF7DCFA050086239B00E05000282DD055
:104500000433E3581B689847002385229200AB5080
:104510000432AB50237C002B16D081239B00EA5839
:10452000C53BFF3B01212000FCF7A9FA002070BD2C
:10453000402302228121FCF725FA40230222012197
:104540002000FCF71FFACBE78033143AAA589B00EF
:1045500001212000FCF793FA0020E8E70120E6E7BC
:10456000002904D087239B00C150002070470220FF
:10457000FCE786239B00C3588220800019508421C9
:1045800089005A500020704786239B00C258143B74
:10459000D1500020704710B586239B00C258002AD6
:1045A00016D0037C002B09D081239B00D258C53B39
:1045B000FF3B0121FCF763FA002010BD803381210D
:1045C000890052589B000121FCF759FA0020F4E7BA
:1045D0000220F2E70D4885460D480E490E4A002399
:1045E00002E0D458C4500433C4188C42F9D30B4AA7
:1045F0000B4C002301E013600432A242FBD3FFF70F
:10460000F3F900F011F8FCF71BF8FEE7004000207A
:10461000000000205C010020904700085C010020A1
:10462000D8160020FEE7000070B500260C4D0D4C9A
:10463000641BA410A64209D1002600F021F80A4DFF
:104640000A4C641BA410A64205D170BDB300EB5800
:1046500098470136EEE7B300EB5898470136F2E78A
:104660008847000888470008884700088C470008EA
:1046700003001218934200D1704719700133F9E713
:10468000F8B5C046F8BC08BC9E467047F8B5C046B1
:08469000F8BC08BC9E4670470F
:1046980002030405060708090A0B0C0D0E0F10107B
:1046A8000102030405060708090A0B0C0D0E0F107A
:1046B80043444320436F6E666967000043444320C8
:1046C800496E7465726661636500000053544D69F4
:1046D80063726F656C656374726F6E6963730000F3
:1046E80053544D3332205669727475616C20436F90
:1046F8006D506F7274000000303030303030303020
:1047080030303141000000000000000000000000CF
:10471800010203040607080900000000010203045F
:10472800E03E0008CA3D0008F03D00081E3E0008B3
:10473800E03E0008E03E0008A03E0008BE3E00083B
:104748002C3E00083E3E0008503E0008623E00082D
:10475800743E0008863E0008E6400008F240000863
:10476800F8400008EC400008F8400008D440000871
:10477800CC400008F8400008E0400008DA40000893
:04478800E90000083C
:04478C00C100000860
:104790001E000000B90A0008C50A0008F90A00084E
:1047A000D10A0008150B00083D0B0008650B000836
:1047B000120100020202004083044057000201027D
:1047C0000301000004030904B10B00088D0B00086D
:1047D000910B0008950B000800127A00BD440008F8
:1047E0007D440008F9430008000000005D43000814
:1047F00043430008C143000800000000000000001F
:10480000000000009D43000891430008A9430008F0
:10481000B543000809024300020100C03209040048
:10482000000102020100052400100105240100011D
:104830000424020205240600010705820308001073
:1048400009040100020A00000007050102400000FF
:10485000070581024000000009024300020100C078
:1048600032090400000102020100052400100105C4
:104870002401000104240202052406000107058228
:104880000308001009040100020A000000070501E6
:104890000200020007058102000200000A06000271
:1048A000000000400100000009074300020104C0AD
:1048B0003209040000010202010005240010010574
:1048C00024010001042402020524060001070582D8
:1048D000030800FF09040100020A000000070501A7
:0C48E000024000000705810240000000BB
:04000005080045D5D5
:00000001FF
