:020000040800F2
:10000000004000205D450008510B0008530B00081C
:1000100000000000000000000000000000000000E0
:10002000000000000000000000000000550B000868
:100030000000000000000000570B0008590B0008EA
:10004000AD450008AD450008AD450008AD450008C8
:10005000AD450008AD450008AD450008AD450008B8
:10006000AD450008610B0008710B0008750B000816
:10007000AD450008AD450008AD450008AD45000898
:10008000AD450008AD450008AD450008AD45000888
:10009000AD450008AD450008AD450008AD45000878
:1000A000AD450008AD450008AD450008AD45000868
:1000B000AD450008AD450008AD450008A10B00089E
:1000C000002934D00123002210B488422CD301240B
:1000D0002407A14204D2814202D209011B01F8E7A0
:1000E000E400A14204D2814202D249005B00F8E759
:1000F000884201D3401A1A434C08A04202D3001B85
:100100005C0822438C08A04202D3001B9C082243B7
:10011000CC08A04202D3001BDC082243002803D0F5
:100120001B0901D00909E3E7101C10BC704701B599
:10013000002000F00BF802BD0029F8D003B5FFF74E
:10014000C1FF0EBC4243891A1847C0467047C046DB
:1001500010B5064C2378002B07D1054B002B02D09D
:10016000044800E000BF0123237010BD5C010020A3
:100170000000000008460008044B10B5002B03D017
:100180000349044800E000BF10BDC0460000000065
:10019000600100200846000810B500220121044833
:1001A00003F09BFA0021034802F086FA10BDC04616
:1001B00000040048B007002010B5002202210948C1
:1001C00003F08BFA0C21084802F076FA074C002263
:1001D0004021200003F081FA00228021200003F05A
:1001E0007CFA10BD00040048B00700200008004859
:1001F000F0B5D6464F464646C0B588B01422002119
:1002000003A804F0F9F9394B596980200003014330
:1002100059615A6902400092009A5969802080020F
:10022000014359615A6902400192019A5A69802139
:10023000C9020A435A615B690B400293029BE024A6
:1002400024022B4B9A4600222100180003F045FAA5
:10025000284B99469023DB05984600224946180012
:1002600003F03BFA244D00220321280003F035FA65
:10027000039401270497002405940326069603A9F6
:10028000504603F045F94B460393049705940696B0
:1002900003A9404603F03CF904230393174B04934E
:1002A000059403A9280003F033F9039604970594F5
:1002B000069603A9280003F02BF981231B02039360
:1002C00004940223059303A9280003F021F938239D
:1002D00003930496059403A9280003F019F908B0C4
:1002E0001CBC90469946A246F0BDC0460010024094
:1002F00000080048FF04000000040048000011103E
:1003000000B583B00D4A5169012319435161526907
:1003100013400193019B00220021092003F0CCFA35
:10032000092003F0F9FA002200210B2003F0C4FA9F
:100330000B2003F0F1FA03B000BDC04600100240EC
:1003400030B58DB02022002104A804F055F9082210
:10035000002101A804F050F90C4C0D4B236000253E
:100360006560A560E56025616561A5610123039372
:100370000593099303A9200001F0C6FF019502959A
:1003800001A9200002F0D8F90DB030BD2C070020E3
:10039000002C0140F0B5C64600B594B010220021F3
:1003A00010A804F029F9082200210EA804F024F96D
:1003B0001C22002107A804F01FF91C220021684616
:1003C00004F01AF9214C8023DB05236000256560C9
:1003D000A5601F4E3388E3602561A561200001F010
:1003E0005FFF80235B01109310A9200002F0A4F8A6
:1003F000200001F06FFF0E950F950EA9200002F06E
:100400009BF960239846079330880321FFF758FE35
:1004100080B240000890022709970B95002207A997
:10042000200002F007F84346009330880321FFF7CD
:1004300047FE80B20190029704950C226946200085
:1004400001F0F8FF14B004BC9046F0BDB0070020E6
:100450000000002010B50948094B0360E1235B024E
:10046000436000238360C36003610C2242618361A7
:10047000C3610362436202F081FB10BDF4050020FA
:1004800000480040054B064A1A60BFF34F8F054BEA
:10049000054ADA60BFF34F8FC046FDE7F03F00200A
:1004A000EFBEADDE00ED00E00400FA05F8B5154B37
:1004B000586A03F0FDF9022822D0124B186B03F0A2
:1004C000F7F902281CD08024E405236801252B407D
:1004D00023600D4F0B4EE8230C4A3900706A03F07D
:1004E00057F9E8230A4A3900306B03F051F9002329
:1004F00063621821300002F0B7F823681D402560C0
:10050000F8BDC046B00700209C030020140000483E
:100510001408004810B598B0302200210CA804F04F
:100520006BF81022002107A804F066F81C220021B5
:10053000684604F061F822230B93213B0E9313933A
:100540000F330F930BA802F051FB07230793043BD3
:100550000893002409940A94012107A802F00EFED2
:1005600080239B0200930694684602F0E1FE18B0D7
:1005700010BD000010B502F09BFFFFF7CBFFFFF7A7
:1005800037FEFFF7BDFEFFF7DBFEFFF703FFFFF7C8
:1005900061FF00F0B5F880214900504803F096F85B
:1005A000002801D0FFF76EFF012202214B4803F023
:1005B00094F8E82252004A494A4804F01DF8002302
:1005C000DE2B49D8474A59008020C0008852591C68
:1005D000490045488852991C490020208852D91C5E
:1005E000490017388852191D49008120C0008852DF
:1005F000591D490003208852991D49007F308852B7
:10060000D91D49000F308852190008314900374878
:1006100088521900093149000420885219000A3112
:1006200049004030885219000B3149000438885283
:1006300019000C314900885219000D314900002081
:10064000885219000E314900885219000F314900B3
:10065000885210339BB2B3E7224B8021C900E022BD
:10066000520099520022E12040001A5202301952E1
:1006700002301A520230195202301A520230195204
:10068000E72149005A521A4A536A1A499962136873
:10069000D868802189000143D960126B16499162A4
:1006A000D968802252010A43DA6009E0012201215F
:1006B000200003F012F8FFF7F9FE022002F016FF07
:1006C000064C01220221200003F007F88021490096
:1006D000200002F0FBFF0028F2D0E7E7000400480A
:1006E000FFFF00009C03002021E0FFFF90E0FFFFE0
:1006F000B007002099010008B90100087047000008
:1007000010B5094C00220949200003F07BF9084983
:10071000200003F093F90749200003F0E5FE2000D4
:1007200003F095F910BDC0463408002004000020F5
:100730004C0000203800002010B5FFF7EBFE10BD84
:1007400000B583B002680C4B9A4201D003B000BDE3
:100750000A4AD169802000040143D161D369034072
:100760000193019B002200211F2003F0A5F81F2008
:1007700003F0D2F8EAE7C046005C004000100240F7
:1007800010B5010087239B00C058ED31FF3103F005
:100790007BF910BD10B50300872292008058CA0073
:1007A000521A92009B181933FF331A6803F0A0F90C
:1007B00010BD10B50300872292008058CA00521A5B
:1007C00092009B189A6B03F0D0F910BD10B58723E7
:1007D0009B00C05803F063FA10BD70B50400872574
:1007E000AD000121405903F045FA605903F01FFAAA
:1007F00070BD000010B5040087239B00C05803F0B3
:100800003CFAA369002B04D0024A136906210B436A
:10081000136110BD00ED00E010B504008369002BEA
:1008200005D187239B00E05803F032FA10BD044A3B
:10083000136906218B431361FFF77EFFF1E7C04682
:1008400000ED00E070B504001E4887239B00C450F3
:100850000433E0501C4B0360082343600222826093
:100860000023C36002618361C361036200F0DCFAAC
:10087000002823D18825AD001823002200216059CB
:1008800001F0A8FB582300228021605901F0A2FB4F
:10089000C02300228121605901F09CFB88235B006A
:1008A00000220121605901F095FB605980235B0013
:1008B0000022822101F08EFB002070BDFFF71EFF99
:1008C000D8E7C046580A0020005C004010B58823D5
:1008D0009B00C05800F008FB022804D005D800286F
:1008E00000D0022010BD0120FCE70220FAE710B57D
:1008F00014001A0088239B00C058230000F01CFB42
:10090000022804D005D8002800D0022010BD012004
:10091000FCE70220FAE710B588239B00C05800F0DE
:1009200091FC022804D005D8002800D0022010BD78
:100930000120FCE70220FAE710B588239B00C0588D
:1009400000F064FE022804D005D8002800D0022060
:1009500010BD0120FCE70220FAE710B588239B00B8
:10096000C05800F0ADFE022804D005D8002800D001
:10097000022010BD0120FCE70220FAE788239B003B
:10098000C3584AB2002A09DB7F221140CA00511A1B
:1009900089005B180B33FF33187870477F221140B2
:1009A000CA00511A89005B182A331878F5E710B588
:1009B00088239B00C05800F0A3FA022804D005D871
:1009C000002800D0022010BD0120FCE70220FAE739
:1009D00010B58824A400005900F0F0FE022804D0CD
:1009E00005D8002800D0022010BD0120FCE702201D
:1009F000FAE710B58824A400005900F0F5FC02289D
:100A000004D005D8002800D0022010BD0120FCE74A
:100A10000220FAE710B588239B00C05800F0EAFDD9
:100A200010BD0000004870477801002070470000AA
:100A300012230B80004870472000002004230B8005
:100A4000004870473400002010B50A00002805D186
:100A50000549064803F0D3FB034810BD024903488B
:100A600003F0CDFBF8E7C046780C002020460008D4
:100A700010B50A00034C2100034803F0C0FB20001E
:100A800010BDC046780C00203846000810B50A009A
:100A9000002805D10549064803F0B1FB034810BD05
:100AA0000249034803F0ABFBF8E7C046780C00208E
:100AB0004C46000810B50A00002805D10549064833
:100AC00003F09DFB034810BD0249034803F097FB68
:100AD000F8E7C046780C00205C46000810B50A0014
:100AE000002805D10549064803F089FB034810BDDD
:100AF0000249034803F083FBF8E7C046780C002066
:100B000068460008002070470020704710B50100BB
:100B1000044C200003F0FCFC200003F000FD00204A
:100B200010BDC0463408002010B5064C002206490E
:100B3000200003F0E2FC0549200003F0E9FC00205E
:100B400010BDC0463408002060120020780E00203E
:100B50007047FEE77047704710B502F0B9FC10BD52
:100B600010B5024802F04FFE10BDC046F00700204D
:100B70007047000010B5064802F045FE054802F037
:100B800042FE054802F03FFE044802F03CFE10BD64
:100B90006C0700206C050020B005002064060020D2
:100BA00010B5024801F088F910BDC046580A00206F
:100BB00082B00A4B996901221143996199690A40EF
:100BC0000092009ADA69802149050A43DA61DB69FB
:100BD0000B400193019B02B07047C04600100240D9
:100BE00010B588B004001422002103A803F004FD0E
:100BF0002268124B9A4201D008B010BD104B99697F
:100C000080200001014399619A6902400192019A92
:100C10005A69802189020A435A615B690B40029339
:100C2000029BC0239B00039302230493079390200D
:100C300003A9C00502F06CFCDEE7C046002C0140B1
:100C40000010024010B582B0040003688022D20573
:100C5000934204D0364A93425FD002B010BD354A69
:100C6000D16901231943D161D26913400093009BDC
:100C70003148324B0360102343600023836080229D
:100C8000C260803202618022D2004261836180238F
:100C90009B01C36102F050FD002835D1264B6362F1
:100CA0005C622748274B0360102343600023836066
:100CB0008022C260803202618022D2004261836160
:100CC00080239B01C36102F037FD00281FD11C4B1C
:100CD00023635C621C481D4B0360102343600023A8
:100CE00083608022C260803202618022D200426131
:100CF000836180239B01C36102F01EFD002809D19E
:100D0000114BE3625C62A8E7FFF7F8FCC6E7FFF768
:100D1000F5FCDCE7FFF7F2FCF2E7064AD1690223B3
:100D20001943D161D26913400193019B95E7C046F5
:100D300000040040001002406C05002058000240F2
:100D40006C07002044000240F00700200800024029
:100D500010B588B004001422002103A803F04CFC55
:100D60002A4B22689A4201D008B010BD284BD9699D
:100D70008022D2021143D961D969114001910199B0
:100D80005969114359615B691A400292029BC02361
:100D90001B0103930223049301330693013307934A
:100DA00003A91C4802F0B4FB1B481C4B0360002342
:100DB000436083608022C26003614361836180235A
:100DC0009B01C36102F0B8FC002819D1124B636685
:100DD0005C621348134B036010234360002383605D
:100DE0008022C26003614361836180239B01C361F0
:100DF00002F0A2FC002806D1094B23665C62B3E72F
:100E0000FFF77CFCE2E7FFF779FCF5E700480040DC
:100E10000010024000040048B00500206C000240B1
:100E2000640600208000024070B5041E58D0EA23FA
:100E3000FF33C35C002B1AD0EA23FF330322E254B2
:100E400000226068904219D9D3009B1A9B00E318D6
:100E5000190029310120087001390A7018002B305F
:100E60000021017059639963D9630132E9E7E933DD
:100E7000FF330022C254FFF763FCDDE7002214E0D9
:100E8000D3009B1A9B00E3181D000A35FF35002193
:100E90002970013D2A700335297009352960043510
:100EA00029601D33FF33196001329042E8D8402396
:100EB00001222168CA5200222168CA5244212068B6
:100EC00042520C3120684252064A2168CA5200221E
:100ED0001C3BE2540122EA23FF33E254002070BDA0
:100EE0000120FCE700BFFFFF016858228B5A03482E
:100EF00003439BB28B5200207047C0460080FFFF27
:100F0000F4235B00C35C012B13D0F4235B000122AC
:100F1000C25400290AD19D3BFF3B7F320168CA526F
:100F2000F4235B000022C254002070472423C154E4
:100F3000F6E70220F9E70000F0B54DB2002D2CDBFA
:100F40007F260E40F400A41BA4000934FF340419CA
:100F50007F2631402170ED0F6570E260E370F4236D
:100F60005B00C35C012B00D151E1F4235B00012243
:100F7000C254E378022B00D16AE016D8002B21D0AE
:100F8000012B29D1056823789B00EA5AA149114019
:100F90008022D2000A43EA521EE07F260E40F4006F
:100FA000A41BA40028340419D2E7032B14D105682C
:100FB00023789B00EA5A97491140C022D2000A4385
:100FC000EA5209E0056823789B00EA5A91491140EA
:100FD000802292000A43EA52016823789D004A5B0E
:100FE0008D4E324013438D4A13434B53A37A002B4B
:100FF00000D07CE06378002B32D0A28805685023B3
:10100000EB5A2178C9005B185B198021C9008C4616
:10101000634401218A431A80026823789B00D11817
:10102000D35A5A0603D533407D4A13430B800168D7
:10103000227892008B5A7B4C234020246340774CCB
:1010400023438B52F4235B000022C2540020F0BDE6
:10105000016823789B00CA5A6E4D2A40CA52BBE7EA
:10106000A28805685026AB5B2178C9005B185B1924
:101070006D498C46634401218A431A8001688B5B69
:101080002278D2009B185B18684A94466344E16852
:101090003E2923D94A0992B2C90601D1013A92B236
:1010A000920292B262490A431A80026823789B0036
:1010B000D118D35A5A0404D5574A13405D4A1343F2
:1010C0000B80056823789B00E95A5B4A1140C022D7
:1010D00092015140514A0A43EA52B3E74A0892B298
:1010E000C90701D5013292B292021A80DDE7056884
:1010F00023789B00EA5A51491140514A0A43EA5267
:10110000E28805685027EB5B2178C9005B185B1902
:101110008021C9008C4663440126B2431A8022898B
:101120000568EB5B2178C9005B185B193E498C466A
:101130006344B2431A806378002B35D10268237868
:101140009B00D118D35A5A0404D5334A1340394A64
:1011500013430B80026823789B00D118D35A5A0698
:1011600004D52D4A13402E4A13430B80056823787B
:101170009B00EA5A28491140294A0A43EA52056865
:10118000217889006B5A2C4A1A40C0239B01534096
:10119000224A13436B52056823789B00E95A214C7D
:1011A00021400A43EA524DE7026823789B00D11898
:1011B000D35A5A0404D5184A13401E4A13430B80CD
:1011C000026823789B00D118D35A5A0604D5124AD4
:1011D0001340134A13430B80056823789B00EA5A97
:1011E0000D491140134A0A43EA52056821788900E3
:1011F0006B5A0C4A1340094A13436B520568237813
:101200009B00E95A0C4C21400A43EA521AE702209B
:101210001DE7C0468F89FFFF0F0F00008080FFFF92
:10122000C080FFFFBF8FFFFF040400000604000022
:101230000080FFFF80C0FFFF8FBFFFFF0F0E000089
:101240008081FFFF30B50C004AB2002A37DB7F21D6
:101250002140CB005B1A9B000933FF33C3187F2169
:1012600021401970D20F5A70F4225200825C012A78
:1012700000D1ABE0F4225200012181549A7A002A75
:101280003BD15A78002A22D001681A7892008C1833
:101290008A5A510604D54E490A404E490A432280D3
:1012A00004681B789B00E25A4B4911404B4A0A43A1
:1012B000E252F4235B000022C254002030BD7F21A3
:1012C0002140CB005B1A9B002833C318C7E7016895
:1012D0001A7892008C188A5A510404D53C490A4065
:1012E0003F490A43228004681B789B00E25A3D492B
:1012F00011403A4A0A43E252DBE75A78002A32D1D7
:1013000001681A7892008C188A5A510404D5304921
:101310000A4033490A43228001681A7892008C18E7
:101320008A5A510604D52A490A402A490A4322808A
:1013300005681A789200A95A254C0C40254921438A
:10134000A95205681C78A4002A5B26490A40234953
:101350000A432A5304681B789B00E25A1E4D2A4018
:101360001143E152A5E701681A7892008C188A5A55
:10137000510404D516490A4019490A4322800168DC
:101380001A7892008C188A5A510604D510490A40DE
:1013900010490A43228005681A789200A95A0C4C19
:1013A0000C400F492143A95205681C78A4002A5B10
:1013B00009490A4009490A432A5304681B789B00DB
:1013C000E25A084D2A401143E15272E7022075E7C4
:1013D0000F0F0000C080FFFFBF8FFFFF8080FFFF67
:1013E00080C0FFFF8FBFFFFF30B57F242140CC00BE
:1013F000641AA400041925001935FF352A6022005B
:101400001D32FF321360083500222A60173D2A7012
:1014100022000932FF3211701534FF3422689342E2
:1014200041D9CC00641AA40004191D34FF349B1A5E
:101430002360CB005B1A9B00C3181333FF331B7868
:10144000002B43D104685033E55ACB005B1A9B0054
:10145000C3180933FF331B78DB00EB181C19604BF2
:101460009C4664443E2A28D953099BB2D20601D136
:10147000013B9BB29B029BB25A4A134323800468F0
:10148000CB00591A890040180930FF3003789B00BF
:10149000E15A554A1140C02292015140534A0A4331
:1014A000E252002030BDCA00521A920082181D324A
:1014B000FF32002414601A00BBE753089BB2D20726
:1014C00001D501339BB29B022380D8E7CB005B1A86
:1014D0009B00C3180A33FF331B78002B26D1046806
:1014E0005033E55ACB005B1A9B00C3180933FF3316
:1014F0001B78DB00EB181C193D4B9C4664443E2ACC
:101500000BD953099BB2D50601D1013B9BB29B027B
:101510009BB2344D2B4323800AE053089BB2D5077E
:1015200001D501339BB29B02238001E0012B26D021
:10153000CB005B1A9B00C3180A33FF331B78002BC8
:1015400038D104685033E55ACB005B1A9B00C318AE
:101550000933FF331B78DB00EB181C19204B9C462A
:1015600064443E2A1DD953099BB2D20601D1013BE6
:101570009BB29B029BB21B4A134323807FE7046804
:101580004F33E55ACB005B1A9B00C3180933FF3376
:101590001B78DB00EB181C19154B9C466444228019
:1015A000C6E753089BB2D20701D501339BB29B0219
:1015B000238064E7012B00D061E704684F33E55ACC
:1015C000CB005B1A9B00C3180933FF331B78DB0089
:1015D000EB181C19024B9C46644422804FE7C0461E
:1015E000060400000080FFFF8FBFFFFF8080FFFF29
:1015F000020400000B007F211940CB00591A89001A
:1016000040182130FF3000887047000010B50C00F2
:10161000F4235B00C35C012B46D0F4235B00012262
:10162000C2544AB2002A1EDBCB005B1A9B0009336E
:10163000FF33C318012199707E3121401970D20FF8
:101640005A70002917D104688900625A174B1A4052
:10165000174B5A40174B13436352F4235B0000228D
:10166000C254002010BD7F212140CB005B1A9B009B
:101670002833C318DEE7002A0AD002688900535ACB
:101680000D4C2340102463400A4C23435352E4E79B
:1016900004688900625A094B1A4080235B015A4052
:1016A000044B13436352D8E70220DBE7BFBFFFFFC1
:1016B000101000008080FFFFBF8FFFFF8FBFFFFF74
:1016C00010B50C004AB2002A35DBCB005B1A9B0038
:1016D0000933FF33C318002199707F3121401970FD
:1016E000D20F5A70F4225200825C012A44D0F422B4
:1016F0005200012181545A78002A24D001681A78B6
:1017000092008C188A5A510604D51C490A401C497B
:101710000A43228001681A7892008B5A194C2340A0
:1017200030246340184C23438B52F4235B00002287
:10173000C254002010BD7F212140CB005B1A9B00CA
:101740002833C318C7E701681A7892008C188A5AA0
:10175000510404D509490A400C490A43228004680F
:101760001B789B00E15A0A4A1140C0229201514065
:10177000054A0A43E252D8E70220DBE70F0F0000D8
:10178000C080FFFFBF8FFFFF8080FFFF80C0FFFF93
:101790008FBFFFFF10B501335B0810188022D20005
:1017A00094466044002B08D00C784A7812022243F9
:1017B00002800231013B0230F4E710BDF8B50500AC
:1017C0007F240C40E100091B890041188A63CB6328
:1017D00000220A640A00293201201070013A1470B4
:1017E0004F6BBB4233D9DB1BCB63E200121B920071
:1017F000AA1832321378002B31D02A68E3001B1B61
:101800009B00EB18283318788300D35A5B0600D46A
:1018100084E0E3001B1B9B00EB1829331B78002B93
:101820003ED15033D35AC00018188218604B9C46E2
:1018300062443E2F2BD97B099BB2F90601D1013BB3
:101840009BB29B029BB25B48034313802AE0E200F9
:10185000121B9200AA180021D1631F00C5E7BFB276
:10186000E600361BB600AE19B28D3B00B16B28689E
:10187000FFF790FF2A685023D35A28363178C900E1
:101880005B189B184C4A944663441F802AE07B08EF
:101890009BB2F90701D501339BB29B02138001E093
:1018A000012B31D0E3001B1B9B00EB181A8EBBB23F
:1018B000E600361BB600AE19B16B2868FFF76AFF69
:1018C00029363378002B62D12A68E3001B1B9B006A
:1018D000EB1828331B789B00D15A38480840384908
:1018E0000143D1522868E1000C1BA4002D192835B2
:1018F0002A789200835A33490B4030214B403249B9
:101900000B4383520020F8BD4F33D35AC000181840
:101910008218274B9C4662441780C3E7E3001B1BD9
:101920009B00EB1829331B78002B1ED15033D35A60
:10193000C00018188218204B9C4662443E2F0BD9D9
:101940007B099BB2F90601D1013B9BB29B029BB282
:101950001848034313800AE07B089BB2F90701D5BE
:1019600001339BB29B02138001E0012B05D0E30001
:101970001B1B9B00EB18DA8D99E74F33D35AC0003D
:10198000181882180C4B9C4662441780EFE7012B15
:10199000A8D12A68E3001B1B9B00EB1828331B7897
:1019A0009B00D15A0548084008490143D15299E7A4
:1019B000060400000080FFFF020400000F0F00007B
:1019C000C080FFFFBF8FFFFF8080FFFF80C0FFFF51
:1019D00010B55C0810188022D20094466044002C98
:1019E00007D002880A70120A4A70013C02300231A4
:1019F000F5E7DB0701D503880B7010BDF0B583B0A8
:101A0000040001AB00221A80B4E10388AA4A134003
:101A1000038021685023CB5A2822A25CD2009B1855
:101A20005B18A64A944663441B889B059B0D236460
:101A3000A26B94466344A36300212000FEF7B9FE25
:101A40002423E35C002B00D194E1E36B002B00D056
:101A500090E12422A35C802149420B43DBB2CC31CC
:101A6000206843520023A35484E15023C35A8422A4
:101A70005200A25CD2009B181B18914A9446634402
:101A80001B889B059B0D22000932FF3293612100C8
:101A9000ED31FF319288FFF79BFF22681388894957
:101AA0000B4013802000FEF76BFE63E11500928867
:101AB0002969FFF78DFF2B69AA69944663442B615E
:101AC00096E14B089BB2C90701D501339BB29B023B
:101AD0001380AAE1AE008119825B01AB1A801B88DA
:101AE0001BB2002B2EDB01AB1B881B0600D441E18F
:101AF0002268935B70490B409353EB005B1B9B0088
:101B0000E31832331B78002B00D0E1E0206850331B
:101B1000C35AEA00521B9200A2181100283109781A
:101B2000C9005B181B1865498C4663441B889B05DC
:101B30009B0D136400D1F8E01100928D896BFFF7C3
:101B400029FEF2E05F4B1A400A80EB005B1B9B0012
:101B5000E3181333FF331B78002B23D12068503355
:101B6000C25AEB005B1B9B00E3180933FF331B7861
:101B7000DB00D3181B18524A944663441B889B050C
:101B80009F0D002B36D0EB005B1B9B00E3181A0067
:101B90000D32FF3212881933FF3319683B00FFF70B
:101BA00017FF27E02068EB005B1B9B00E31809335D
:101BB000FF331B789A00825A520455D55022825A1C
:101BC000DB00D3181B183D4A944663441B889B05D1
:101BD0009F0D002B39D12268EB005B1B9B00E318A3
:101BE0000933FF331B789B00D15A374808403749E7
:101BF0000143D1523800E900491B890061180A00ED
:101C00002132FF321368DB1913600B001933FF33E5
:101C10001A68944667441F601D31FF310B68002B22
:101C200008D0E900491B890061181531FF310A68A5
:101C3000904235D2EB005B1B9B00E3180933FF3366
:101C400019782000FEF7A6FD4DE7EB005B1B9B001B
:101C5000E3181A000F32FF3212881933FF33196864
:101C60003B00FFF7B5FEB6E75022825ADB00D318DF
:101C70001B18134A944663441B889B059F0D002B39
:101C8000A9D0EB005B1B9B00E3181A001132FF3256
:101C900012881933FF3319683B00FFF799FE9AE762
:101CA000EA00521B9200A2180932FF3211783A0062
:101CB0002000FFF799FB16E70F8FFFFF02040000DB
:101CC000060400008F0F00000F0F0000C080FFFF10
:101CD0002068EB005B1B9B00E31828331B789A00FD
:101CE000825A520600D4B1E05022825ADB00D31847
:101CF0001B18694A944663441B889B059B0DEA00A8
:101D0000521B9200A2181364002B00D098E02268A6
:101D1000EB005B1B9B00E31828331B789B00D15A18
:101D20005E4808405E490143D15221685023CA5A97
:101D3000EB005B1B9B00E318180028300078C00004
:101D40001218521854498C46624412889205920D1A
:101D50001A64996B8C4662449A63DB6B002B00D04B
:101D60008DE0EB005B1B9B00E31828331978200003
:101D7000FEF71FFD20684423C35A9BB26A46D380F6
:101D80001BB2002B00DB84E06B46DA880F231500C2
:101D90001D401A4200D09DE66B4606331B88DB06C9
:101DA00000D432E6028801AB1A801B881B0500D5DF
:101DB0005BE601AB1B881BB2002BDBDA0388394AD8
:101DC0001340038020685023C35A84225200A25C2F
:101DD000D2009B181B18344A944663441B889B0509
:101DE0009B0D22000932FF329361002B00D05DE68B
:101DF00000212000FEF7CEFC236850229A5A9A1840
:101E0000294B9C46624423000933FF33D9683E299D
:101E100000D856E64B099BB2C90601D1013B9BB2E3
:101E20009B029BB221490B43138021680A88204BF7
:101E30001A40C0239B015A401E4B13430B8099E765
:101E40001100D28D896BFFF7A5FC60E75022825A02
:101E5000DB00D3181B18144A944663441B889B0567
:101E60009B0DEA00521B9200A2181364002B00D1B4
:101E70004DE71100128E896BFFF78CFC47E7E900F4
:101E8000491B89006118283109782000FFF796FC6A
:101E900070E7002003B0F0BD020400000F0F000047
:101EA00080C0FFFF8F0F0000060400000080FFFFCE
:101EB0008FBFFFFF8080FFFF70B5040044230268DE
:101EC000D35A1BB2002B46DB236844229A5A520590
:101ED00044D4236844229A5A520404D544215A5ABD
:101EE000344802405A52236844229A5A920404D534
:101EF00044215A5A304802405A52236844229A5A7E
:101F0000D20438D4236844229A5A120513D54422A5
:101F1000995A2A480140995220684023C15A0825FD
:101F20002943C1522068C15A04252943C15223685C
:101F30009B5ADB0431D5236844229A5A920530D447
:101F4000236844229A5AD20504D544215A5A1C487F
:101F500002405A5270BDFFF751FDB5E744215A5A6D
:101F6000184802405A522000FEF737FC002120009A
:101F7000FEF7C6FFADE74022995A042081439952EB
:101F8000114B21688B522000FEF746FC2168442249
:101F90008B5A0E4803408B52B4E72000FEF72AFC10
:101FA000C9E744215A5A0A4802405A522000FEF713
:101FB0000DFCC5E7FFBFFFFFFFDFFFFFFFF7FFFFE0
:101FC000FFFEFFFFFFFBFFFF00BDFFFFFFEFFFFF77
:101FD000FFFDFFFF10B50C060CD57F242140CC007F
:101FE000611A890028314018002A0AD18272838040
:101FF000002010BDCC00611A89000931FF31401862
:10200000F2E701228272C3801B0C0381F0E700001B
:1020100030B5036A012293430362036A426884690C
:102020007325AC430D682C430225AB438D682B43CD
:10203000144DA84208D0144DA84205D0134DA84213
:1020400002D0134DA84205D10825AB43CD682B43E0
:102050000425AB430B4DA84208D00B4DA84205D038
:102060000A4DA84202D00A4DA84205D1094D2A4086
:102070004D692A438D692A43426084614A684263FC
:10208000036230BD002C014000400140004401408B
:1020900000480140FFFCFFFF70B5036A194A134076
:1020A0000362036A4268C4697325AC430E68264321
:1020B000154C23408C6824022343144CA04219D0B1
:1020C000124CA04208D0124CA04205D0114CA042A4
:1020D00002D0114CA04207D1104C14404A691201A1
:1020E00022438C6925012A434260C6614A68C26363
:1020F000036270BD0A4C1C40CB681B022343094C91
:102100002340DDE7FFFEFFFFFFFDFFFF002C014046
:10211000004001400044014000480140FFCFFFFF64
:10212000FFF7FFFFFFFBFFFF30B5036A134A1340C1
:102130000362026A4368C469114D2C400D682D0288
:102140002C43104D15408A6812032A430E4DA842B5
:1021500008D00E4DA84205D00D4DA84202D00D4D1D
:10216000A84204D10C4D2B404D69AD012B43436077
:10217000C4614B680364026230BDC046FFEFFFFFDD
:10218000FF8CFFFFFFDFFFFF002C014000400140FC
:102190000044014000480140FFBFFFFF30B5036A23
:1021A000046A0125AC4304628469EF35AC43120133
:1021B00022430A24A3430B438261036230BD000023
:1021C00030B5036A1024A34303628469036A054D92
:1021D0002C4012032243A024A34309011943826126
:1021E000016230BDFF0FFFFF836870229343072217
:1021F0001143194381607047704700000368214A0A
:10220000904206D08022D205904202D01E4A9042CF
:1022100003D1702293434A6813431A4A904212D062
:102220008022D20590420ED0174A90420BD0174A16
:10223000904208D0164A904205D0164A904202D0E9
:10224000154A904203D1154A1340CA6813438022AD
:1022500093434A69134303608B68C3620B688362CC
:10226000084B984208D00A4B984205D0094B984237
:1022700002D0094B984201D10B69036301234361EA
:102280007047C046002C0140000400400020004080
:10229000004001400044014000480140FFFCFFFFB6
:1022A00070B5041E14D03D23C35C002B0AD03D251D
:1022B00002236355210001C9FFF7A0FF01236355E5
:1022C000002070BD3C330022C254FEF7BBFCEEE799
:1022D0000120F6E770B5041E14D03D23C35C002B2B
:1022E0000AD03D2502236355210001C9FFF786FF6F
:1022F00001236355002070BD3C330022C254FFF718
:102300007BFFEEE70120F6E7F0B5C64600B5040016
:102310000D00002843D03D23C35C002B39D03D265F
:102320000223A3552268936807218B439360210001
:1023300001C9FFF763FF216888688A690F6A2B6803
:1023400018438046174B1340AA691202A86802433B
:102350001A43154B1A40EB691B02E86803431A4302
:102360002B691B01286A000303431343AA229743E6
:102370006A686D692D012A433A43404688602168A6
:102380008B6123681A620123A355002004BC904688
:10239000F0BD3C330022C254FEF722FCBFE701200F
:1023A000F4E7C046FCFCFFFF0303FFFF70B5036AC0
:1023B000102293430362036A42688469174D2C40DC
:1023C0000D682D0225432024A3438C682401234358
:1023D000134CA04219D0124CA04208D0114CA0427C
:1023E00005D0114CA04202D0104CA04207D1104C95
:1023F00014404A69920022438C69A600324342602D
:1024000085614A688263036270BD8024A3431C0017
:10241000CB681B0123434024A343DCE7FF8CFFFF71
:10242000002C0140004001400044014000480140B0
:10243000FFF3FFFF70B504000D003C23C35C012BCC
:1024400069D03C230121C15401330131C154082A10
:102450004DD019D8002A2FD0042A40D12900006875
:10246000FFF7A4FF2268916980231B010B4393614E
:102470002268936929490B40936121688B692A6915
:10248000120213438B612AE00C2A28D1290000682C
:10249000FFF74AFE2268D16980231B010B43D361F9
:1024A0002268D3691D490B40D3612168CB692A6931
:1024B00012021343CB6112E029000068FFF7A8FD68
:1024C0002268936908210B43936122689369043958
:1024D0008B4393612268936929690B4393613D2380
:1024E0000122E254013B0022E254002070BD290089
:1024F0000068FFF7D1FD2268D36908210B43D3613F
:102500002268D36904398B43D3612268D36929696E
:102510000B43D361E3E70220E8E7C046FFFBFFFF80
:1025200030B58468034D2C401B0213430B432343F7
:10253000836030BDFF00FFFF10B504003C23C35C87
:10254000012B00D17FE03C230122C2540133013230
:10255000C254026893683D48034093600B68502B57
:102560004ED019D8202B64D00DD9302B66D0402BFB
:102570003ED1CA6849682068FFF710FE40212068F4
:10258000FFF732FE34E0002B4ED0102B30D110215B
:102590002068FFF729FE2BE080225201934222D0CF
:1025A00010D980229201934222D1CB684A6889686F
:1025B0002068FFF7B5FF226891688023DB010B4399
:1025C000936015E0602B25D0702B11D1CB684A6841
:1025D00089682068FFF7A4FF2268936877218B43FE
:1025E0000B43936004E02268936807218B43936058
:1025F0003D230122E254013B0022E254002010BDA1
:10260000CA6849682068FFF7C9FD50212068FFF7B4
:10261000EBFDEDE7CA6849682068FFF7D1FD60214E
:102620002068FFF7E1FDE3E700212068FFF7DCFD0C
:10263000DEE720212068FFF7D7FDD9E730212068A9
:10264000FFF7D2FDD4E70220D9E7C0468800FFFF9C
:1026500010B501248C40036AA3430362036A8A40D5
:102660001343036210BD000010B50400012200688E
:10267000FFF7EEFF23680C4A934208D00B4A9342BF
:1026800005D00B4A934202D00A4A934204D1596CB6
:10269000802212020A435A642268136801210B4304
:1026A0001360002010BDC046002C014000400140D6
:1026B000004401400048014010B5040000220068B9
:1026C000FFF7C6FF2368154A93421AD0144A934273
:1026D00017D0144A934214D0134A934211D023685E
:1026E000196A124A114207D1196A114A114203D1DB
:1026F0001A6801218A431A603D230122E254002016
:1027000010BD196A094A1142E9D1196A084A1142F1
:10271000E5D15A6C07490A405A64E0E7002C0140B1
:1027200000400140004401400048014011110000F8
:1027300044040000FF7FFFFFF0B53C23C35C012B86
:102740001ED03C22012585543D24022303550668F2
:1027500073687027BB437360066873680F683B43F8
:1027600073600668B3688027BB43B3600668B368CC
:1027700049680B43B3600555002383540020F0BD26
:102780000220FCE770B504008368026913434269C4
:102790001343C269134301680A687848024013432F
:1027A0000B602268536876490B40E1680B43536025
:1027B000A269236A1A4321688B6872480340134355
:1027C0008B602668704B9E420AD0704B9E4233D07D
:1027D0006F4B9E425AD06F4B9E4245D010250BE066
:1027E0006D4B1A6B03231340022B3FD020D8002BD4
:1027F0003ED0012B3ED1042580231B02E2699A4280
:1028000046D0042D00D1AAE000D98AE0002D00D1E5
:1028100098E0022D00D082E0616848085F4B9C463A
:102820006044FDF74DFC0004000CF06000255DE005
:10283000032B21D10225DFE7574B1B6BC0229202ED
:10284000134080229202934218D007D8002B17D051
:1028500080225202934215D10425CDE7C022920274
:10286000934211D10225C7E70025C5E70825C3E734
:102870000025C1E71025BFE71025BDE70825BBE708
:102880000025B9E71025B7E71025B5E70025B3E720
:10289000042D38D011D8002D2AD0022D0AD163681A
:1028A00058083F4B9C4660446168FDF709FC80B2C4
:1028B000002512E0012500200FE0082D0BD16368F0
:1028C000580880235B029C4660446168FDF7F8FB72
:1028D00080B2002501E0012500200F2302009A4369
:1028E0004010083B184010432368D860280070BD92
:1028F00000F00EFD400063685B08C0186168FDF7DA
:10290000DFFB80B2E9E700F0EFFB400063685B08A3
:10291000C0186168FDF7D4FB80B20025DDE7012512
:10292000E4E7082D0CD16168480880231B029C460F
:102930006044FDF7C5FB0004000CF0600025D5E7FE
:102940000125D3E700F0E4FC63685B08C018616808
:10295000FDF7B6FB23680004000CD860C6E700F062
:10296000C3FB63685B08C0186168FDF7A9FB2368B7
:102970000004000CD8600025B8E7C046F369FFEFFB
:10298000FFCFFFFFFFF4FFFF00380140004400408D
:1029900000480040004C00400010024000127A0045
:1029A0000024F400436ADB0706D5026853682C490B
:1029B0000B40816A0B435360436A9B0706D502684C
:1029C000536828490B40C16A0B435360436A5B0755
:1029D00006D50268536824490B40016B0B435360D2
:1029E000436A1B0706D50268536820490B40416BB8
:1029F0000B435360436ADB0606D5026893681C49A3
:102A00000B40816B0B439360436A9B0606D50268BB
:102A1000936818490B40C16B0B439360436A5B0694
:102A20000BD50268536814490B40016C0B4353608B
:102A300080235B03026C9A420AD0436A1B0606D5C8
:102A4000026853680D490B40816C0B43536070471B
:102A5000026853680A490B40416C0B435360ECE732
:102A6000FFFFFDFFFFFFFEFFFFFFFBFFFF7FFFFFFD
:102A7000FFEFFFFFFFDFFFFFFFFFEFFFFFFFF7FFAE
:102A8000FFFF9FFFF8B5CE46474680B506000D0014
:102A900017009946089B98463368DC692C40641BF4
:102AA00063425C41BC4220D143460133F4D04346EB
:102AB000002B05D000F014FD4B46C01A4045EBD961
:102AC000326813680B490B40136032689368A33176
:102AD000FF318B43936020236922B3540132B354F6
:102AE00048330022F254032000E000200CBC904642
:102AF0009946F8BD5FFEFFFF30B583B004000023A8
:102B0000C36600F0EDFC05002368194A93420DD01E
:102B1000184A93420AD020236922A3540132A354B5
:102B200048330022E254002003B030BD1B681B076D
:102B300010D423681B685B07EDD580210E4B0093F2
:102B40002B000022C9032000FFF79CFF0028E2D0E1
:102B50000320E9E78021084B00932B000022890322
:102B60002000FFF78FFF0028E3D00320DCE7C046FA
:102B70000038014000440040FFFFFF0110B5041E73
:102B800030D06923C35C002B22D069232422E25475
:102B90002268136801218B4313602000FFF7F2FDC8
:102BA000012814D0636A002B18D1226853680E499B
:102BB0000B405360226893682A218B4393602268FC
:102BC000136829390B4313602000FFF795FF10BDF0
:102BD00068330022C254FEF7BBF8D6E72000FFF7A7
:102BE000E1FEE2E70120F2E7FFB7FFFF70B582B038
:102BF00004000368DB072BD5B34B5A680C23134042
:102C0000042B1DD0B04B5A680C231340082B0ED058
:102C10006368012B41D0002B56D1AB4B1A68AB49EE
:102C20000A401A601A68AA490A401A603BE0A64B9B
:102C30005B68C02252021340802252029342E7D1C5
:102C4000A14B1B689B0303D56368002B00D136E2C0
:102C500023689B0777D59C4B5B680C221A4262D095
:102C6000994B5A680C231340082B53D0E368002B70
:102C700000D18AE0944A136801210B43136000F0ED
:102C80002FFC0500904B1B689B0775D400F028FCB7
:102C9000401B0228F6D9032018E28B4A11688023D2
:102CA0005B020B4313606368002B25D000F018FC17
:102CB0000500854B1B689B03CAD400F011FC401B28
:102CC0006428F6D9032001E2052B09D07E4B1A684F
:102CD0007E490A401A601A687D490A401A60E2E794
:102CE000794B19688022D2020A431A60196880223F
:102CF00052020A431A60D6E700F0F2FB0500724B5D
:102D00001B689B03A4D500F0EBFB401B6428F6D99D
:102D10000320DBE16C4B5B68C0225202134080222F
:102D200012029342A2D1684B1B689B0703D5E3684C
:102D3000012B00D0C5E164490B68F8229343226956
:102D4000D20013430B6023681B0744D5E369002BB3
:102D50002ED05D4A536A01210B43536200F0C0FB41
:102D60000500594B5B6A9B0735D400F0B9FB401B4B
:102D70000228F6D90320A9E153490B68F8229343AE
:102D80002269D20013430B60DDE74F4A136801212B
:102D90008B43136000F0A4FB05004B4B1B689B07A3
:102DA000D1D500F09DFB401B0228F6D903208DE110
:102DB000454A536A01218B43536200F091FB0500A1
:102DC000414B5B6A9B0706D500F08AFB401B02283B
:102DD000F6D903207AE123685B0700D480E03A4B00
:102DE000DB69DB000BD4384AD16980204005014300
:102DF000D161D36903400193019B012500E00025C7
:102E0000344B1B68DB050ED5A368012B1FD0002BAC
:102E100034D12D4B1A6A01218A431A621A6A03318E
:102E20008A431A6218E02B4A116880235B000B4327
:102E3000136000F055FB0600264B1B68DB05E3D44E
:102E400000F04EFB801B6428F6D903203EE11E4AA9
:102E5000136A01210B431362A368002B24D000F0F6
:102E60003FFB0600184B1B6A9B0737D400F038FB6A
:102E7000801B194B9842F5D9032027E1052B09D077
:102E8000114B1A6A01218A431A621A6A03318A4372
:102E90001A62E1E70C4B1A6A04210A431A621A6AA1
:102EA00003390A431A62D7E700F01AFB0600064B03
:102EB0001B6A9B0712D500F013FB801B064B984240
:102EC000F5D9032002E1C04600100240FFFFFEFFDB
:102ED000FFFFFBFF0070004088130000012D39D078
:102EE0002368DB0610D56369012B39D0053357D130
:102EF000784A536B04218B435363536BF4318B43F8
:102F0000A169C9000B43536323689B066DD5714BC0
:102F10005A680C2313400C2B60D06E4B5A680C235C
:102F20001340082B53D0236A002B7CD0694A516B85
:102F300080235B020B43536300F0D2FA0500654B1C
:102F40005B6BDB0351D400F0CBFA401B0228F6D9AF
:102F50000320BBE05F4AD3695F490B40D361BFE701
:102F60005C4B5A6B04210A435A635A6B03390A4378
:102F70005A6300F0B5FA0500564B5B6B9B0706D40D
:102F800000F0AEFA401B0228F6D903209EE051491A
:102F90004B6BF8229343A269D20013434B63B3E710
:102FA0004C4B5A6B04210A435A635A6B03398A43C8
:102FB0005A6300F095FA0500464B5B6B9B07A3D55F
:102FC00000F08EFA401B0228F6D903207EE0414B28
:102FD0005B68C022520213409342A4D13D4B5B6B0D
:102FE000DB0302D5236A012B6DD1636A002B6CD001
:102FF000384A51680C220A40082A69D0022B25D091
:10300000344A136835490B40136000F069FA040034
:10301000304B1B689B0150D500F062FA001B022860
:10302000F6D9032052E02B4A536B2D490B405363D2
:1030300000F056FA0500274B5B6BDB03D5D500F09B
:103040004FFA401B0228F6D903203FE0214A1368BB
:1030500022490B40136000F043FA05001D4B1B682A
:103060009B0106D500F03CFA401B0228F6D903204C
:103070002CE0184BDA6A0F218A43216B0A43DA628B
:103080005A6818490A40E16AA06A01430A435A6033
:103090001968802252040A431A6000F021FA0400E1
:1030A0000C4B1B689B0106D400F01AFA001B022887
:1030B000F6D903200AE0002008E0002006E0012005
:1030C00004E0012002E0012000E0002002B070BD19
:1030D0000120FBE700100240FFFFFFEFFFFFFFFEB4
:1030E000FFFFFEFFFF7FC2FF10B588B004AA1E4B92
:1030F00013CB13C21B6813606A461C4B13CB13C25D
:103100001B6813601A4B5A680C231340082B04D019
:103110000C2B26D1174808B010BD910C0F23194075
:1031200004A8445C1249C96A0B406946C95CC023C3
:103130005B021A4080235B029A4208D0C0235B02E4
:103140009A4209D00C48FCF7BBFF6043E3E70A480A
:10315000FCF7B6FF6043DEE70648FCF7B1FF6043CB
:10316000D9E70548D7E7C046784600088C460008EE
:1031700000100240006CDC0200127A0070B50400FE
:103180000D005A4B1A68012313408B420AD257494B
:103190000B68012293432B430B600B681A40AA4231
:1031A00000D09CE023689B0706D5514A5368F02164
:1031B0008B43A1680B4353602368DB0764D56368C6
:1031C000012B09D0022B29D0032B2DD0484A12689D
:1031D000920706D4012081E0454A1268920300D488
:1031E0007FE043494A680320824313434B6000F069
:1031F00077F906006368012B1CD0022B28D0032B23
:1032000034D03B4B5B680C221A423DD000F068F989
:10321000801B384B9842F4D903205FE0344A12688F
:103220009201DED4012059E0314A526BD203D8D446
:10323000012053E02E4B5A680C231340042B23D05B
:1032400000F04EF9801B2B4A9042F3D9032045E051
:10325000274B5A680C231340082B15D000F040F977
:10326000801B244B9842F3D9032037E0204B5A6847
:103270000C2313400C2B07D000F032F9801B1D4BA0
:103280009842F3D9032029E0184B1A680123134010
:10329000AB4209D915490B68012293432B430B60BC
:1032A0000B681A40AA421ED123685B0706D5104A54
:1032B000536811490B40E1680B435360FFF714FF5B
:1032C0000B4B5A6812090F2313400C4AD35CD840A9
:1032D0000B4B1860002000F0D9F8002070BD0120D1
:1032E000FCE70120FAE70120F8E7C0460020024091
:1032F0000010024088130000FFF8FFFFA0460008FE
:1033000048000020014B18687047C0464800002064
:1033100010B5FFF7F7FF044B5A68120A0723134052
:10332000024AD35CD84010BD00100240B0460008ED
:1033300070B582B004000368DB0337D54C4BDB6902
:10334000DB0067D44A4AD169802040050143D1613E
:10335000D36903400193019B0125464B1B68DB05A4
:103360005AD5434B1A6AC0239B00110019401A42D8
:1033700013D0626813408B420FD03D4B186A3E4A0F
:1033800002401E6A8021490231431962196A3B4E8C
:10339000314019621A62C30752D4354A136A36495A
:1033A0000B4061680B431362012D58D02368DB0783
:1033B00006D52F4A136B03218B43A1680B4313637C
:1033C00023689B0706D52A4A136B2D490B40E168F9
:1033D0000B43136323689B0606D5254A136B102104
:1033E0008B4321690B43136323689B0306D5204A53
:1033F000136B80218B43A1690B43136323685B0527
:1034000032D51B4A136B40218B4361690B43136315
:1034100000202AE00025A0E7164A116880235B00FF
:103420000B43136000F05CF80600124B1B68DB05D1
:1034300097D400F055F8801B6428F6D9032014E0D7
:1034400000F04EF806000A4B1B6A9B07A5D400F05B
:1034500047F8801B0B4B9842F5D9032005E0D36950
:1034600009490B40D361A1E7002002B070BDC046FE
:103470000010024000700040FFFCFFFFFFFFFEFF56
:10348000FFFFFCFF88130000FFFFFFEF10B50400F3
:10349000FFF738FFFA218900FCF712FE00F046FA28
:1034A000012000222100404200F006FA002010BD59
:1034B00010B5064A136810210B4313600020FFF774
:1034C000E5FFFDF775FB002010BDC046002002405F
:1034D000024A1368013313607047C0464816002043
:1034E000014B18687047C0464816002030B583B0BD
:1034F0000190FFF7F5FF0500019C631C00D001342B
:10350000FFF7EEFF401BA042FAD303B030BD00002E
:10351000F0B5D6464F464646C0B582B0002338E0E7
:10352000042600E00026A64034003C43023292000C
:103530005F4E94515F4A14684A46D24326004D4676
:10354000AE434D68ED0302D54D462C432600594C41
:1035500026606468260016404D68AD0302D54D46CE
:103560002C432600534C6660A468260016404D6824
:10357000ED0202D54D462C4326004E4CA660E46871
:1035800022404D68AD0201D54A462243494CE260D3
:1035900001330C682200DA4000D182E001229A4017
:1035A00025001540A9461442F2D04C68022C01D0E7
:1035B000122C0ED1DC080834A400275807261E4020
:1035C000B6000F25B540AF430D69B5402E003E4310
:1035D00026500468A4465E000324A2462700B74094
:1035E000B846FF4365464446A543AC464C6855463D
:1035F00025402C00B44065462C4304604C68651E91
:10360000012D03D9112C01D0122C13D184683C4018
:10361000A446CC68B44065462C4384604468944317
:1036200022004C682409A446012465462C409C4095
:1036300014434460C26817408A68B2403A43C2608B
:103640004A68D200A4D51C4CA66901221643A66183
:10365000A46922400192019A9A08941CA400144E75
:10366000A75903261E40B4000F26A640B743902654
:10367000F605B04200D155E7104EB0420BD0104EC7
:10368000B0420AD00F4EB04209D00F4EB04200D126
:1036900046E7052647E7012645E7022643E70326D6
:1036A00041E702B01CBC90469946A246F0BDC04618
:1036B00000000140000401400010024000040048E6
:1036C00000080048000C00480010004803690B4245
:1036D00001D0012070470020FCE7002A01D0816161
:1036E00070478162FCE770B5C56B0124066CB4407D
:1036F0006C60046863604368102B04D003689960B1
:103700000368DA6070BD03689A600368D960F9E7FE
:1037100010B504000368064A944663441800142157
:10372000FCF7CEFC80002064024BE36310BDC04672
:10373000F8FFFDBF0000024070B5041E24D0212513
:103740000223435501680B68104A1A404368806899
:103750000343E06803432069034360690343A069AE
:103760000343E069034313430B602000FFF7D0FFDE
:103770000023A362E36223636363A36301226255B0
:103780001F32A354002070BD0120FCE70FC0FFFFD3
:1037900070B504002020205C012832D020200125B3
:1037A00025540130205C012804D020230022E2545B
:1037B000022070BD2030013525540020A06325680B
:1037C00028680126B04328602000FFF78CFFE36AD9
:1037D000002B0BD0226813680E210B431360226864
:1037E000136801210B4313600020E2E7226813688D
:1037F0000A210B4313602268136806398B43136058
:10380000EDE70220D5E770B5C36B1A680468256838
:10381000016C04238B401A4212D06B0710D5236829
:103820009B0603D42368042293432360C26B0423C2
:10383000016C8B405360C36A002B00D0984770BD69
:1038400002238B401A4218D0AB0716D523689B067B
:1038500006D423680A22934323602123093AC254E1
:10386000C26B0223016C8B40536020230022C254A0
:10387000836A002BE3D09847E1E708238B401A4284
:10388000DDD02B07DBD523680E2293432360C26B68
:1038900001231900046CA1405160836321228354E9
:1038A0001F330022C254036B002BC8D09847C6E7D1
:1038B0002123C05CC0B2704770B5002811DB8308BB
:1038C000134DC0339B005C5903221040C000FC32F2
:1038D00016008640B44389010A40824022435A516F
:1038E00070BD0F230340083B9B0806339B00094A29
:1038F000944663445D6803242040C000FF22140006
:103900008440A54389010A4082402A435A60E7E780
:1039100000E100E000ED00E01F2318401E3B834063
:10392000014A13607047C04600E100E0013880237F
:103930005B0498420FD2094A50600948036A1B028F
:103940001B0AC02109060B4303620023936007335F
:103950001360002070470120FCE7C04610E000E043
:1039600000ED00E080B500AF1A4B1A681A4B9A427E
:1039700023D01A4B1A6801210A431A605A68184862
:1039800002405A601A68174802401A601A681648BE
:1039900002401A605A68154802405A60DA6A0F20DD
:1039A0008243DA621A6B124802401A635A6B8A43E6
:1039B0005A6300229A60BD4680BD064B0D4A1A60CC
:1039C0000D4B83F308880D4B1B680D4A1360984715
:1039D000FEE7C046F03F0020EFBEADDE0010024023
:1039E0000CB8FF08FFFFF6FEFFFFFBFFFFFFC0FF65
:1039F0002CFEFCFFEDFEFECA5022002004C8FF1F73
:103A00004C16002010B5002816D085239B00C35803
:103A1000002B03D085239B000024C450002902D032
:103A200084239B00C150FE235B000121C15402701E
:103A3000FCF708FF002010BD0220FCE7002904D09D
:103A400085239B00C150002070470220FCE710B581
:103A5000FCF73CFF002010BD10B585239B00C35828
:103A6000002B06D01B689847002800D110BD02200B
:103A7000FCE70220FAE710B585239B00C3585B687A
:103A80009847002010BD000070B5040082239B0001
:103A9000C518280000F02FF9FA235B000122E2503C
:103AA000124BE25A163BE2501033E15CEA3BFF3B1B
:103AB0000B40012B0FD0022B12D0002B05D07F23FF
:103AC00099432000FCF738FF03E02900200000F0B4
:103AD000B5FA002070BD2900200000F0D3FAF8E705
:103AE0002900200000F0ECFAF3E7C0460E020000C7
:103AF00010B50400130000292AD1FA22520082587E
:103B0000032A01D0002010BD421DFF329168D26807
:103B100091420ED885239B00C3581B69002B04D00B
:103B2000FE225200825C032A10D0200000F0B3FB7A
:103B3000E8E7891A0530FF3081608A4200D90A001F
:103B400092B21900200000F09EFBDBE79847ECE7FB
:103B500085239B00C3589B69002BD3D0FE225200C3
:103B6000825C032ACED19847CCE770B504001300DD
:103B700000294FD1FA2252008258022A06D080230F
:103B80009B00E35C012B40D0002070BDC269056A38
:103B9000AA421CD8866929003000FCF7CDFA00291A
:103BA00006D1B54204D8FC235B00E3589E421BD3E8
:103BB00085239B00E358DB68002B04D0FE225200D3
:103BC000A25C032A1ED0200000F071FBD7E7521B35
:103BD000C26192B2190000F03EFB002300220021D6
:103BE0002000FCF706FFCAE70022200000F033FBAC
:103BF000FC235B000022E250002300212000FCF7A0
:103C0000F8FEBCE720009847DDE780239B000022F8
:103C1000E254B9E785239B00C3585B69002BB3D0FE
:103C2000FE225200825C032AAED19847ACE770B501
:103C30000400402300220021FCF759FE4025882380
:103C40005B00E550D03B002280212000FCF74FFEB6
:103C50002562FE235B000122E2541C33E358002B53
:103C600006D085239B00E3585B68217920009847A4
:103C7000002070BD017400207047FE235B00C15C12
:103C8000FE22FF328154FA3AFF3AC25400207047B4
:103C9000FE23FF33C25C013BC2540020704710B5C5
:103CA000FE235B00C35C032B01D0002010BD8523E5
:103CB0009B00C358DB69002BF7D09847F5E703005A
:103CC00000201A78002A03D00130C0B20133F8E78F
:103CD000704710B504004B88012B00D010BD812324
:103CE0009B000122C2501033C3589B6898472000A4
:103CF00000F0D1FAF2E70B7803704B7843708B78C1
:103D0000CA7812029B1843800B794A7912029B18D9
:103D100083808B79CA7912029B18C380704710B5D3
:103D200004008021FCF708FE00212000FCF704FEBF
:103D300010BD000030B583B004000D004A88130A9E
:103D4000072B00D98EE09B004F49CB589F46842318
:103D50009B00C3581B68007C6A46911D98476B46C0
:103D600006331B88002B03D0EA88002A00D07EE0AF
:103D700003B030BD037C002B09D185239B00C358C1
:103D80009B6A6A46901D984702234370E7E78523A4
:103D90009B00C358DB6A6A46901D98470223437014
:103DA000DDE7D2B2052A39D89200384B9B589F469E
:103DB00084239B00C3585B68007C6A46911D98472A
:103DC000CDE784239B00C3589B68007C6A46911D05
:103DD0009847C4E784239B00C358DB68007C6A468D
:103DE000911D9847BBE784239B00C3581B69007C47
:103DF0006A46911D9847B2E784239B00C3585B69CC
:103E0000007C6A46911D9847A9E784239B00C3580C
:103E10009B69007C6A46911D9847A0E72900FFF73F
:103E20007EFFA5E7037C002B07D185239B00C358A9
:103E30005B6B6A46901D984791E72900FFF76FFF7B
:103E400096E7037C002B09D185239B00C3581B6B8D
:103E50006A46901D98470723437080E72900FFF7C3
:103E60005EFF85E729002000FFF759FF80E7191C56
:103E7000934200D9111C8AB26B46D9800100200000
:103E800000F0DBF974E7C046B8460008D8460008E1
:103E900070B504008B88002B22D1CB88002B1FD15A
:103EA0008B787F251D40FE235B00C35C032B0FD066
:103EB000FF235B00C5542900FCF779FD200000F0CA
:103EC000EAF9002D07D0FE235B000222E2540AE04B
:103ED000FFF725FF07E0FE235B000122E25402E02A
:103EE0002000FFF71CFF70BD70B504000D0089783D
:103EF000284B197001290AD8FE235B00C35C022BF2
:103F000009D0032B1ED02900FFF709FF02E029008A
:103F1000FFF705FF70BD002911D04160FE235B0053
:103F20000322C254FFF798FD022803D0200000F0BE
:103F3000B2F9EFE729002000FFF7F1FEEAE700F011
:103F4000AAF9E7E7002911D0436899421ED0D9B2F7
:103F5000FFF791FD0F4B197861602000FFF77CFDA2
:103F600002280ED0200000F096F9D3E7FE235B0074
:103F70000222C2544160FFF77EFD200000F08BF961
:103F8000C8E729002000FFF7CAFEC3E700F083F965
:103F9000C0E7C0469803002010B5CB88012B09D19B
:103FA000FE235B00C35C022B07D0032B0DD0FFF771
:103FB000B6FE01E0FFF7B3FE10BD002383600100F1
:103FC0000831012200F039F9F6E7011D012200F065
:103FD00034F9F1E710B5FE235B00C35C023B012B13
:103FE0000ED80123C36081239B00C358002B01D04E
:103FF0000323C36001000C31022200F01EF910BD42
:10400000FFF78DFEFBE710B50400FE235B00C35CE9
:10401000023B012B0ED84B88012B0DD181239B0035
:104020000022C2501033C3589B689847200000F00C
:1040300032F901E0FFF773FE10BD000010B54B78B8
:10404000092B19D89B000E4AD3589F46FFF772FEE2
:10405000002010BDFFF71CFFFAE7FFF745FFF7E769
:10406000FFF79AFFF4E7FFF7B5FFF1E7FFF731FE3F
:10407000EEE7FFF7C8FFEBE7FFF751FEE8E7C046C2
:10408000F046000870B504000D00FE235B00C35C21
:10409000032B11D10B79012B0BD885239B00C3581F
:1040A0009B689847EB88002B08D1200000F0F3F8BC
:1040B00004E0FFF734FE01E0FFF731FE002070BDA1
:1040C00070B505000C0088880979227860231340B8
:1040D000202B08D06378012B37D0032B0BD0002B7B
:1040E0005BD0002070BDF533FF33EB589B68210097
:1040F00028009847F5E7FE235B00EB5C022B06D017
:10410000032B0CD021002800FFF709FEE9E7002966
:10411000E7D08029E5D02800FCF70EFCE1E76388B2
:10412000002B03D1002901D080290AD185239B00CF
:10413000EB589B68210028009847280000F0ABF856
:10414000CFE72800FCF7F8FBF0E7FE235B00EB5C11
:10415000022B06D0032B0CD021002800FFF7DFFD37
:10416000BFE70029BDD08029BBD02800FCF7E4FBC5
:10417000B7E76388002BB4D14B0603D1280000F0C9
:104180008AF8AEE72800FCF7E8FB85239B00EB5894
:104190009B68210028009847F0E7FE235B00EB5C5A
:1041A000022B06D0032B0BD021002800FFF7B7FD10
:1041B00097E74B0600D194E72800FCF7BDFB90E79A
:1041C000030612D47F240C40103424012C1904342B
:1041D0002800FCF7D3FB00280ED001232360022225
:1041E0002100280000F029F87BE77F240C400134EF
:1041F00024012C190434EBE700232360EFE770B5AA
:1042000004000D001600002816D0FFF758FD431CCF
:104210005B009BB233802B7003236B70013B08E083
:1042200001345A1CD2B2E8540233DBB2AA1800217E
:10423000117020780028F3D170BD10B51300FA2258
:104240005200022484508361C3610A000021FCF7FC
:10425000BFFB002010BD10B513000A000021FCF7C1
:10426000B7FB002010BD10B51300FA225200032442
:104270008450EC3A8350043283500A000021FCF74A
:10428000B8FB002010BD10B513000A000021FCF798
:10429000B0FB002010BD10B5FA235B000422C25011
:1042A000002300220021FCF793FB002010BD10B575
:1042B000FA235B000522C250002300220021FCF7F4
:1042C00098FB002010BD86239B00C358002B05D00F
:1042D0008522920000219950002070470220FCE7BF
:1042E00010B586239B00C4580433C358002B0DD04F
:1042F00080229200A05CFF2808D09B68044AA25C40
:104300002100984780239B00FF22E254002010BD2B
:10431000010200004323038000487047840000200E
:104320004323038000487047C800002043230380D4
:1043300000487047180100200A2303800048704796
:104340000C01002070B504008625AD004659FCF72D
:1043500061FB83239B00F0506359002B0BD0872314
:104360009B00E358DB6883229200B118083AB058EA
:104370009847002070BD0220FCE7000070B50500E2
:104380000C0086239B00C6580B7860221100194050
:104390001A4229D020292AD1E288002A1BD05BB2F8
:1043A000002B0CDA87239B00C3589B686078310090
:1043B0009847E28831002800FFF73FFF17E0627856
:1043C00080239B00F254E2880C4BF254E2883100C7
:1043D000FFF749FF0BE087239B00C3589B68607879
:1043E00000222100984702E063780A2B01D00020C8
:1043F00070BD01220249FFF720FFF8E7010200002B
:104400009903002070B504008121FCF784FA012192
:104410002000FCF780FA82212000FCF77CFA86233A
:104420009B00E358002B0BD087239B00E3585B686D
:1044300098478625AD006059FCF7F8FA00236351D0
:10444000002070BD70B50400037C002B33D18025A3
:10445000AD002B0002228121FCF749FA2B00022239
:1044600001212000FCF743FA0823032282212000C7
:10447000FCF73DFA87208000FCF7D4FA050086237C
:104480009B00E05000282DD00433E3581B68984768
:10449000002385229200AB500432AB50267C002EC4
:1044A00015D18033143AAA589B0001212000FCF753
:1044B000A0FA300070BD402302228121FCF717FAD8
:1044C0004023022201212000FCF711FACCE78123CE
:1044D0009B00EA58C53BFF3B01212000FCF789FA0D
:1044E0000026E6E70126E4E7002904D087239B00A5
:1044F000C150002070470220FCE786239B00C35870
:10450000822080001950842189005A500020704771
:1045100086239B00C258143BD1500020704710B531
:1045200086239B00C258002A15D0037C002B09D19A
:1045300080338121890052589B000121FCF759FAF0
:10454000002010BD81239B00D258C53BFF3B0121B9
:10455000FCF74FFAF4E70220F3E700000D48854628
:104560000D480E490E4A002302E0D458C4500433CB
:10457000C4188C42F9D30B4A0B4C002301E01360A2
:104580000432A242FBD3FFF7EDF900F011F8FBF77C
:10459000F1FFFEE700400020000000205C01002049
:1045A000204700085C01002050160020FEE70000B4
:1045B00070B500260C4D0D4C641BA410A64209D109
:1045C000002600F021F80A4D0A4C641BA410A642F4
:1045D00005D170BDB300EB5898470136EEE7B30044
:1045E000EB5898470136F2E71847000818470008CB
:1045F000184700081C47000803001218934200D116
:10460000704719700133F9E7F8B5C046F8BC08BC2B
:104610009E467047F8B5C046F8BC08BC9E46704739
:1046200053544D3332205669727475616C20436F58
:104630006D506F727400000053544D6963726F6562
:104640006C656374726F6E69637300003030303074
:1046500030303030303031410000000043444320DE
:10466000436F6E666967000043444320496E74657A
:10467000726661636500000002030405060708090D
:104680000A0B0C0D0E0F10100000000001020304B5
:1046900005060708090A0B0C0D0E0F10000000009C
:1046A00000000000000000000102030406070809E2
:1046B0000000000001020304643E00084E3D0008B3
:1046C000743D0008A23D0008643E0008643E0008F6
:1046D000243E0008423E0008B03D0008C23D0008EC
:1046E000D43D0008E63D0008F83D00080A3E0008F9
:1046F0006640000872400008784000086C400008DE
:1047000078400008544000084C40000878400008F9
:08471000604000085A40000857
:04471800790100081B
:04471C00510100083F
:104720005A000000310A00083D0A0008710A00081A
:10473000490A00088D0A0008B50A0008DD0A0008C9
:1047400012010002020200408304405700020102ED
:104750000301000004030904290B0008050B0008ED
:10476000090B00080D0B000800127A0045440008F0
:10477000054400087D43000800000000E1420008F5
:10478000C742000845430008000000000000000088
:104790000000000021430008154300082D430008D5
:1047A0003943000809024300020100C03209040035
:1047B000000102020100052400100105240100018E
:1047C00004240202052406000107058203080010E4
:1047D00009040100020A0000000705010240000070
:1047E000070581024000000009024300020100C0E9
:1047F0003209040000010202010005240010010535
:104800002401000104240202052406000107058298
:104810000308001009040100020A00000007050156
:104820000200020007058102000200000A060002E1
:10483000000000400100000009074300020104C01D
:1048400032090400000102020100052400100105E4
:104850002401000104240202052406000107058248
:10486000030800FF09040100020A00000007050117
:0C4870000240000007058102400000002B
:040000050800455D4D
:00000001FF
