:020000040800F2
:1000000000400020ED4500082F06000831060008DA
:1000100000000000000000000000000000000000E0
:10002000000000000000000000000000330600088F
:100030000000000000000000350600083706000838
:100040003D4600083D4600083D4600083D46000884
:100050003D4600083D4600083D4600083D46000874
:100060003D4600083D4600084106000859060008C4
:100070003D4600083D4600083D4600083D46000854
:100080003D4600083D4600083D4600083D46000844
:100090003D4600083D4600083D4600083D46000834
:1000A0003D4600083D4600083D4600083D46000824
:1000B0003D4600083D4600083D4600087106000820
:1000C000002934D00123002210B488422CD301240B
:1000D0002407A14204D2814202D209011B01F8E7A0
:1000E000E400A14204D2814202D249005B00F8E759
:1000F000884201D3401A1A434C08A04202D3001B85
:100100005C0822438C08A04202D3001B9C082243B7
:10011000CC08A04202D3001BDC082243002803D0F5
:100120001B0901D00909E3E7101C10BC704701B599
:10013000002000F00BF802BD0029F8D003B5FFF74E
:10014000C1FF0EBC4243891A1847C0467047C046DB
:1001500010B5064C2378002B07D1054B002B02D09D
:10016000044800E000BF0123237010BDBC01002043
:1001700000000000C84E0008044B10B5002B03D04F
:100180000349044800E000BF10BDC0460000000065
:10019000C0010020C84E0008F0B5CE4600B588B0BA
:1001A0001422002103A804F06FFA3C4B5969802007
:1001B0000003014359615A6902400092009A59694B
:1001C00080208002014359615A6902400192019ADC
:1001D0005A698021C9020A435A615B690B40029344
:1001E000029BE0242402002221002D4803F087F81E
:1001F000C0239B019946902000221900C00503F0FE
:100200007EF88027BF00274D00223900280003F028
:1002100076F803940126049600240594069403A915
:100220001F4802F099FF042303931F4B0493059486
:1002300003A9280002F090FFF0231B02039304940B
:10024000059403A9280002F087FF80235B00039335
:100250000494FE3B059303A9280002F07DFF4B4662
:10026000039304960594069403A9280002F074FFF2
:1002700038230393353B0493059403A9280002F027
:100280006BFF039704960594069403A9280002F0D7
:1002900063FF08B004BC9146F0BDC04600100240A8
:1002A00000080048000400480000111000B583B0A9
:1002B0000D4A516901231943516152691340019359
:1002C000019B002200210A2003F0BAF80A2003F063
:1002D000E9F8002200210B2003F0B2F80B2003F014
:1002E000E1F803B000BDC0460010024010B50D4C4F
:1002F0000D4B23600D4B63600023A3600122E2607D
:1003000023616361A361E3612362200000F050FB7D
:100310000021200000F0B2FB0021200000F0DAFBF9
:1003200010BDC04600050020005400400E0900200A
:1003300030B58DB02022002104A804F0A5F90822D0
:10034000002101A804F0A0F90C4C0D4B23600025FE
:100350006560A560E56025616561A5610123039382
:100360000593099303A9200000F080FD01950295F3
:1003700001A9200000F0D6FE0DB030BDD005002050
:10038000002C014030B58FB0102200210AA804F0E3
:100390007BF90822002108A804F076F91C2200212C
:1003A00001A804F071F9214C8023DB052360502360
:1003B00063600025A560E5602561A561200000F06F
:1003C000FBFC80235B010A930AA9200000F01EFEBB
:1003D000200000F00BFD0821200000F021FD089511
:1003E000099508A9200000F09DFE10230193183301
:1003F0000293263B03930595002201A9200000F0FB
:10040000CBFD042201A9200000F0C6FD082201A9AD
:10041000200000F0C1FD0C2201A9200000F0BCFD6D
:10042000200000F005FA0FB030BDC0465406002091
:1004300030B58FB0102200210AA804F025F9082257
:10044000002108A804F020F91C22002101A804F0D2
:100450001BF9214C214B2360502363600025A560CC
:10046000E5602561A561200000F0A6FC80235B010A
:100470000A930AA9200000F0C9FD200000F0B6FC94
:100480000821200000F0CCFC0895099508A920005F
:1004900000F048FE1023019318330293263B039388
:1004A0000595002201A9200000F076FD042201A993
:1004B000200000F071FD3C230293082201A92000D6
:1004C00000F06AFD0C2201A9200000F065FD20006B
:1004D00000F0AEF90FB030BD9005002000040040E0
:1004E00010B50948094B0360E1235B024360002318
:1004F0008360C36003610C2242618361C361036254
:10050000436201F02BF810BD4C040020004800406D
:10051000054B064A1A60BFF34F8F054B054ADA6058
:10052000BFF34F8FC046FDE7F03F0020EFBEADDECA
:1005300000ED00E00400FA0510B598B0302200216B
:100540000CA804F0A1F81022002107A804F09CF8E0
:100550001C220021684604F097F822230B93213BCC
:100560000E9313930F330F930BA802F065F9072333
:100570000793043B0893002409940A94012107A8D7
:1005800002F022FC044B009304940694684602F0A7
:10059000F5FC18B010BDC0462000020010B58EB0AA
:1005A00002F0AAFDFFF7C8FFFFF7F6FDFFF77EFE9A
:1005B000FFF79CFEFFF7BCFEFFF7E4FEFFF738FFF6
:1005C000FFF78EFF03F0AAFD8021164C012249019E
:1005D000200002F094FE2022322101A804F054F8F9
:1005E00080214900200002F083FE002818D18021DC
:1005F0000C4C8901200002F088FEFA20400002F035
:1006000099FD80214900200002F072FE0200064997
:1006100001A804F041F8322101A803F0CFFFE6E77A
:10062000FFF776FF00040048004F0008704770474E
:10063000FEE77047704710B502F06EFD10BD000078
:1006400010B5034802F0A6FE024802F0A3FE10BD5A
:10065000BC0400201006002010B5034802F09AFEEA
:10066000024802F097FE10BD080400204C0500204F
:1006700010B5024802F034F810BDC046C008002092
:1006800082B00A4B996901221143996199690A4024
:100690000092009ADA69802149050A43DA61DB6930
:1006A0000B400193019B02B07047C046001002400E
:1006B00030B589B004001422002103A803F0E4FF40
:1006C000294B22689A4201D009B030BD274D6A6992
:1006D0008021C9020A436A616B690B400193019B47
:1006E000C0230393AE3B0493113B05930322069270
:1006F000079303A91E4802F02FFDEA6980218903B0
:100700000A43EA61EB690B400293029B19481A4BBA
:1007100003600023436083608022C2600361436101
:100720008361C36102F00AFE002817D1114BE36315
:100730005C621248124B0360102343600023836005
:100740008022C260036143618361C36102F0F6FDF0
:10075000002806D1094BA3635C62B5E7FFF766FF8B
:10076000E4E7FFF763FFF5E70054004000100240A4
:10077000000400481006002030000240BC040020A5
:100780001C00024010B588B004001422002103A808
:1007900003F07AFF2268124B9A4201D008B010BDD4
:1007A000104B996980200001014399619A690240C8
:1007B0000192019A5A69802189020A435A615B6950
:1007C0000B400293029BC0239B00039302230493DC
:1007D0000793902003A9C00502F0BEFCDEE7C046E7
:1007E000002C01400010024082B003688022D20534
:1007F000934204D00C4A93420BD002B070470B4A8C
:10080000D16901231943D161D26913400093009B40
:10081000F3E7064AD16902231943D161D269134033
:100820000193019BE9E7C04600040040001002402C
:1008300030B589B004001422002103A803F024FF7E
:1008400023688022D205934204D0224A934216D0D4
:1008500009B030BD204A51698020800201435161B6
:10086000536903400093009B0F2303930D3B0493B4
:100870000793902003A9C00502F06EFCE8E7164B31
:10088000596980208002014359615A6902400192EE
:10089000019A5A698021C9020A435A615B690B4077
:1008A0000293029BC023039302250495012407941D
:1008B000902003A9C00502F04FFC03230393049585
:1008C000002305930693079403A9044802F044FC0F
:1008D000BEE7C0460004004000100240000400488B
:1008E00010B588B004001422002103A803F0CCFE48
:1008F000284B22689A4201D008B010BD264BD96916
:100900008022D2021143D961D96911400191019924
:100910005969114359615B691A400292029BC023D5
:100920001B010393022304930133069301330793BE
:1009300003A91A4802F010FC19481A4B036000235F
:10094000436083608022C260036143618361C3614D
:1009500002F0F4FC002817D1114B63665C62124868
:10096000124B036010234360002383608022C26027
:10097000036143618361C36102F0E0FC002806D19A
:10098000094B23665C62B7E7FFF750FEE4E7FFF729
:100990004DFEF5E70048004000100240000400480A
:1009A000080400206C0002404C050020800002403A
:1009B00010B5041E59D04123C35C002B43D0412302
:1009C0002422E2542268136801218B4313602268B9
:1009D000274B61680B4013612268936825490B40DF
:1009E0009360E368012B34D0226884231B02A16842
:1009F0000B439360E368022B32D0226851681E4B90
:100A00000B4353602268D3681A490B40D3602369B3
:100A100062691343A269120221681343CB60226802
:100A2000E369216A0B4313602268136801210B43B9
:100A300013600023636441221F31A15423630132F8
:100A4000A354002010BD40330022C254FFF730FEF3
:100A5000B5E7226880231B02A1680B439360C9E7B6
:100A60002368802212015A60C7E70120EAE7C046E6
:100A7000FFFFFFF0FF7FFFFF00800002F0B5412382
:100A8000C35C202B20D12033C35C012B1ED040251A
:100A90000122425541262423835503681C68944350
:100AA0001C6003681C680A4F3C401C600468236893
:100AB0000B43236001680B6813430B6020238355AD
:100AC000002343550020F0BD0220FCE70220FAE796
:100AD000FFEFFFFFF0B54123C35C202B1ED1203375
:100AE000C35C012B1CD04024012202554125242344
:100AF0004355066833689343336006683368094F8B
:100B00003B4009021943316001680B6813430B60D5
:100B100020234355002303550020F0BD0220FCE7AD
:100B20000220FAE7FFF0FFFF30B5036A012293438A
:100B30000362036A426884697325AC430D682C43E1
:100B40000225AB438D682B43144DA84208D0144DA9
:100B5000A84205D0134DA84202D0134DA84205D19A
:100B60000825AB43CD682B430425AB430B4DA8426E
:100B700008D00B4DA84205D00A4DA84202D00A4D1C
:100B8000A84205D1094D2A404D692A438D692A435F
:100B9000426084614A684263036230BD002C0140B8
:100BA000004001400044014000480140FFFCFFFFBD
:100BB00070B5036A194A13400362036A4268C46944
:100BC0007325AC430E682643154C23408C682402E1
:100BD0002343144CA04219D0124CA04208D0124C0E
:100BE000A04205D0114CA04202D0114CA04207D126
:100BF000104C14404A69120122438C6925012A4392
:100C00004260C6614A68C263036270BD0A4C1C4000
:100C1000CB681B022343094C2340DDE7FFFEFFFFA7
:100C2000FFFDFFFF002C0140004001400044014057
:100C300000480140FFCFFFFFFFF7FFFFFFFBFFFF73
:100C400030B5036A134A13400362026A4368C469F9
:100C5000114D2C400D682D022C43104D15408A6813
:100C600012032A430E4DA84208D00E4DA84205D0CB
:100C70000D4DA84202D00D4DA84204D10C4D2B4081
:100C80004D69AD012B434360C4614B68036402624C
:100C900030BDC046FFEFFFFFFF8CFFFFFFDFFFFF10
:100CA000002C014000400140004401400048014048
:100CB000FFBFFFFF30B5036A046A0125AC4304623D
:100CC0008469EF35AC43120122430A24A3430B434A
:100CD0008261036230BD000030B5036A1024A34373
:100CE00003628469036A054D2C4012032243A02449
:100CF000A343090119438261016230BDFF0FFFFF69
:100D0000836870229343072211431943816070471F
:100D1000704770470368214A904206D08022D2056E
:100D2000904202D01E4A904203D1702293434A68F7
:100D300013431A4A904212D08022D20590420ED01C
:100D4000174A90420BD0174A904208D0164A904258
:100D500005D0164A904202D0154A904203D1154A56
:100D60001340CA681343802293434A6913430360C4
:100D70008B68C3620B688362084B984208D00A4BA9
:100D8000984205D0094B984202D0094B984201D1B4
:100D90000B690363012343617047C046002C014087
:100DA0000004004000200040004001400044014099
:100DB00000480140FFFCFFFF70B5041E14D03D2326
:100DC000C35C002B0AD03D2502236355210001C9D5
:100DD000FFF7A0FF01236355002070BD3C330022C4
:100DE000C254FFF701FDEEE70120F6E770B5041EDF
:100DF00014D03D23C35C002B0AD03D25022363554C
:100E0000210001C9FFF786FF01236355002070BD53
:100E10003C330022C254FFF77BFFEEE70120F6E7E8
:100E200070B504000E0000281DD03D23C35C002BCC
:100E300013D03D2502236355210001C9FFF76AFF46
:100E40002268136808218B431360236819683143B3
:100E5000196001236355002070BD3C330022C25449
:100E6000FFF757FFE5E70120F6E70000F0B5C646BB
:100E700000B504000D00002843D03D23C35C002BC7
:100E800039D03D260223A3552268936807218B435E
:100E90009360210001C9FFF73DFF216888688A69D6
:100EA0000F6A2B6818438046174B1340AA69120239
:100EB000A86802431A43154B1A40EB691B02E86805
:100EC00003431A432B691B01286A0003034313439E
:100ED000AA2297436A686D692D012A433A43404626
:100EE000886021688B6123681A620123A355002062
:100EF00004BC9046F0BD3C330022C254FFF742FCD4
:100F0000BFE70120F4E7C046FCFCFFFF0303FFFF3F
:100F100070B5036A102293430362036A42688469CE
:100F2000174D2C400D682D0225432024A3438C68C7
:100F300024012343134CA04219D0124CA04208D0E4
:100F4000114CA04205D0114CA04202D0104CA0423E
:100F500007D1104C14404A69920022438C69A600C4
:100F60003243426085614A688263036270BD8024B7
:100F7000A3431C00CB681B0123434024A343DCE7AD
:100F8000FF8CFFFF002C0140004001400044014065
:100F900000480140FFF3FFFF10B504003C23C35C91
:100FA000012B25D03C230120E05401330130E054D3
:100FB000042A15D007D9082A16D00C2A08D120688F
:100FC000FFF73EFE04E0002A02D12068FFF7ACFDE7
:100FD0003D230122E254013B0022E254002010BDD7
:100FE0002068FFF795FFF3E72068FFF7E1FDEFE7E3
:100FF0000220F4E730B58468034D2C401B021343F4
:101000000B432343836030BDFF00FFFF10B5040096
:101010003C23C35C012B00D17FE03C230122C2545E
:1010200001330132C254026893683D480340936023
:101030000B68402B5DD010D9702B43D020D8502B9B
:101040004DD0602B36D1CA6849682068FFF744FE4E
:1010500060212068FFF754FE2CE0102B53D008D9F4
:10106000202B55D0302B25D130212068FFF748FEAA
:1010700020E0002B1ED100212068FFF741FE19E07F
:1010800080225201934210D080229201934211D1CA
:10109000CB684A6889682068FFF7ACFF22689168CE
:1010A0008023DB010B43936004E0226893680721EF
:1010B0008B4393603D230122E254013B0022E25422
:1010C000002010BDCB684A6889682068FFF792FF4E
:1010D0002268936877218B430B439360EAE7CA68E1
:1010E00049682068FFF7E6FD50212068FFF708FEF9
:1010F000E0E7CA6849682068FFF7DCFD4021206806
:10110000FFF7FEFDD6E710212068FFF7F9FDD1E7D4
:1011100020212068FFF7F4FDCCE70220D1E7C0468C
:101120008800FFFFF0B53C23C35C012B1ED03C229E
:10113000012585543D2402230355066873687027F2
:10114000BB437360066873680F683B43736006684F
:10115000B3688027BB43B3600668B36849680B4334
:10116000B3600555002383540020F0BD0220FCE746
:1011700070B5040083680269134342691343C2696E
:10118000134301680A687748024013430B602268E2
:10119000536875490B40E1680B435360A269236AA9
:1011A0001A4321688B687148034013438B6025689C
:1011B0006F4B9D420AD06F4B9D4231D06E4B9D428A
:1011C00058D06E4B9D4247D010230CE06C4B1A6BED
:1011D00003231340012B41D0002B41D0022B41D0DF
:1011E000032B41D0102380221202E169914243D0A7
:1011F000022B00D19BE000D885E0042B00D1A2E0B7
:10120000082B00D091E06168480880231B029C46AF
:101210006044FEF755FF0004000CE860002057E032
:10122000574B1B6BC0229202134080225202934202
:101230001CD009D980229202934219D0C022920276
:10124000934207D10223CEE7002B01D10023CAE746
:101250001023C8E71023C6E70023C4E70423C2E72E
:101260000023C0E70823BEE70223BCE70423BAE754
:101270000823B8E70023B6E7022B2DD00FD9042BA3
:1012800035D0082B25D16368580880235B029C4623
:1012900060446168FEF714FF83B200200FE0002B6A
:1012A0000BD101F05BFE400063685B08C018616809
:1012B000FEF706FF83B2002001E0012000230F2289
:1012C000190091435B10083A13400B432268D36026
:1012D00070BD01200023F2E763685808294B9C4643
:1012E00060446168FEF7ECFE83B20020E7E701F09E
:1012F00021FD400063685B08C0186168FEF7E0FEEE
:1013000083B20020DBE7002B0DD101F027FE6368DC
:101310005B08C0186168FEF7D3FE23680004000C68
:10132000D8600020D4E70120D2E70120D0E761682F
:101330004808154B9C466044FEF7C2FE0004000CB2
:10134000E8600020C4E701F0F5FC63685B08C018A2
:101350006168FEF7B5FE23680004000CD860002029
:10136000B6E7C046F369FFEFFFCFFFFFFFF4FFFFD3
:10137000003801400044004000480040004C00405C
:10138000001002400024F40000127A00436ADB07D8
:1013900006D5026853682C490B40816A0B435360A1
:1013A000436A9B0706D50268536828490B40C16A07
:1013B0000B435360436A5B0706D5026853682449B0
:1013C0000B40016B0B435360436A1B0706D5026851
:1013D000536820490B40416B0B435360436ADB0663
:1013E00006D5026893681C490B40816B0B439360E0
:1013F000436A9B0606D50268936818490B40C16B87
:101400000B439360436A5B060BD50268536814492B
:101410000B40016C0B43536080235B03026C9A42C8
:101420000AD0436A1B0606D5026853680D490B4073
:10143000816C0B4353607047026853680A490B4044
:10144000416C0B435360ECE7FFFFFDFFFFFFFEFF26
:10145000FFFFFBFFFF7FFFFFFFEFFFFFFFDFFFFF50
:10146000FFFFEFFFFFFFF7FFFFFF9FFFF0B5C6464F
:1014700000B506000C0017009846069D3368DB692E
:1014800023401B1B5A425341BB421ED16B1CF5D05B
:10149000002D05D001F048FE4346C01AA842EDD900
:1014A000326813680B490B40136032689368A331AC
:1014B000FF318B43936020236922B3540132B3542C
:1014C00048330022F254032000E0002004BC904680
:1014D000F0BDC0465FFEFFFF30B583B004000023BF
:1014E000C36601F021FE05002368194A93420DD01E
:1014F000184A93420AD020236922A3540132A354EC
:1015000048330022E254002003B030BD1B681B07A3
:1015100010D423681B685B07EDD580210E4B009328
:101520002B000022C9032000FFF7A0FF0028E2D013
:101530000320E9E78021084B00932B000022890358
:101540002000FFF793FF0028E3D00320DCE7C0462C
:101550000038014000440040FFFFFF0110B5041EA9
:1015600030D06923C35C002B22D069232422E254AB
:101570002268136801218B4313602000FFF7F8FDF8
:10158000012814D0636A002B18D1226853680E49D1
:101590000B405360226893682A218B439360226832
:1015A000136829390B4313602000FFF795FF10BD26
:1015B00068330022C254FFF793F9D6E72000FFF703
:1015C000E5FEE2E70120F2E7FFB7FFFF70B5041E7A
:1015D00058D0EA23FF33C35C002B1AD0EA23FF3331
:1015E0000322E25400226068904219D9D100891A7E
:1015F0008B00E318190029310120087001390A70A5
:1016000018002B300021017059639963D9630132AE
:10161000E9E7E933FF330022C25402F09FFDDDE722
:101620000022904215D9D100891A8B00E3181D00C1
:101630000A35FF3500212970013D2A7003352970D4
:1016400009352960043529601D33FF3319600132E3
:10165000E7E7402301222168CA5200222168CA52CA
:101660004421206842520C3120684252064A2168C7
:10167000CA5200221C3BE2540122EA23FF33E25407
:10168000002070BD0120FCE700BFFFFF0168582269
:101690008B5A034803439BB28B5200207047C046CD
:1016A0000080FFFFF4235B00C35C012B13D0F42305
:1016B0005B000122C25400290AD19D3BFF3B7F32CF
:1016C0000168CA52F4235B000022C2540020704714
:1016D0002423C154F6E70220F9E70000F0B54DB22B
:1016E000002D65DB7F240C40E600361BB400093476
:1016F000FF3404197F260E402670ED0F6570E260FE
:10170000E370F4235B00C35C012B00D175E1F4238B
:101710005B000122C254E378012B00D174E0002B5E
:101720004ED0022B59D0032B61D022789300016850
:101730008C4663441988B24D29400A43B1490A4393
:101740001A80A37A002B00D0B5E06378002B00D17B
:1017500067E0A28805685023EB5A2178C9005B181E
:101760005B198021C9008C46634401218A431A8099
:1017700023789B000268944663441A88510604D576
:101780009F490A40A0490A431A80227892000368C0
:101790009C46624413889D490B4020214B40994947
:1017A0000B431380F4235B000022C2540020F0BDE1
:1017B0007F240C40E600361BB4002834041999E756
:1017C00023789B000268944663441A88904911402C
:1017D000802292000A431A80A7E723789B000268C0
:1017E000944663441A888A490A401A809DE7237800
:1017F0009B000268944663441A8885491140C022C0
:10180000D2000A431A8090E723789B00026894462E
:1018100063441A887E4911408022D2000A431A800C
:1018200083E7A28805685026AB5B2178C9005B1866
:101830005B1978498C46634401218A431A80016808
:101840008B5B2278D2009B185B18734A94466344E2
:10185000E1683E2926D94A0992B2C90601D1013A66
:1018600092B2920292B26D490A431A8023789B0089
:101870000268944663441A88510404D560490A40BA
:1018800067490A431A8023789B00026894466344A0
:101890001988644A1140C02292015140594A0A43B2
:1018A0001A807FE74A0892B2C90701D5013292B285
:1018B00092021A80DAE723789B0002689446634418
:1018C0001A8859491140594A0A431A80E288056822
:1018D0005027EB5B2178C9005B185B198021C90098
:1018E0008C4663440126B2431A8022890568EB5B6B
:1018F0002178C9005B185B1946498C466344B243A2
:101900001A806378002B3DD123789B0002689446AF
:1019100063441A88510404D539490A4040490A43AE
:101920001A8023789B000268944663441A88510603
:1019300004D533490A4034490A431A8023789B006E
:101940000268944663441A882D4911402E4A0A437E
:101950001A802178890003689C4661440B88314ACB
:101960001A40C0239B015340264A13430B8023781F
:101970009B0001688C4663441988244C21400A432B
:101980001A800FE723789B000268944663441A8804
:10199000510404D51A490A4021490A431A80237880
:1019A0009B000268944663441A88510604D5144982
:1019B0000A4015490A431A8023789B00026894461E
:1019C00063441A880E491140154A0A431A80217847
:1019D000890003689C4661440B880C4A1340094AFD
:1019E00013430B8023789B0001688C46634419885D
:1019F0000C4C21400A431A80D4E60220D7E6C046A8
:101A00000F0F00008080FFFFC080FFFFBF8FFFFF30
:101A10008F89FFFF04040000060400000080FFFF20
:101A200080C0FFFF8FBFFFFF0F0E00008081FFFF10
:101A300030B54AB2002A3ADB7F230B40DD00ED1AB5
:101A4000AB000933FF33C3187F240C401C70D20F46
:101A50005A70F4225200825C012A00D1C1E0F422C3
:101A60005200012181549A7A002A41D15A78002AE1
:101A700025D01A78920001688C46624411884C0681
:101A800004D5594C2140594C214311801B789B00AF
:101A90000268944663441A8855491140554A0A43DE
:101AA0001A80F4235B000022C254002030BD7F2343
:101AB0000B40DC00E41AA3002833C318C4E71A78EB
:101AC000920001688C46624411884C0404D5464C4F
:101AD0002140494C214311801B789B0002689446A9
:101AE00063441A8845491140424A0A431A80D8E79C
:101AF0005A78002A3AD11A78920001688C466244DA
:101B000011884C0404D5384C21403B4C21431180B2
:101B10001A78920001688C46624411884C0604D5FC
:101B2000314C2140314C214311801A7892000168D8
:101B30008C46624411882C4C0C402C492143118066
:101B40001C78A40002689446644422882B490A4009
:101B500028490A4322801B789B000268944663440C
:101B60001A88234C2240114319809AE71A78920070
:101B700001688C46624411884C0404D51A4C2140FB
:101B80001D4C214311801A78920001688C466244F2
:101B900011884C0604D5144C2140144C214311806B
:101BA0001A78920001688C46624411880E4C0C40F1
:101BB0001149214311801C78A400026894466444B2
:101BC00022880B490A400B490A4322801B789B005C
:101BD0000268944663441A88084C224011431980D5
:101BE0005FE7022062E7C0460F0F0000C080FFFFE2
:101BF000BF8FFFFF8080FFFF80C0FFFF8FBFFFFF11
:101C000070B57F242140CD006D1AAC000419250069
:101C10001935FF352A6022001D32FF321360083566
:101C200000222A60173D2A7022000932FF3211700B
:101C30001534FF342268934240D9CD006D1AAC00B0
:101C400004191D34FF349B1A2360CC00641AA300CE
:101C50001C00C3181333FF331B78002B41D10568D8
:101C60005033EB5A04190934FF342478E4001B196B
:101C70005B195E4CA44663443E2A29D95409A4B298
:101C8000D20601D1013CA4B2A402A4B2584A144322
:101C90001C800368CA00511A8A0080180930FF307E
:101CA000027892009B181988524A1140C022920172
:101CB0005140514A0A431A80002070BDCC00641A7A
:101CC000A20082181D32FF32002414601A00BCE703
:101CD0005408A4B2D20701D50134A4B2A4021C80D6
:101CE000D7E7CC00641AA3001C00C3180A33FF33E3
:101CF0001B78002B23D105685033EB5A04190934A3
:101D0000FF342478E4001B195B193C4CA44663445F
:101D10003E2A0BD95409A4B2D50601D1013CA4B284
:101D2000A402A4B2324D2C431C800AE05408A4B291
:101D3000D50701D50134A4B2A4021C8001E0012B17
:101D400024D0CC00641AA3001C00C3180A33FF334C
:101D50001B78002B35D105685033EB5A0419093430
:101D6000FF342478E4001B195B19204CA44663441B
:101D70003E2A1DD95409A4B2D20601D1013CA4B215
:101D8000A402A4B21A4A14431C8082E705684F33A8
:101D9000EB5ACE00761AB40004190934FF342478C3
:101DA000E4001B195B19154CA44663441A80C8E76C
:101DB0005408A4B2D20701D50134A4B2A4021C80F5
:101DC00067E7012B00D064E705684F33EB5ACE007C
:101DD000761AB40004190934FF342478E4001B197E
:101DE0005B19024CA44663441A8052E706040000C3
:101DF0000080FFFF8FBFFFFF8080FFFF0204000015
:101E00007F231940CB00591A8B00C0182130FF30B6
:101E10000088704710B5F4235B00C35C012B4DD0E4
:101E2000F4235B000122C2544CB2002C20DBCA0018
:101E3000521A93000933FF33C31801229A707E327D
:101E400011401970E40F5C7000291AD189000368F1
:101E50009C4661440A881A4B1A401A4B5A401A4B46
:101E600013430B80F4235B000022C254002010BDFA
:101E70006A3BFF3B0B40DA00D21A93002833C318A9
:101E8000DBE7002C0CD0890003689C4661440B887A
:101E90000E4A1340102253400B4A13430B80E1E7D4
:101EA000890003689C4661440A88094B1A408023D4
:101EB0005B015A40044B13430B80D3E70220D6E763
:101EC000BFBFFFFF101000008080FFFFBF8FFFFF2C
:101ED0008FBFFFFF30B54AB2002A38DBCD006D1A44
:101EE000AB000933FF33C31800249C707F340C40CF
:101EF0001C70D20F5A70F4225200825C012A4AD020
:101F0000F4225200012181545A78002A27D01A78ED
:101F1000920001688C46624411884C0604D51F4C1F
:101F200021401F4C214311801A78920003689C467F
:101F3000624413881B490B4030214B401A490B4324
:101F40001380F4235B000022C254002030BD7F23A5
:101F50000B40DC00E41AA3002833C318C4E71A7846
:101F6000920001688C46624411884C0404D50B4CE5
:101F700021400E4C214311801B789B00026894463F
:101F8000634419880A4A1140C02292015140064A0E
:101F90000A431A80D5E70220D8E7C0460F0F000099
:101FA000C080FFFFBF8FFFFF8080FFFF80C0FFFF6B
:101FB0008FBFFFFF10B501335B0810188022D200DD
:101FC00094466044002B08D00C784A7812022243D1
:101FD00002800231013B0230F4E710BDF8B5050084
:101FE0007F240C40E000001B810069188A63CB63EA
:101FF00000220A640A00293201201070013A14708C
:102000004F6BBB4234D9DB1BCB63E200121B930046
:102010001A00EB1832331B78002B31D02868E2000D
:10202000121B9300EB1828331B789A00825A520631
:1020300000D485E0E600361BB200AA1829321278D7
:10204000002A3BD15032825ADB00D3181818624B59
:102050009C4660443E2F28D97B099BB2FA0601D1E9
:10206000013B9BB29B029BB25C4A1343038027E077
:10207000E100091B8A00AA180021D1631F00C4E7F0
:10208000BFB2AE18B28D3B00B16B2868FFF792FF6C
:102090002A685023D35A28363178C9005B189B1818
:1020A0004F4A944663441F802DE07B089BB2FA0799
:1020B00001D501339BB29B02038001E0012A35D098
:1020C000E200121B9300EB181A8EBBB2E100091B51
:1020D0008E00AE19B16B2868FFF76CFF2936337894
:1020E000002B00D065E0E200121B9300EB182833B0
:1020F0001B789B002A68944663441A88394911402A
:10210000394A0A431A802A68E1000C1BA300ED1823
:1021100028352B789B00D218138834490B40302186
:102120004B4033490B4313800020F8BD4F32825A95
:10213000DB00D3181818284B9C4660440780BFE783
:10214000E600361BB200AA1829321278002A1ED1E6
:102150005032825ADB00D3181818214B9C46604439
:102160003E2F0BD97B099BB2FA0601D1013B9BB2F2
:102170009B029BB2194A134303800AE07B089BB27F
:10218000FA0701D501339BB29B02038001E0012ACB
:1021900005D0E200121B9300EB18DA8D95E74F3261
:1021A000825ADB00D31818180D4B9C4660440780F8
:1021B000EFE7012BA7D1E200121B9300EB182833A5
:1021C0001B789B002A68944663441A88054911408D
:1021D000084A0A431A8096E7060400000080FFFFC1
:1021E000020400000F0F0000C080FFFFBF8FFFFF41
:1021F0008080FFFF80C0FFFF10B55C0810188022B0
:10220000D20094466044002C07D002880A70120A5B
:102210004A70013C02300231F5E7DB0701D5038843
:102220000B7010BDF0B583B0050001AB00221A8021
:10223000B5E10388A94A1340038029685023CB5A8B
:102240002822AA5CD2009B185B18A54A94466344D6
:102250001B889B059B0D2B64AA6B94466344AB6360
:102260000021280001F0B3FF2423EB5C002B00D1F8
:1022700095E1EB6B002B00D091E12422AB5C802137
:1022800049420B43DBB2CC31286843520023AB54A4
:1022900085E15023C35A84225200AA5CD2009B18C5
:1022A0001B18904A944663441B889B059B0D2A008B
:1022B0000932FF3293612900ED31FF319288FFF737
:1022C0009BFF2A68138888490B401380280001F07F
:1022D00065FF64E1140092882169FFF78DFF23698F
:1022E000A26994466344236195E14B089BB2C907F8
:1022F00001D501339BB29B021380A9E1A700C0194D
:10230000028801AB1A801B881BB2002B31DB01ABAA
:102310001B881B0600D442E12B689C4667443B881F
:102320006E4A13403B80E200121B93001A00EB1828
:1023300032331B78002B00D0DCE028685033C35ABE
:10234000AA18110028310978C9005B181B186449C4
:102350008C4663441B889B059B0D136400D1F9E0F8
:10236000E200121B910069188A8D896BFFF722FE2B
:10237000F0E05D4B1A400280E200121B93001A004D
:10238000EB181333FF331B78002B1DD12868503313
:10239000C35A1100AA180932FF321278D2009B18D2
:1023A0001B18504A944663441E88B605B60D34D0B7
:1023B0006B181A000D32FF3212881933FF33196877
:1023C0003300FFF719FF28E02868E200121B930092
:1023D000EB180933FF331B789A00825A520456D502
:1023E0005022825ADB00D3181B183D4A944663449E
:1023F0001E88B605B60D3BD1E200121B9300EB1808
:102400000933FF331B789B002A68944663441A887B
:1024100036491140364A0A431A803100E200121B45
:102420009300EB1818002130FF3002689219026007
:102430001A001932FF3210688446664416601D3354
:10244000FF331B68002B08D0E200121B90002818F5
:102450001530FF300268914234D2E200121B930023
:10246000EB180933FF331978280001F0A1FE4EE77D
:10247000E200121B9300EB181A000F32FF32128891
:102480001933FF3319683300FFF7B6FEB4E7502263
:10249000825ADB00D3181B18124A944663441E88E4
:1024A000B605B60DA8D0E200121B9300EB181A0077
:1024B0001132FF3212881933FF3319683300FFF7E6
:1024C0009BFE99E7E100091B8A00AA180932FF3236
:1024D000117832002800FFF793FB18E70F8FFFFFFA
:1024E00002040000060400008F0F00000F0F000020
:1024F000C080FFFF2868E200121B9300EB1828330E
:102500001B789A00825A520600D4B2E05022825AB6
:10251000DB00D3181B186A4A944663441B889B054A
:102520009B0DE100091B8A001100AA181364002BFF
:1025300000D098E0E200121B9300EB1828331B78C0
:102540009B002A68944663441A885E4911405E4A9B
:102550000A431A8028685023C25AE100091B8B00E5
:10256000EB18190028310978C9005218121854497B
:102570008C46624412889205920D1A64996B8C46BF
:1025800062449A63DB6B002B00D08CE0E3001C1BE1
:10259000A300EB1828331978280001F018FE2868EA
:1025A0004423C35A9BB26A46D3801BB2002B00DB84
:1025B00083E06B46DC880F231C4000D09EE66B4610
:1025C00006331B88DB0600D433E6028801AB1A8091
:1025D0001B881B0500D55CE601AB1B881BB2002BDA
:1025E000DDDA0388394A1340038028685023C35A30
:1025F00084225200AA5CD2009B181B18344A9446CD
:1026000063441B889B059B0D2A000932FF329361AE
:10261000002B00D05EE60021280001F0C9FD2B68E8
:1026200050229A5A9A182A4B9C4662442B0009332E
:10263000FF33D9683E2900D857E64B099BB2C9063B
:1026400001D1013B9BB29B029BB222490B431380F9
:1026500029680A88204B1A40C0239B015A401F4B0F
:1026600013430B809BE76918CA8D896BFFF7A2FCA7
:1026700060E75022825ADB00D3181B18144A944694
:1026800063441B889B059B0DE100091B8A00110018
:10269000AA181364002B00D14CE769180A8E896BC5
:1026A000FFF788FC46E7E1000C1BA1006918283100
:1026B00009782800FFF792FC71E7002003B0F0BD15
:1026C000020400000F0F000080C0FFFF8F0F00000A
:1026D000060400000080FFFF8FBFFFFF8080FFFF28
:1026E00070B5040044230268D35A1BB2002B46DBAA
:1026F000236844229A5A520544D4236844229A5AA1
:10270000520404D544215A5A344802405A5223688C
:1027100044229A5A920404D544215A5A304802401D
:102720005A52236844229A5AD20438D42368442245
:102730009A5A120513D54422995A2A4801409952AF
:1027400020684023C15A08252943C1522068C15A34
:1027500004252943C15223689B5ADB0431D52368E1
:1027600044229A5A920530D4236844229A5AD205B8
:1027700004D544215A5A1C4802405A5270BDFFF7F2
:1027800051FDB5E744215A5A184802405A522000D8
:1027900001F031FD00212000FEF784FFADE740226B
:1027A000995A042081439952114B21688B52200081
:1027B00001F040FD216844228B5A0E4803408B52A1
:1027C000B4E7200001F024FDC9E744215A5A0A4821
:1027D00002405A52200001F007FDC5E7FFBFFFFF8E
:1027E000FFDFFFFFFFF7FFFFFFFEFFFFFFFBFFFF26
:1027F00000BDFFFFFFEFFFFFFFFDFFFF10B50C0661
:102800000CD57F242140CC00611A8C00283400199B
:10281000002A0AD182728380002010BDCC00611A88
:102820008C000934FF340019F2E701228272C38060
:102830001B0C0381F0E7000070B582B00400036850
:10284000DB072BD5B34B5A680C231340042B1DD048
:10285000B04B5A680C231340082B0ED06368012B31
:1028600041D0002B56D1AB4B1A68AB490A401A60D5
:102870001A68AA490A401A603BE0A64B5B68C0226E
:1028800052021340802252029342E7D1A14B1B68AF
:102890009B0303D56368002B00D136E223689B07B6
:1028A00077D59C4B5B680C221A4262D0994B5A68D0
:1028B0000C231340082B53D0E368002B00D18AE08F
:1028C000944A136801210B43136000F02DFC0500AE
:1028D000904B1B689B0775D400F026FC401B022818
:1028E000F6D9032018E28B4A116880235B020B4360
:1028F00013606368002B25D000F016FC0500854BA3
:102900001B689B03CAD400F00FFC401B6428F6D957
:10291000032001E2052B09D07E4B1A687E490A404C
:102920001A601A687D490A401A60E2E7794B196813
:102930008022D2020A431A601968802252020A4396
:102940001A60D6E700F0F0FB0500724B1B689B0392
:10295000A4D500F0E9FB401B6428F6D90320DBE195
:102960006C4B5B68C02252021340802212029342D9
:10297000A2D1684B1B689B0703D5E368012B00D0ED
:10298000C5E164490B68F82293432269D2001343DE
:102990000B6023681B0744D5E369002B2ED05D4AEA
:1029A000536A01210B43536200F0BEFB0500594BF3
:1029B0005B6A9B0735D400F0B7FB401B0228F6D9B1
:1029C0000320A9E153490B68F82293432269D200FE
:1029D00013430B60DDE74F4A136801218B431360FB
:1029E00000F0A2FB05004B4B1B689B07D1D500F004
:1029F0009BFB401B0228F6D903208DE1454A536A10
:102A000001218B43536200F08FFB0500414B5B6A51
:102A10009B0706D500F088FB401B0228F6D903204F
:102A20007AE123685B0700D480E03A4BDB69DB0086
:102A30001DD4384AD169802040050143D161D36952
:102A400003400193019B0125354B1B68DB0510D525
:102A5000A368012B21D0002B36D12E4B1A6A0121FD
:102A60008A431A621A6A03318A431A621AE00025FD
:102A7000EAE72B4A116880235B000B43136000F0E8
:102A800053FB0600264B1B68DB05E1D400F04CFB32
:102A9000801B6428F6D903203EE11E4A136A0121F7
:102AA0000B431362A368002B24D000F03DFB06000B
:102AB000184B1B6A9B0737D400F036FB801B194B61
:102AC0009842F5D9032027E1052B09D0114B1A6A4A
:102AD00001218A431A621A6A03318A431A62E1E7C2
:102AE0000C4B1A6A04210A431A621A6A03390A4310
:102AF0001A62D7E700F018FB0600064B1B6A9B071B
:102B000012D500F011FB801B064B9842F5D903202B
:102B100002E1C04600100240FFFFFEFFFFFFFBFF87
:102B20000070004088130000012D39D02368DB06B7
:102B300010D56369012B39D0053357D1784A536BCF
:102B400004218B435363536BF4318B43A169C90058
:102B50000B43536323689B066DD5714B5A680C2356
:102B600013400C2B60D06E4B5A680C231340082B7B
:102B700053D0236A002B7CD0694A516B80235B02BF
:102B80000B43536300F0D0FA0500654B5B6BDB032E
:102B900051D400F0C9FA401B0228F6D90320BBE04B
:102BA0005F4AD3695F490B40D361BFE75C4B5A6B07
:102BB00004210A435A635A6B03390A435A6300F0EB
:102BC000B3FA0500564B5B6B9B0706D400F0ACFADA
:102BD000401B0228F6D903209EE051494B6BF82296
:102BE0009343A269D20013434B63B3E74C4B5A6B38
:102BF00004210A435A635A6B03398A435A6300F02B
:102C000093FA0500464B5B6B9B07A3D500F08CFA4B
:102C1000401B0228F6D903207EE0414B5B68C022AE
:102C2000520213409342A4D13D4B5B6BDB0302D5B0
:102C3000236A012B6DD1636A002B6CD0384A51682E
:102C40000C220A40082A69D0022B25D0344A136886
:102C500035490B40136000F067FA0400304B1B68E5
:102C60009B0150D500F060FA001B0228F6D9032022
:102C700052E02B4A536B2D490B40536300F054FA3A
:102C80000500274B5B6BDB03D5D500F04DFA401BED
:102C90000228F6D903203FE0214A136822490B405D
:102CA000136000F041FA05001D4B1B689B0106D51F
:102CB00000F03AFA401B0228F6D903202CE0184B0A
:102CC000DA6A0F218A43216B0A43DA625A6818498B
:102CD0000A40E16AA06A01430A435A6019688022E7
:102CE00052040A431A6000F01FFA04000C4B1B68E0
:102CF0009B0106D400F018FA001B0228F6D9032025
:102D00000AE0002008E0002006E0012004E00120A5
:102D100002E0012000E0002002B070BD0120FBE7CE
:102D200000100240FFFFFFEFFFFFFFFEFFFFFEFF6F
:102D3000FF7FC2FF30B589B004AA1F4B180032C80C
:102D400032C2110002680A606A46103313CB13C204
:102D50001B681360194B5A680C231340082B04D0CE
:102D60000C2B26D0164809B030BD910C0F2319400A
:102D700004A8445C1149C96A0B406946C95CC02378
:102D80005B021A4080235B029A4208D0C0235B0298
:102D90009A4209D00A48FDF793F96043E3E70848EF
:102DA000FDF78EF96043DEE70648FDF789F96043D9
:102DB000D9E70448D7E7C046E04E000800100240BB
:102DC00000127A00006CDC0270B504000D005A4B52
:102DD0001A68012313408B420AD257490B6801221B
:102DE00093432B430B600B681A40AA4200D09CE02F
:102DF00023689B0706D5514A5368F0218B43A1688D
:102E00000B4353602368DB0764D56368012B09D04B
:102E1000022B29D0032B2DD0484A1268920706D4E2
:102E2000012081E0454A1268920300D47FE04349C3
:102E30004A680320824313434B6000F075F9060093
:102E40006368012B1CD0022B28D0032B34D03B4BC2
:102E50005B680C221A423DD000F066F9801B384BAB
:102E60009842F4D903205FE0344A12689201DED41C
:102E7000012059E0314A526BD203D8D4012053E0EB
:102E80002E4B5A680C231340042B23D000F04CF92E
:102E9000801B2B4B9842F3D9032045E0274B5A68FF
:102EA0000C231340082B15D000F03EF9801B244B57
:102EB0009842F3D9032037E0204B5A680C23134083
:102EC0000C2B07D000F030F9801B1D4B9842F3D932
:102ED000032029E0184B1A6801231340AB4209D99B
:102EE00015490B68012293432B430B600B681A4072
:102EF000AA421ED123685B0706D5104A53681149C0
:102F00000B40E1680B435360FFF714FF0B4B5A680B
:102F100012090F2313400C4AD35CD8400B4B1860A6
:102F2000002000F0D7F8002070BD0120FCE7012050
:102F3000FAE70120F8E7C0460020024000100240F6
:102F400088130000FFF8FFFF084F00080000002072
:102F5000014B18687047C0460000002010B5FFF70D
:102F6000F7FF044B5A68120A07231340024AD35C46
:102F7000D84010BD00100240184F000870B582B054
:102F800004000368DB0335D54B4BDB69DB0066D4FB
:102F9000494AD169802040050143D161D36903408A
:102FA0000193019B0125454B1B68DB0559D5424B1D
:102FB0001B6AC0229200134013D061680A409A42F3
:102FC0000FD03D4B186A3E4A02401E6A80214902DA
:102FD00031431962196A3B4E314019621A62C307C4
:102FE00053D4354A136A36490B4061680B43136268
:102FF000012D59D02368DB0706D52F4A136B032117
:103000008B43A1680B43136323689B0706D52A4AA9
:10301000136B2D490B40E1680B43136323689B0638
:1030200006D5254A136B10218B4321690B4313638B
:1030300023689B0306D5204A136B80218B43A1692B
:103040000B43136323685B0533D51B4A136B402185
:103050008B4361690B431363002002B070BD0025F0
:10306000A1E7164A116880235B000B43136000F050
:103070005BF80600114B1B68DB0598D400F054F890
:10308000801B6428F6D90320E7E700F04DF806001E
:10309000094B1B6A9B07A4D400F046F8801B0B4B1E
:1030A0009842F5D90320D8E7D36909490B40D36189
:1030B000A0E70020D1E7C0460010024000700040A9
:1030C000FFFCFFFFFFFFFEFFFFFFFCFF8813000078
:1030D000FFFFFFEF10B50400FFF73AFFFA21890068
:1030E000FCF7EEFF00F0E8F9012000222100404249
:1030F00000F0A6F9002010BD10B5064A1368102193
:103100000B4313600020FFF7E5FFFDF7B9FA00203D
:1031100010BDC04600200240024A1368013313600C
:103120007047C04694060020014B18687047C0469F
:103130009406002030B583B00190FFF7F5FF05003D
:10314000019C631C00D00134FFF7EEFF401BA0423E
:10315000FAD303B030BD0000F0B5C64600B582B06A
:10316000002338E0042600E00026AE4035003D4351
:103170000234A400574EA551574C25684246D4430B
:103180002E0026404A68D20302D5424615432E003F
:10319000514D2E606D682E0026404A68920302D57C
:1031A000424615432E004C4D6E60AD682E00264001
:1031B0004A68D20202D5424615432E00464DAE6003
:1031C000ED682C404A68920202D542462A43140018
:1031D000414AD46001330A681400DC4076D00125EE
:1031E0009D402A409046F5D04C68022C01D0122C0C
:1031F0000ED1DC080834A400275807261E40B6006C
:103200000F22B24097430A69B24016003E4326504F
:1032100002685F0003242600BE40F6433240944615
:103220004A681440BC406246144304604C68621E05
:10323000012A03D9112C01D0122C10D184683440FA
:10324000A446CC68BC406246144384604468AC43E6
:103250004A681209012515409D4025434560C46810
:1032600026408C68BC403443C4604A68D200B1D563
:103270001A4DAE6901242643AE61AD692C4001941C
:10328000019C9C08A51CAD00124EAF5903261E40A0
:10329000B5000F26AE40B7439026F605B04200D1E8
:1032A00062E70F4EB0420BD00E4EB0420AD00E4E27
:1032B000B04209D00D4EB04200D153E7052654E785
:1032C000012652E7022650E703264EE702B004BC6F
:1032D0009046F0BD00000140000401400010024093
:1032E0000004004800080048000C00480010004896
:1032F00003690B4201D0012070470020FCE7002A3F
:1033000001D0816170478162FCE7436959404161A6
:103310007047000010B504000368064A94466344F1
:1033200018001421FCF7CCFE80002064024BE363FC
:1033300010BDC046F8FFFDBF0000024070B5041E7E
:1033400024D021250223435501680B68104A1A40F6
:10335000436880680343E06803432069034360696E
:103360000343A0690343E069034313430B60200058
:10337000FFF7D0FF0023A362E36223636363A363C9
:10338000012262551F32A354002070BD0120FCE7CA
:103390000FC0FFFF70B5C36B1A6804682568016C25
:1033A00004238B401A4212D06B0710D523689B066A
:1033B00003D42368042293432360C26B0423016C6B
:1033C0008B405360C36A002B00D0984770BD022326
:1033D0008B401A4218D0AB0716D523689B0606D43B
:1033E00023680A22934323602123093AC254C26B03
:1033F0000223016C8B40536020230022C254836A55
:10340000002BE3D09847E1E708238B401A42DDD038
:103410002B07DBD523680E2293432360C26B012365
:103420001900046CA14051608363212283541F332F
:103430000022C254036B002BC8D09847C6E7000097
:1034400070B5002811DB8308144DC0339B005C5914
:1034500003221040C000FC3216008640B4438901AC
:103460000A40824014435C5170BDC0B20F23034038
:10347000083B9B0806339B00094A944663445D68F9
:1034800003242040C000FF2214008440A54389018A
:103490000A4082402A435A60E6E7C04600E100E065
:1034A00000ED00E01F2318401E3B8340014A1360DB
:1034B0007047C04600E100E001380A4B98420FD83F
:1034C000094A50600948036A1B021B0AC021090609
:1034D0000B4303620023936007331360002070479F
:1034E0000120FCE7FFFFFF0010E000E000ED00E03E
:1034F00080B500AF1A4B1A681A4B9A4223D01A4B68
:103500001A6801210A431A605A68184802405A6032
:103510001A68174802401A601A68164802401A6072
:103520005A68154802405A60DA6A0F208243DA620C
:103530001A6B124802401A635A6B8A435A6300227C
:103540009A60BD4680BD064B0D4A1A600D4B83F351
:1035500008880D4B1B680D4A13609847FEE7C0466C
:10356000F03F0020EFBEADDE001002400CB8FF08B7
:10357000FFFFF6FEFFFFFBFFFFFFC0FF2CFEFCFF7F
:10358000EDFEFECA5022002004C8FF1F980600204E
:1035900010B5002816D085239B00C358002B03D0FC
:1035A00085239B000024C450002902D084239B0063
:1035B000C150FE235B000121C154027000F050FE97
:1035C000002010BD0220FCE7002904D085239B00C9
:1035D000C150002070470220FCE710B500F084FEC7
:1035E000002010BD10B585239B00C358002B07D0C9
:1035F0001B689847002801D1002010BD0220FCE77D
:103600000220FAE710B585239B00C3585B689847F2
:10361000002010BD70B5040082239B00C51828004F
:1036200000F02FF9FA235B000122E250124BE25A1C
:10363000163BE2501033E15CEA3BFF3B0B40012BB1
:103640000FD0002B07D0022B10D07F2399432000EE
:1036500000F08FFE03E02900200000F0B5FA002002
:1036600070BD2900200000F0D3FAF8E729002000FF
:1036700000F0ECFAF3E7C0460E02000010B50400BB
:10368000130000292AD1FA2252008258032A01D0BD
:10369000002010BD421DFF329168D26891420ED8C1
:1036A00085239B00C3581B69002B04D0FE225200C7
:1036B000825C032A10D0200000F0B1FBE8E7891AF1
:1036C0000530FF3081608A4200D90A0092B21900A9
:1036D000200000F09CFBDBE79847ECE785239B008C
:1036E000C3589B69002BD3D0FE225200825C032A70
:1036F000CED19847CCE770B50400130000294FD114
:10370000FA2252008258022A06D080239B00E35CF2
:10371000012B40D0002070BDC269056AAA421CD8A6
:10372000866929003000FCF707FD002906D1B54263
:1037300004D8FC235B00E3589E421BD385239B00E7
:10374000E358DB68002B04D0FE225200A25C032A5F
:103750001ED0200000F06FFBD7E7521BC26192B26F
:10376000190000F03CFB002300220021200000F0A3
:1037700071FECAE70022200000F031FBFC235B0051
:103780000022E25000230021200000F063FEBCE78D
:1037900020009847DDE780239B000022E254B9E730
:1037A00085239B00C3585B69002BB3D0FE225200D7
:1037B000825C032AAED19847ACE770B50400402381
:1037C0000022002100F0A6FD402588235B00E55083
:1037D000D03B00228021200000F09CFD2562FE23CA
:1037E0005B000122E2541C33E358002B06D08523F2
:1037F0009B00E3585B68217920009847002070BD4A
:10380000017400207047FE235B00C15CFE22FF3282
:103810008154FA3AFF3AC25400207047FE23FF3326
:10382000C25C013BC2540020704710B5FE235B0010
:10383000C35C032B01D0002010BD85239B00C3581F
:10384000DB69002BF7D09847F5E7030000201A78D2
:10385000002A03D00130C0B20133F8E7704710B539
:1038600004004B88012B00D010BD81239B00012256
:10387000C2501033C3589B689847200000F0CFFA1D
:10388000F2E70B7803704B7843708B78CA7812029A
:103890009B1843800B794A7912029B1883808B799D
:1038A000CA7912029B18C380704710B504008021AA
:1038B00000F05FFD0021200000F05BFD10BD000066
:1038C00030B583B004000D004A88130A072B00D9D5
:1038D0008EE09B004F49CB589F4684239B00C358E2
:1038E0001B68007C6A46911D98476B4606331B880F
:1038F000002B03D0EA88002A00D07EE003B030BD60
:10390000037C002B09D185239B00C3589B6A6A4620
:10391000901D984702234370E7E785239B00C35817
:10392000DB6A6A46901D984702234370DDE7D2B2F6
:10393000052A39D89200384B9B589F4684239B0018
:10394000C3585B68007C6A46911D9847CDE7842385
:103950009B00C3589B68007C6A46911D9847C4E74A
:1039600084239B00C358DB68007C6A46911D9847FE
:10397000BBE784239B00C3581B69007C6A46911DEA
:103980009847B2E784239B00C3585B69007C6A4672
:10399000911D9847A9E784239B00C3589B69007C2D
:1039A0006A46911D9847A0E72900FFF77EFFA5E72B
:1039B000037C002B07D185239B00C3585B6B6A46B1
:1039C000901D984791E72900FFF76FFF96E7037C6A
:1039D000002B09D185239B00C3581B6B6A46901DA1
:1039E00098470723437080E72900FFF75EFF85E7CC
:1039F00029002000FFF759FF80E7191C934200D9E6
:103A0000111C8AB26B46D9800100200000F0D9F960
:103A100074E7C046204F0008404F000870B504000E
:103A20008B88002B22D1CB88002B1FD18B787F2550
:103A30001D40FE235B00C35C032B0FD0FF235B0004
:103A4000C554290000F0DAFC200000F0E8F9002D50
:103A500007D0FE235B000222E2540AE0FFF725FFB5
:103A600007E0FE235B000122E25402E02000FFF7A2
:103A70001CFF70BD70B504000D008978284B1970CB
:103A800001290AD8FE235B00C35C022B09D0032B5B
:103A90001ED02900FFF709FF02E02900FFF705FF0C
:103AA00070BD002911D04160FE235B000322C25487
:103AB000FFF798FD022803D0200000F0B0F9EFE7EF
:103AC00029002000FFF7F1FEEAE700F0A8F9E7E798
:103AD000002911D0436899421ED0D9B2FFF792FD58
:103AE0000F4B197861602000FFF77CFD02280ED093
:103AF000200000F094F9D3E7FE235B000222C254B9
:103B00004160FFF77FFD200000F089F9C8E7290038
:103B10002000FFF7CAFEC3E700F081F9C0E7C04606
:103B2000D801002010B5CB88012B09D1FE235B0002
:103B3000C35C022B07D0032B0DD0FFF7B6FE01E0CC
:103B4000FFF7B3FE10BD002383600100083101229E
:103B500000F037F9F6E7011D012200F032F9F1E734
:103B600010B5FE235B00C35C023B012B0ED8012382
:103B7000C36081239B00C358002B01D00323C36083
:103B800001000C31022200F01CF910BDFFF78DFE80
:103B9000FBE710B50400FE235B00C35C023B012B76
:103BA0000ED84B88012B0DD181239B000022C250DF
:103BB0001033C3589B689847200000F030F901E0AB
:103BC000FFF773FE10BD000010B54B78092B19D814
:103BD0009B000E4AD3589F46FFF772FE002010BD8F
:103BE000FFF71CFFFAE7FFF745FFF7E7FFF79AFF3C
:103BF000F4E7FFF7B5FFF1E7FFF731FEEEE7FFF778
:103C0000C8FFEBE7FFF751FEE8E7C046584F000852
:103C100070B504000D00FE235B00C35C032B11D1C3
:103C20000B79012B0BD885239B00C3589B689847C1
:103C3000EB88002B08D1200000F0F1F804E0FFF73A
:103C400034FE01E0FFF731FE002070BD70B50500C5
:103C50000C008A88D1B2207860230340202B12D038
:103C60006378012B36D0002B5CD0032B12D1FA33B2
:103C7000FF33EB5C022B0FD0032B15D02100280063
:103C8000FFF713FE06E0F533FF33EB589B68210086
:103C900028009847002070BD0029FBD08029F9D06A
:103CA000280000F066FBF5E76388002B03D10029AC
:103CB00001D080290AD185239B00EB589B68210005
:103CC00028009847280000F0AAF8E3E7280000F051
:103CD00050FBF0E7FE235B00EB5C022B06D0032BCE
:103CE0000CD021002800FFF7E0FDD3E70029D1D058
:103CF0008029CFD0280000F03CFBCBE76388002B65
:103D0000C8D14B0603D1280000F089F8C2E728008B
:103D100000F045FB85239B00EB589B6821002800A1
:103D20009847F0E7FE235B00EB5C022B06D0032BE9
:103D30000AD021002800FFF7B8FDABE74B06A9D059
:103D4000280000F016FBA5E7130612D47F240C40D0
:103D5000103424012C190434280000F036FB00280C
:103D60000ED00123236002222100280000F029F850
:103D700090E77F240C40013424012C190434EBE734
:103D800000232360EFE770B504000D001600002843
:103D900016D0FFF75AFD431C5B009BB233802B709B
:103DA00003236B70013B2178002909D001345A1C90
:103DB000D2B2E9540233DBB2AA1800211170F2E743
:103DC00070BD10B51300FA225200022484508361A2
:103DD000C3610A00002100F027FB002010BD10B5D0
:103DE00013000A00002100F01FFB002010BD10B5D9
:103DF0001300FA22520003248450EC3A8350043218
:103E000083500A00002100F025FB002010BD10B5F2
:103E100013000A00002100F01DFB002010BD10B5AA
:103E2000FA235B000422C25000230022002100F08C
:103E3000FBFA002010BD10B5FA235B000522C2502A
:103E400000230022002100F005FB002010BD862386
:103E50009B00C358002B05D0852292000021995069
:103E6000002070470220FCE710B586239B00C45851
:103E70000433C358002B0DD080229200A05CFF2891
:103E800008D09B68044AA25C2100984780239B00CD
:103E9000FF22E254002010BD0102000043230380F2
:103EA000004870473C0000204323038000487047CF
:103EB000800000204323038000487047D00000208A
:103EC0000A23038000487047C400002070B5040036
:103ED0008626B600855900F0D3FA83239B00E8506C
:103EE000A359002B0BD087239B00E358DB68832268
:103EF0009200A918083AA8589847002070BD0220DF
:103F0000FCE7000070B505000C0086239B00C65836
:103F10000978B93BFF3B0B4029D0202B2AD1E288FE
:103F2000002A1BD049B200290CDAFD33FF33C358F5
:103F30009B68607831009847E28831002800FFF7DD
:103F400040FF17E0627880239B00F254E2880D4B1B
:103F5000F254E2883100FFF74AFF0BE087239B0011
:103F6000C3589B68607800222100984702E063787C
:103F70000A2B01D0002070BD01220349FFF721FF69
:103F8000F8E7C04601020000D901002070B5040026
:103F9000812100F0D8F90121200000F0D4F982211C
:103FA000200000F0D0F986239B00E358002B0BD0B3
:103FB00087239B00E3585B6898478625AD006059CE
:103FC00000F06AFA00236351002070BD70B5040050
:103FD000037C002B33D18025AD002B0002228121F0
:103FE00000F098F92B0002220121200000F092F944
:103FF000082303228221200000F08CF98720800012
:1040000000F046FA050086239B00E05000282DD0E2
:104010000433E3581B689847002385229200AB5075
:104020000432AB50237C002B15D18033143AAA58AC
:104030009B000121200000F00DFA002070BD4023FC
:104040000222812100F066F9402302220121200092
:1040500000F060F9CCE781239B00EA58C53BFF3BA9
:104060000121200000F0F6F90020E7E70120E5E754
:10407000002904D087239B00C150002070470220F4
:10408000FCE786239B00C3588220800019508421BE
:1040900089005A500020704786239B00C258143B69
:1040A000D1500020704710B586239B00C258002ACB
:1040B00014D0043BD358002B01D0012010BD852320
:1040C0009B000121D150043BD35A822189005258D0
:1040D0008839FF3900F0A8F90020EFE70220EDE76A
:1040E00010B586239B00C258002A15D0037C002BF4
:1040F00009D180338121890052589B00012100F0B1
:10410000A9F9002010BD81239B00D258C53BFF3B7D
:10411000012100F09FF9F4E70220F3E710B5094C04
:10412000002209492000FFF733FA08492000FFF771
:104130004BFA07492000FFF79BFF2000FFF74DFADD
:1041400010BDC0469C060020140100200400002081
:104150004801002010B5FCF7EFF910BD00B583B0A1
:1041600002680C4B9A4201D003B000BD0A4AD169E3
:10417000802000040143D161D36903400193019B76
:10418000002200211F20FFF75BF91F20FFF78AF9AB
:10419000EAE7C046005C00400010024010B5010094
:1041A00087239B00C058ED31FF31FFF733FA10BD74
:1041B00010B50300872292008058CA00521A94005A
:1041C0001B191933FF331A68FFF758FA10BD10B5E1
:1041D0000300872292008058CA00521A94001B19CB
:1041E0009A6BFFF788FA10BD10B587239B00C05863
:1041F000FFF71BFB10BD70B505008724A40001214B
:104200000059FFF7FDFA2859FFF7D7FA70BD0000F3
:1042100010B5040087239B00C058FFF7F4FAA36988
:10422000002B04D0024A136906210B43136110BD11
:1042300000ED00E010B504008369002B05D1872351
:104240009B00E058FFF7EAFA10BD044A1369062103
:104250008B431361FFF77EFFF1E7C04600ED00E0FE
:1042600070B504001E4887239B00C4500433E050FF
:104270001C4B036008234360022282600023C3605A
:1042800002618361C3610362FDF7A0F9002823D1B5
:104290008825AD001823002200216059FEF7AEFAF0
:1042A0005823002280216059FEF7A8FAC02300227B
:1042B00081216059FEF7A2FA88235B0000220121C8
:1042C0006059FEF79BFA605980235B00002282212F
:1042D000FEF794FA002070BDFCF7A8F9D8E7C046B5
:1042E000C0080020005C004010B588239B00C05827
:1042F000FDF7CCF90300012806D040B2002805D014
:10430000022B05D0022010BD0220FCE70020FAE7B6
:104310000120F8E710B514001A0088239B00C0584C
:104320002300FDF7DBF90300012806D040B2002886
:1043300005D0022B05D0022010BD0220FCE7002092
:10434000FAE70120F8E710B588239B00C058FDF775
:104350006FFB0300012806D040B2002805D0022BD5
:1043600005D0022010BD0220FCE70020FAE7012062
:10437000F8E710B588239B00C058FDF74BFD0300FC
:10438000012806D040B2002805D0022B05D002201B
:1043900010BD0220FCE70020FAE70120F8E710B585
:1043A00088239B00C058FDF795FD0300012806D027
:1043B00040B2002805D0022B05D0022010BD0220FB
:1043C000FCE70020FAE70120F8E788239B00C358A8
:1043D0004AB2002A09DB7F221140CA00511A8A0022
:1043E0009B180B33FF33187870477F221140CA00A7
:1043F000511A8A009B182A331878F5E710B58823DC
:104400009B00C058FDF74EF90300012806D040B2CA
:10441000002805D0022B05D0022010BD0220FCE7A9
:104420000020FAE70120F8E710B58824A40000591D
:10443000FDF7D4FD0300012806D040B2002805D0C6
:10444000022B05D0022010BD0220FCE70020FAE775
:104450000120F8E710B58824A4000059FDF7D0FB2F
:104460000300012806D040B2002805D0022B05D059
:10447000022010BD0220FCE70020FAE70120F8E747
:1044800010B588239B00C058FDF7BAFC10BD000092
:1044900000487047DC0100207047000012230B80A9
:1044A000004870473001002004230B80004870470B
:1044B0004401002010B50A00002805D1054906482E
:1044C000FFF761FC034810BD02490348FFF75BFC9E
:1044D000F8E7C046E00A0020B04F000810B50A0017
:1044E000034C21000348FFF74EFC200010BDC046DE
:1044F000E00A00209C4F000810B50A00002805D1F2
:1045000005490648FFF73FFC034810BD0249034830
:10451000FFF739FCF8E7C046E00A0020C84F000862
:1045200010B50A00002805D105490648FFF72BFC05
:10453000034810BD02490348FFF725FCF8E7C046D1
:10454000E00A0020804F000810B50A00002805D1BD
:1045500005490648FFF717FC034810BD0249034808
:10456000FFF711FCF8E7C046E00A00208C4F000876
:10457000002070470020704710B50100044C200057
:10458000FFF78AFD2000FFF7ABFD002010BDC046FD
:104590009C06002010B5064C002206492000FFF7BB
:1045A00070FD05492000FFF777FD002010BDC046D3
:1045B0009C060020C8100020E00C002010B50A4C1A
:1045C00086239B00E458043BE358002B01D00120D4
:1045D00010BD054C0A0001002000FFF752FD20002D
:1045E000FFF761FDF4E7C0469C0600200D488546B4
:1045F0000D480E490E4A002302E0D458C45004333B
:10460000C4188C42F9D30B4A0B4C002301E0136011
:104610000432A242FBD3FEF76BFF00F011F8FBF768
:10462000BDFFFEE70040002000000020BC0100208C
:1046300014500008BC010020B4140020FEE7000064
:1046400070B500260C4D0D4C641BA410A64209D178
:10465000002600F039FC0A4D0A4C641BA410A64247
:1046600005D170BDB300EB5898470136EEE7B300B3
:10467000EB5898470136F2E70C5000080C50000840
:104680000C5000081050000803001218934200D18B
:10469000704719700133F9E70EB400B50B499CB0AF
:1046A0001DAB02900690079104910948094904CB7B
:1046B0000591006802A9019300F070F80023029AA6
:1046C00013701CB008BC03B01847C046FFFFFF7F43
:1046D000580100200802FFFFF0B58E6885B0070082
:1046E0000C00039201939E423CD890238A89DB0000
:1046F0001A4234D00325096923685B1A029363695F
:1047000002985D43EB0F5D19019B6D1001331B187F
:10471000AB4200D91D00530532D52900380000F006
:1047200025FB061E09D10C233B6040230120A289F2
:1047300040421343A38105B0F0BD029A216900F005
:10474000AEFAA389144A1A4080231343A381029B23
:104750002661F61826606561019EED1AA560019B31
:104760009E4200D9019E32000399206800F0A0FA11
:10477000A36800209B1BA36023689E192660DAE7CC
:104780002A00380000F050FB061EE0D121693800F5
:1047900000F0A2FAC7E7C0467FFBFFFFF0B5A1B06B
:1047A00003901D008B890F0016001B0611D50B69A5
:1047B000002B0ED1402100F0D9FA38603861002872
:1047C00005D10C23039A0138136021B0F0BD4023BA
:1047D0007B61002308AC6361203363761033A376DA
:1047E000079535002B78002B01D0252B46D1AB1B2C
:1047F00005930CD0320039000398FFF76DFF431C7E
:1048000000D1AEE06269059B9446634463612B78F6
:10481000002B00D1A5E0012200235242626004A9CE
:10482000543252186E1C2360E360A3601370A365BA
:1048300031780522534800F027FA751C00281FD153
:104840002268D30604D5532304A95B1820211970CC
:10485000130704D5532304A95B182B21197033784F
:104860002A2B16D0350000210A20E3682A786E1C16
:10487000303A092A4ED9002911D117E00135B1E7A4
:10488000404B2268C01A01238340134323602E004B
:10489000CEE7079B191D1B680791002B01DB0B93CB
:1048A00004E05B42E3600223134323602B782E2B4A
:1048B0000AD16B782A2B35D1079B02351A1D1B684C
:1048C0000792002B2BDB09932F4E2978032230000F
:1048D00000F0DAF9002806D04023801B83402268CC
:1048E0000135134323602978062228486E1C21765F
:1048F00000F0CAF900283CD0254B002B25D1072217
:10490000079B07339343083307936369049A9B1803
:10491000636166E7434301219B183500A6E7012345
:104920005B42D0E700230A201A0001356360297832
:104930006E1C3039092903D9002BC5D00992C3E771
:104940004243012352183500F1E707AB00933A00C8
:10495000104B2100039800E000BF0490049B01333A
:10496000D3D1BB890D985B0600D42EE701204042CD
:104970002BE707AB00933A00064B2100039800F0A9
:1049800079F8EAE7D84F0008DE4F0008E24F000848
:1049900000000000D9460008F7B5150001938A68A9
:1049A0000B6900900C00934200DA130022002B6088
:1049B00043321278002A01D001332B6023689B0612
:1049C00002D52B6802332B60062723681F4027D0AF
:1049D000230043331B785A1E93412268920630D439
:1049E0002200019943320098089EB047431C25D00D
:1049F000062320682A68E16803400025042B03D1C0
:104A00008D1AEB43DB171D40A3682269934201DD39
:104A10009B1AED180027BD4220D1002010E001377D
:104A2000E3682A689B1ABB42D2DD220001231932B7
:104A300001990098089EB047431CF0D101204042E4
:104A4000FEBD3020E1184331087021005A1C453169
:104A50000978A218433202331170C1E72200012302
:104A60001A3201990098089EB047431CE6D00137DE
:104A7000D1E70000F0B58BB006920A0043320793ED
:104A8000059004920A7E0C00109B6E2A00D1AFE0C4
:104A900020D8632A35D008D8002A00D1B5E0582A9A
:104AA00051D026004236327032E0642A01D0692AA1
:104AB000F7D1196820680A1D05062BD50D681A6004
:104AC000002D03DA2D23049A6D4213706C4B0A27D4
:104AD000039352E0732A00D19BE008D86F2A1FD0BD
:104AE000702ADED1202209680A43226003E0752A79
:104AF00016D0782AD5D12200782145321170614A2A
:104B000024E026001A684236111D196013683370BC
:104B100001238CE00D681A604106D1D52DB2CFE794
:104B200019682568081D18602E0601D50D6803E078
:104B30006D06FBD50D68ADB2514B0A2703936F2A62
:104B400017D1082715E045310A704D4A03921A68BB
:104B5000216820CA1A60080644D5CB0702D5202355
:104B6000194321601027002D03D1202322689A4386
:104B700022602300002243331A706368A360002B75
:104B800003DB0422216891432160002D02D1049EA1
:104B9000002B0AD0049E39002800FBF7CDFA039BB6
:104BA000013E5B5C3370AF4220D9082F09D12368E6
:104BB000DB0706D563682269934202DC3023013E9D
:104BC0003370049B9B1B2361079B09AA0093210060
:104BD000069B0598FFF7E0FE431C2DD101204042C3
:104BE0000BB0F0BD4806B8D5ADB2B6E70500D2E7C8
:104BF0001A680D68101D4969186013682E0601D5E2
:104C0000196002E06D06FBD519800023049E236124
:104C1000DAE71A68111D1960166800216268300011
:104C200000F032F8002801D0801B606063682361C7
:104C30000023049A1370C7E7236932000699059888
:104C4000079DA847431CC9D023689B0715D4099B1F
:104C5000E0689842C4DA1800C2E722000123193242
:104C600006990598079EB047431CB7D00135E36805
:104C7000099A9B1AAB42F0DCE9E70025F7E7C0464A
:104C8000E94F0008FA4F0008C9B28218904201D1DA
:104C90000020704703788B42FBD00130F6E70023F9
:104CA00010B59A4200D110BDCC5CC4540133F8E772
:104CB00010B5884202D98B18984203D3002307E02D
:104CC0008B5C8354013AFBD210BDCC5CC4540133DD
:104CD0009A42FAD1F8E7000070B50500002910D01B
:104CE0000C1F2368002B00DAE418280000F0D4F829
:104CF0001D4A1368002B05D163601460280000F082
:104D0000CCF870BDA34209D9216860188342F3D161
:104D100018685B6841182160EEE713005A68002AA2
:104D200001D0A242F9D919685818A0420BD12068C5
:104D30000918581819608242E0D110685268411869
:104D400019605A60DAE7A04202D90C232B60D5E73C
:104D500021686018824203D11068526841182160AE
:104D600062605C60CAE7C046FC030020F8B503231C
:104D7000CD1C9D43083506000C2D1FD20C25A942E1
:104D80001ED8300000F088F825490A681400002C6D
:104D90001AD1244F3B68002B04D12100300000F0D1
:104DA00069F838602900300000F064F8431C2AD10B
:104DB0000C233000336000F070F803E0002DDEDAE1
:104DC0000C2333600020F8BD23685B1B18D40B2B29
:104DD00003D92360E418256003E06368A2420DD183
:104DE0000B60300000F059F8200007220B30231D23
:104DF0009043C21AE7D01B1AA350E4E75360F0E7D0
:104E000022006468C3E70323C41C9C43A042E2D091
:104E1000211A300000F02EF8431CDCD1C8E7C04650
:104E2000FC03002000040020F8B507000D00160068
:104E3000002905D11100FFF799FF04002000F8BDFB
:104E4000002A03D1FFF748FF3400F7E700F026F807
:104E50002C00B042F2D231003800FFF787FF041E69
:104E6000ECD029003200FFF71AFF29003800FFF7C5
:104E700033FFE3E7002370B5064C0500080023600C
:104E800000F014F8431C03D12368002B00D02B60E2
:104E900070BDC046B0140020704770470B1F1B68E0
:104EA000181F002B01DA0B58C0187047044A13680A
:104EB000002B03D01818106018007047014BF9E759
:104EC00004040020B8140020F8B5C046F8BC08BCA3
:104ED0009E467047F8B5C046F8BC08BC9E46704771
:104EE00002030405060708090A0B0C0D0E0F10102B
:104EF0000102030405060708090A0B0C0D0E0F102A
:104F000025640A0D00000000000000000000000001
:104F1000010203040607080900000000010203045F
:104F2000F0390008DA380008003900082E39000886
:104F3000F0390008F0390008B0390008CE3900080F
:104F40003C3900084E390008603900087239000801
:104F50008439000896390008F23B0008FE3B00083F
:104F6000043C0008F83B0008043C0008E03B000853
:104F7000D83B0008043C0008EC3B0008E63B000876
:104F800043444320436F6E666967000043444320F7
:104F9000496E7465726661636500000053544D6923
:104FA00063726F656C656374726F6E696373000022
:104FB00053544D3332205669727475616C20436FBF
:104FC0006D506F727400000030303030303030304F
:104FD0003030314100000000232D302B2000686C60
:104FE0004C0065666745464700303132333435360C
:104FF0003738394142434445460030313233343545
:0C50000036373839616263646566000071
:04500C00790100081E
:045010005101000842
:1050140000127A00CD3F00088D3F0008053F0008CC
:1050240000000000693E00084F3E0008CD3E000825
:10503400000000000000000000000000A93E00087D
:105044009D3E0008B53E0008C13E00080902430029
:10505400020100C03209040000010202010005241B
:1050640000100105240100010424020205240600A5
:10507400010705820308001009040100020A000068
:1050840000070501024000000705810240000000FE
:1050940009024300020100C03209040000010202B7
:1050A400010005240010010524010001042402026A
:1050B4000524060001070582030800100904010005
:1050C400020A000000070501020002000705810230
:1050D400000200000A060002000000400100000077
:1050E40009074300020104C032090400000102025E
:1050F400010005240010010524010001042402021A
:105104000524060001070582030800FF09040100C5
:10511400020A0000000705010240000007058102A1
:10512400400000009D440008A9440008DD44000834
:10513400B5440008F9440008214500084945000821
:1051440012010002020200408304405700020102DF
:105154000301000004030904954500087145000893
:1051640075450008794500085C0100200000000036
:10517400000000000000000000000000000000002B
:10518400000000000000000000000000000000001B
:10519400000000000000000000000000000000000B
:1051A40000000000000000000000000000000000FB
:1051B40000000000000000000000000000000000EB
:0C51C400000000000000000000000000DF
:04000005080045EDBD
:00000001FF
