:020000040800F2
:10000000004000200D28000873060008750600084F
:1000100000000000000000000000000000000000E0
:10002000000000000000000000000000770600084B
:100030000000000000000000790600087B060008B0
:100040005D2800085D2800085D2800085D2800087C
:100050005D2800085D2800085D2800085D2800086C
:100060005D2800085D28000889060008A106000830
:100070005D2800085D2800085D2800085D2800084C
:100080005D2800085D2800085D2800085D2800083C
:100090005D2800085D2800085D2800085D2800082C
:1000A0005D2800085D2800085D280008CD060008CE
:1000B0005D2800085D2800085D2800085D2800080C
:1000C00010B5064C2378002B07D1054B002B02D02E
:1000D000044800E000BF0123237010BD040000208D
:1000E00000000000A8280008044B10B5002B03D026
:1000F0000349044800E000BF10BDC04600000000F6
:1001000008000020A8280008002243088B4274D36E
:1001100003098B425FD3030A8B4244D3030B8B4208
:1001200028D3030C8B420DD3FF22090212BA030C11
:100130008B4202D31212090265D0030B8B4219D3F2
:1001400000E0090AC30B8B4201D3CB03C01A524112
:10015000830B8B4201D38B03C01A5241430B8B425A
:1001600001D34B03C01A5241030B8B4201D30B0343
:10017000C01A5241C30A8B4201D3CB02C01A52416A
:10018000830A8B4201D38B02C01A5241430A8B422D
:1001900001D34B02C01A5241030A8B4201D30B0216
:1001A000C01A5241CDD2C3098B4201D3CB01C01A30
:1001B000524183098B4201D38B01C01A524143093A
:1001C0008B4201D34B01C01A524103098B4201D328
:1001D0000B01C01A5241C3088B4201D3CB00C01A95
:1001E000524183088B4201D38B00C01A524143080D
:1001F0008B4201D34B00C01A5241411A00D2014632
:10020000524110467047FFE701B5002000F006F8A4
:1002100002BDC0460029F7D076E770477047C04658
:1002200000B583B00D4A51690123194351615269E8
:1002300013400193019B002200210A2002F04AFA98
:100240000A2002F077FA002200210B2002F042FA85
:100250000B2002F06FFA03B000BDC0460010024050
:10026000F0B589B0304B59698020000301435961D2
:100270005A6902400092009A596980208002014325
:1002800059615A6902400192019A5A698021C90252
:100290000A435A615B690B400293029BE0242402EB
:1002A000224F00222100380002F054F9204D002294
:1002B0002021280002F04EF9039401260496002420
:1002C0000594069403A9380002F078F804230393F8
:1002D000184B0493059403A9280002F06FF88027B7
:1002E0003F0203970494059403A9280002F066F8DE
:1002F0000397032704970594902003A9C00502F0F3
:100300005DF8182303930497059403A9280002F0CD
:1003100055F82023039304960594069403A9280016
:1003200002F04CF809B0F0BD00100240000800488F
:10033000000400480000111010B50D4C0D4B236057
:100340000D4B63600023A3600122E26023616361BF
:10035000A361E3612362200000F0B8FB00212000CC
:1003600000F01AFC0021200000F042FC10BDC04645
:1003700018010020005400400E09002030B58DB057
:100380000F4D104B2B6000246C60AC60EC602C6156
:100390006C61AC6101230393049405930694079464
:1003A000089409930A940B9403A9280000F0F8FD1F
:1003B0000194029401A9280000F08CFF0DB030BD1B
:1003C000E0020020002C014030B58FB0204C80238B
:1003D000DB052360502363600025A560E56025618F
:1003E000A561200000F082FD80235B010A930AA929
:1003F000200000F0A5FE200000F092FD0821200062
:1004000000F0A8FD0895099508A9200000F062FFFA
:100410001023019318330293263B03930595002282
:1004200001A9200000F052FE042201A9200000F0E2
:100430004DFE082201A9200000F048FE0C2201A96F
:10044000200000F043FE200000F020FA0FB030BD85
:100450006403002030B58FB0214C224B2360502321
:1004600063600025A560E5602561A561200000F0BE
:100470003DFD80235B010A930AA9200000F060FE85
:10048000200000F04DFD0821200000F063FD0895DC
:10049000099508A9200000F01DFF102301931833CF
:1004A0000293263B03930595002201A9200000F04A
:1004B0000DFE042201A9200000F008FE3C23029357
:1004C000082201A9200000F001FE0C2201A9200051
:1004D00000F0FCFD200000F0D9F90FB030BDC0469F
:1004E000A80100200004004010B50948094B036032
:1004F000E1235B02436000238360C36003610C223D
:1005000042618361C3610362436201F017F910BD68
:10051000700200200038014010B50948094B036003
:10052000E1235B02436000238360C36003610C220C
:1005300042618361C3610362436201F0FFF810BD51
:10054000640000200048004010B50848084B0360D4
:1005500008234360022282600023C360026183613A
:10056000C361036201F04EFA10BDC046A40300202F
:10057000005C004010B598B022230B93213B0E93F2
:1005800013930F330F93002414940BA801F09AFADD
:1005900007230793043B089309940A94012107A8B1
:1005A00001F058FD0D4B00930294049406946846A4
:1005B00001F028FE01F010FEFA218900FFF7A4FDEA
:1005C00002F0C2F8042002F0DBF801200022002132
:1005D000404202F07FF818B010BDC0462100020072
:1005E00070B501F0CDFEFFF7C5FFFFF739FEFFF74D
:1005F00017FEFFF7A1FEFFF7C1FEFFF7E5FEFFF7CD
:1006000029FFFFF771FFFFF787FFFFF79DFF154EEB
:10061000300000F06BFC144C200000F067FC134D20
:10062000280000F063FC300000F000FC200000F027
:10063000FDFB280000F0FAFB012200210F2002F050
:1006400049F80F2002F076F801220021102002F074
:1006500041F8102002F06EF80021200000F008FEA2
:10066000FEE7C046E002002064030020A80100204D
:10067000FEE77047FEE77047704710B501F090FE47
:1006800002F08FF810BD000010B5034801F0CDFF57
:10069000024801F0CAFF10BDD40000202003002052
:1006A00010B5064801F0C1FF054801F0BEFF05483E
:1006B00001F0BBFF044801F0B8FF10BDE8010020C5
:1006C0002C020020200000206401002010B5024808
:1006D00001F0F4F810BDC0467002002000B583B0F0
:1006E000124B996901221143996199690A4000925C
:1006F000009ADA69802149050A43DA61DB690B4017
:100700000193019B052000220021404201F0E2FFFD
:10071000022000220021404201F0DCFF01200022E3
:100720000021404201F0D6FF03B000BD001002409E
:1007300010B586B00400284B02689A4201D006B07A
:1007400010BDC0239B00019312230293113B03931E
:1007500003220492059301A9204801F02FFE204AAC
:10076000D169802080030143D161D36903400093A4
:10077000009B1C481C4B0360002343608360802265
:10078000C260036143618361C36101F0FDFE002823
:1007900017D1144BE3635C621448154B03601023BC
:1007A0004360002383608022C260036143618361F0
:1007B000C36101F0E9FE002808D10C4BA3635C6221
:1007C000BDE778210B48FFF753FFE2E7882109488E
:1007D000FFF74EFFF1E7C046005400400004004818
:1007E000001002402003002030000240D40000200E
:1007F0001C000240E028000800B587B002680F4BDB
:100800009A4201D007B000BD0D4A916980200001D5
:1008100001439161936903400093009BC0239B00B7
:1008200001930223029300220392049205939020E5
:1008300001A9C00501F0C2FDE4E7C046002C01405B
:100840000010024082B003688022D205934204D097
:100850000C4A93420BD002B070470B4AD169012376
:100860001943D161D26913400093009BF3E7064A14
:10087000D16902231943D161D26913400193019BCD
:10088000E9E7C046000400400010024070B586B0A1
:1008900003688022D205934204D0164A93420FD0B7
:1008A00006B070BD0F2301930D3B0293002203920B
:1008B00004920593902001A9C00501F07FFDEFE7A8
:1008C000C023019302260296002403940494012578
:1008D0000595902001A9C00501F070FD0323019347
:1008E000029603940494059501A9034801F066FD5E
:1008F000D6E7C046000400400004004830B589B087
:1009000004000368584A934204D0584A93425FD087
:1009100009B030BD564A91698020C0010143916100
:10092000936903400193019BC0230393BE3B04934F
:100930000025059501330693079503A94D4801F05D
:100940003DFD4D484D4B0360456085608023C3608D
:10095000056145618561C56101F016FE00282BD156
:10096000474A11688023DB000B431360424B6366E8
:100970005C624448444B036010234360002383605F
:100980008022C260036143618361C36101F0FCFDA9
:10099000002817D13A4A116880239B000B4313604B
:1009A000384B23665C62002200211B2001F092FE7E
:1009B0001B2001F0BFFEABE77C21FF313348FFF77E
:1009C00057FECDE78E21FF313048FFF751FEE1E7BA
:1009D000274AD1698020C0020143D161D369034015
:1009E0000293029BC0231B0103930223049300255F
:1009F0000595013306930133079303A91D4801F0C0
:100A0000DDFC2348234B0360456085608023C36081
:100A1000056145618561C56101F0B6FD002817D10A
:100A20001B4B63665C621C481C4B036010234360D5
:100A3000002383608022C260036143618361C361DC
:100A400001F0A2FD002809D1134B23665C625FE729
:100A5000DD2149000D48FFF70BFEE1E7E5214900E4
:100A60000A48FFF705FEEFE7003801400048004064
:100A700000100240000400482C02002058000240F0
:100A800000000140E801002044000240E028000886
:100A9000200000206C000240640100208000024021
:100AA00082B00268074B9A4201D002B07047064AF2
:100AB000D169802000040143D161D36903400193CF
:100AC000019BF2E7005C00400010024010B5041EDC
:100AD00059D04123C35C002B43D041232422E2544C
:100AE0002268136801218B4313602268274B6168D9
:100AF0000B4013612268936825490B409360E368BB
:100B0000012B34D0226884231B02A1680B4393601D
:100B1000E368022B32D0226851681E4B0B435360AE
:100B20002268D3681A490B40D36023696269134372
:100B3000A269120221681343CB602268E369216A2B
:100B40000B4313602268136801210B4313600023D9
:100B5000636441221F31A15423630132A354002056
:100B600010BD40330022C254FFF7E2FDB5E7226812
:100B700080231B02A1680B439360C9E7236880228E
:100B800012015A60C7E70120EAE7C046FFFFFFF005
:100B9000FF7FFFFF00800002F0B54123C35C202BE4
:100BA00020D12033C35C012B1ED0402401220255EA
:100BB0004125242343550668336893433360066810
:100BC00033680A4F3B40336006683368194331602D
:100BD00001680B6813430B60202343550023035522
:100BE000002000E00220F0BD0220FCE7FFEFFFFF45
:100BF000F0B54123C35C202B1ED12033C35C012BF5
:100C00001CD0402401220255412524234355066867
:100C100033689343336006683368094F3B400902E9
:100C20001943316001680B6813430B60202343555F
:100C300000230355002000E00220F0BD0220FCE765
:100C4000FFF0FFFF30B5036A012293430362036A9A
:100C5000426884697325AC430D682C430225AB437D
:100C60008D682B43144DA84208D0144DA84205D0DE
:100C7000134DA84202D0134DA84205D10825AB431D
:100C8000CD682B430425AB430B4DA84208D00B4D38
:100C9000A84205D00A4DA84202D00A4DA84205D16B
:100CA000094D2A404D692A438D692A434260846177
:100CB0004A684263036230BD002C0140004001409D
:100CC0000044014000480140FFFCFFFF70B5036A8B
:100CD000194A13400362036A4268C4697325AC432E
:100CE0000E682643154C23408C6824022343144C81
:100CF000A04219D0124CA04208D0124CA04205D0FC
:100D0000114CA04202D0114CA04207D1104C14400B
:100D10004A69120122438C6925012A434260C66157
:100D20004A68C263036270BD0A4C1C40CB681B0258
:100D30002343094C2340DDE7FFFEFFFFFFFDFFFFDC
:100D4000002C0140004001400044014000480140A7
:100D5000FFCFFFFFFFF7FFFFFFFBFFFF30B5036A89
:100D6000134A13400362026A4368C469114D2C4060
:100D70000D682D022C43104D15408A6812032A433A
:100D80000E4DA84208D00E4DA84205D00D4DA842E8
:100D900002D00D4DA84204D10C4D2B404D69AD0140
:100DA0002B434360C4614B680364026230BDC0469C
:100DB000FFEFFFFFFF8CFFFFFFDFFFFF002C014075
:100DC000004001400044014000480140FFBFFFFFD8
:100DD00030B5036A046A0125AC4304628469EF35C7
:100DE000AC43120122430A24A343194382610162E6
:100DF00030BD000030B5036A1024A3430362846948
:100E0000036A054D2C4012032243A024A343090189
:100E100019438261016230BDFF0FFFFF83687022BA
:100E200093430722114319438160704710B53D2257
:100E3000022383540468236801210B4323608154F7
:100E4000002010BD704770470368214A904206D0C9
:100E50008022D205904202D01E4A904203D17022D5
:100E600093434A6813431A4A904212D08022D20513
:100E700090420ED0174A90420BD0174A904208D0A9
:100E8000164A904205D0164A904202D0154A904226
:100E900003D1154A1340CA681343802293434A6919
:100EA000134303608B68C3620B688362084B9842EC
:100EB00008D00A4B984205D0094B984202D0094B02
:100EC000984201D10B690363012343617047C04617
:100ED000002C014000040040002000400040014080
:100EE0000044014000480140FFFCFFFF70B5041EB4
:100EF00014D03D23C35C002B0AD03D25022363554B
:100F0000211D2068FFF7A0FF01236355002070BD5D
:100F10003C330022C254FFF795FCEEE70120F6E7D0
:100F200070B5041E14D03D23C35C002B0AD03D25B0
:100F300002236355211D2068FFF786FF01236355B7
:100F4000002070BD3C330022C254FFF77BFFEEE768
:100F50000120F6E770B504000D0000281DD03D23E8
:100F6000C35C002B13D03D260223A355211D20680E
:100F7000FFF76AFF2268136808218B431360236818
:100F80001968294319600123A355002070BD3C3323
:100F90000022C254FFF757FFE5E70120F6E7000003
:100FA000F0B5C64600B504000D00002843D03D232F
:100FB000C35C002B39D03D260223A355210004C970
:100FC00093680720834393602068FFF73DFF216803
:100FD00088688A690F6A2B6818438046174B13404C
:100FE000AA691202A86802431A43154B1A40EB691A
:100FF0001B02E86803431A432B691B01286A00039C
:1010000003431343AA2297436A686D692D012A435B
:101010003A434046886021688B6123681A62012345
:10102000A355002004BC9046F0BD3C330022C254BE
:10103000FFF7E2FBBFE70120F4E7C046FCFCFFFF3F
:101040000303FFFF70B5036A102293430362036A30
:1010500042688469174D2C400D682D0225432024D9
:10106000A3438C6824012343134CA04219D0124C93
:10107000A04208D0114CA04205D0114CA04202D091
:10108000104CA04207D1104C14404A6992002243F0
:101090008C69A6003243426085614A6882630362BC
:1010A00070BD8024A3431C00CB681B012343402454
:1010B000A343DCE7FF8CFFFF002C01400040014010
:1010C0000044014000480140FFF3FFFF10B5040059
:1010D0003C23C35C012B25D03C230120E054013389
:1010E0000130E054042A15D007D9082A16D00C2A5A
:1010F00008D12068FFF732FE04E0002A02D1206800
:10110000FFF7A0FD3D230122E254013B0022E254FF
:10111000002010BD2068FFF795FFF3E72068FFF778
:10112000D5FDEFE70220F4E730B58468034D2C408D
:101130001B021A4311432143816030BDFF00FFFFB2
:1011400010B504003C23C35C012B00D17FE03C239D
:101150000122C25401330132C254026893683D48EF
:10116000034093600B68402B5DD010D9702B43D0A7
:1011700020D8502B4DD0602B36D1CA6849682068E2
:10118000FFF738FE60212068FFF748FE2CE0102BA7
:1011900053D008D9202B55D0302B25D130212068B1
:1011A000FFF73CFE20E0002B1ED100212068FFF756
:1011B00035FE19E080225201934210D08022920124
:1011C000934211D1CB684A6889682068FFF7ACFF69
:1011D000226891688023DB010B43936004E022685E
:1011E000936807218B4393603D230122E254013B26
:1011F0000022E254002010BDCB684A68896820684C
:10120000FFF792FF2268936877218B430B4393602B
:10121000EAE7CA6849682068FFF7DAFD50212068CC
:10122000FFF7FCFDE0E7CA6849682068FFF7D0FDDA
:1012300040212068FFF7F2FDD6E710212068FFF774
:10124000EDFDD1E720212068FFF7E8FDCCE7022083
:10125000D1E7C0468800FFFF10B501248C40036A27
:10126000A3430362036A8A401A43026210BD00006E
:1012700010B504000268D36802210B43D3600268F2
:10128000D36802310B43D360012200210068FFF7CD
:10129000E3FF012204212068FFF7DEFF2368094AEB
:1012A000934208D0084A934205D0084A934202D09C
:1012B000074A934204D1596C802212020A435A64AD
:1012C000002010BD002C01400040014000440140BE
:1012D00000480140F0B53C23C35C012B1ED03C22EA
:1012E000012585543D240223035506687368702741
:1012F000BB437360066873680F683B43736006689E
:10130000B3688027BB43B3600668B36849680B4382
:10131000B3600555002383540020F0BD0220FCE794
:101320000268136806490B40136002689368233112
:10133000FF318B4393606A232022C2547047C0461A
:10134000DFFEFFFF70477047704710B5406A00230B
:101350005A228352083A8352FFF7F6FF10BD00006D
:1013600070B5040083680269134342691343C2697C
:10137000134301680A687348024013430B602268F4
:10138000536871490B40E1680B435360A269236ABB
:101390001A4321688B686D48034013438B602568AE
:1013A0006B4B9D4226D06B4B9D4237D06A4B9D4282
:1013B00056D06A4B9D424FD0102380221202E16921
:1013C00091424FD0022B00D1A0E000D88EE0042B38
:1013D00000D1A7E0082B00D0B2E061684808802364
:1013E0001B029C466044FEF78FFE0004000CE86080
:1013F000002060E05A4B1A6B03231340012B09D0E5
:10140000002B05D0022B07D0032B27D01023D4E7C5
:101410000023D2E70423D0E70823CEE7504B1B6B11
:10142000C022920213408022520293420ED009D968
:101430008022920293420BD0C0229202934209D1A1
:101440000223BAE7002B05D10023B6E70423B4E753
:101450000823B2E71023B0E70023AEE70223ACE78E
:101460000023AAE7022B27D00FD9042B2FD0082B5B
:1014700039D16368580880235B029C4660446168E8
:10148000FEF742FE83B200200CE0002B2BD100F0CF
:10149000A9FE400063685B08C0186168FEF734FE6F
:1014A00083B200200F22190091435B10083A1340C9
:1014B0000B432268D36070BD63685808294B9C4673
:1014C00060446168FEF720FE83B20020EAE700F086
:1014D00077FD400063685B08C0186168FEF714FE82
:1014E00083B20020DEE701200023DBE7002B27D1B9
:1014F00000F078FE63685B08C0186168FEF704FEC0
:1015000023680004000CD8600020D4E76168480814
:10151000154B9C466044FEF7F7FD0004000CE860A4
:101520000020C8E700F04CFD63685B08C0186168E4
:10153000FEF7EAFD23680004000CD8600020BAE73B
:101540000120B8E7F369FFEFFFCFFFFFFFF4FFFFD4
:10155000003801400044004000480040004C00407A
:10156000001002400024F40000127A00436ADB07F6
:1015700006D5026853682C490B40816A0B435360BF
:10158000436A9B0706D50268536828490B40C16A25
:101590000B435360436A5B0706D5026853682449CE
:1015A0000B40016B0B435360436A1B0706D502686F
:1015B000536820490B40416B0B435360436ADB0681
:1015C00006D5026893681C490B40816B0B439360FE
:1015D000436A9B0606D50268936818490B40C16BA5
:1015E0000B439360436A5B060BD50268536814494A
:1015F0000B40016C0B43536080235B03026C9A42E7
:101600000AD0436A1B0606D5026853680D490B4091
:10161000816C0B4353607047026853680A490B4062
:10162000416C0B435360ECE7FFFFFDFFFFFFFEFF44
:10163000FFFFFBFFFF7FFFFFFFEFFFFFFFDFFFFF6E
:10164000FFFFEFFFFFFFF7FFFFFF9FFFF0B5C6466D
:1016500000B506000C0017009846069D3368DB694C
:1016600023401B1B5A425341BB421ED16B1CF5D079
:10167000002D05D000F09CFE4346C01AA842EDD9CB
:10168000326813680B490B40136032689368A331CA
:10169000FF318B43936020236922B3540132B3544A
:1016A00048330022F254032000E0002004BC90469E
:1016B000F0BDC0465FFEFFFF30B583B004000023DD
:1016C000C36600F075FE05002368194A93420DD0E9
:1016D000184A93420AD020236922A3540132A3540A
:1016E00048330022E254002003B030BD1B681B07C2
:1016F00010D423681B685B07EDD580210E4B009347
:101700002B000022C9032000FFF7A0FF0028E2D031
:101710000320E9E78021084B00932B000022890376
:101720002000FFF793FF0028E3D00320DCE7C0464A
:101730000038014000440040FFFFFF0110B5041EC7
:1017400030D06923C35C002B22D069232422E254C9
:101750002268136801218B4313602000FFF700FE0D
:10176000012814D0636A002B18D1226853680E49EF
:101770000B405360226893682A218B439360226850
:10178000136829390B4313602000FFF795FF10BD44
:1017900068330022C254FFF7B1F8D6E72000FFF704
:1017A000E5FEE2E70120F2E7FFB7FFFF6923C35C34
:1017B000212B2FD13133C35A9BB2002B11D0802360
:1017C0005B0182689A4218D0C36C5A1CC2641B78B1
:1017D000026813855222835A013B9BB28352002038
:1017E00019E00268136880218B4313600268136854
:1017F00040390B43136000200DE00369002BE3D157
:10180000C36C1B88DB05DB0D02681385C36C0233D8
:10181000C364DFE70220704710B5026813684021F7
:101820008B43136069232022C254FFF78BFD0020F5
:1018300010BD000010B55C23C25A0E33C35C222BCE
:1018400032D103689B8C9BB28021490184688C4211
:101850000ED0D2B2416D4C1C446513400B705A221D
:10186000835A013B9BB28352002B0BD0002021E016
:1018700001690029EDD11340426D1380436D02339D
:101880004365ECE7026813680B490B40136002687C
:1018900093682331FF318B4393606A232022C25423
:1018A000FFF751FD002005E00268936908210B4312
:1018B0009361022010BDC046DFFEFFFF70B504003B
:1018C0000168CB6908680F221A4003D19D0601D533
:1018D00085065BD48D68002A6ED001222A4003D190
:1018E00090267600304267D0DD0706D5C50504D5C1
:1018F00001250D62E16E2943E166990708D5002AAA
:1019000006D0216802250D62E16E02352943E166A9
:10191000590708D5002A06D0216804250D62E16E1A
:10192000023D2943E166190709D5810601D4002A41
:1019300005D0226808211162E26E0A43E266E26E77
:10194000002A45D09B0601D5830623D4E36E1B07EE
:1019500003D423689B685B0628D52000FFF7E0FCD2
:1019600023689A6852061DD59A6840218A439A6076
:10197000636E002B12D0214A5A63606E00F030FE75
:10198000002825D0606E436B984721E02000FFF7C8
:1019900051FF1DE02000FFF74DFFD7E72000FFF7C4
:1019A000D3FC15E02000FFF7CFFC11E02000FFF78B
:1019B000CBFC0023E3660BE0DA0201D56A0208D40F
:1019C0001A0601D5020610D45B0601D5430610D4D1
:1019D00070BD80235B030B6220236922A354013274
:1019E000A354200000F00CF8F2E72000FFF7DEFE21
:1019F000EEE72000FFF710FFEAE7C0464B130008B0
:101A00007047000070B5041E58D0EA23FF33C35C52
:101A1000002B05D0EA23FF330322E254002218E012
:101A2000E933FF330022C254FFF73AF8F2E7D1005E
:101A3000891A8B00E3181900293101200870013937
:101A40000A7018002B300021017059639963D96323
:101A5000013260689042EAD8002214E0D100891A6D
:101A60008B00E3181D000A35FF3500212970013D68
:101A70002A700335297009352960043529601D3322
:101A8000FF33196001329042E8D8402301222168D7
:101A9000CA5200222168CA524421206842520C31A5
:101AA00020684252064A2168CA5200221C3BE25476
:101AB0000122EA23FF33E254002070BD0120FCE73D
:101AC00000BFFFFF70B582B004000368DB072BD5B1
:101AD000B34B5A680C231340042B1DD0B04B5A68EB
:101AE0000C231340082B0ED06368012B41D0002B30
:101AF00056D1AB4B1A68AB490A401A601A68AA491A
:101B00000A401A603BE0A64B5B68C02252021340B9
:101B1000802252029342E7D1A14B1B689B0303D55D
:101B20006368002B00D139E223689B0778D59C4B72
:101B30005B680C221A4262D0994B5A680C231340FE
:101B4000082B53D0E368002B00D18BE0944A136834
:101B500001210B43136000F02BFC0500904B1B6828
:101B60009B0776D400F024FC401B0228F6D9032002
:101B700017E28B4A116880235B020B431360636892
:101B8000002B25D000F014FC0500854B1B689B033F
:101B9000CAD400F00DFC401B6428F6D9032000E2F3
:101BA000052B09D07E4B1A687E490A401A601A68D4
:101BB0007D490A401A60E2E7794B19688022D20217
:101BC0000A431A601968802252020A431A60D6E753
:101BD00000F0EEFB0500724B1B689B03A4D500F0E0
:101BE000E7FB401B6428F6D90320DAE16C4B5B6805
:101BF000C02252021340802212029342A2D1684BAB
:101C00001B689B0704D5E368012B01D00120C8E1C4
:101C100063490B68F82293432269D20013430B6097
:101C200023681B0744D5E369002B2ED05C4A536A16
:101C300001210B43536200F0BBFB0500584B5B6A6C
:101C40009B0735D400F0B4FB401B0228F6D90320D3
:101C5000A7E153490B68F82293432269D20013434A
:101C60000B60DDE74E4A136801218B43136000F0DF
:101C70009FFB05004A4B1B689B07D1D500F098FBE2
:101C8000401B0228F6D903208BE1454A536A012103
:101C90008B43536200F08CFB0500414B5B6A9B0752
:101CA00006D500F085FB401B0228F6D9032078E119
:101CB00023685B0700D47FE0394BDB69DB001DD470
:101CC000374AD169802040050143D161D36903407F
:101CD0000193019B0125354B1B68DB0510D5A368DB
:101CE000012B21D0002B36D12D4B1A6A01218A43BA
:101CF0001A621A6A03318A431A621AE00025EAE777
:101D00002A4A116880235B000B43136000F050FBEC
:101D10000600264B1B68DB05E1D400F049FB801B65
:101D20006428F6D903203CE11D4A136A01210B43C4
:101D30001362A368002B24D000F03AFB0600184B76
:101D40001B6A9B0736D400F033FB801B184B98426C
:101D5000F5D9032025E1052B09D0114B1A6A012181
:101D60008A431A621A6A03318A431A62E1E70C4B0A
:101D70001A6A04210A431A621A6A03390A431A6268
:101D8000D7E700F015FB0600054B1B6A9B0711D532
:101D900000F00EFB801B064B9842F5D9032000E1B2
:101DA00000100240FFFFFEFFFFFFFBFF007000403E
:101DB00088130000012D3AD02368DB0610D5636933
:101DC000012B3AD0053358D1784A536B04218B4309
:101DD0005363536BF4318B43A169C9000B435363C5
:101DE00023689B0600D482E0704B5A680C23134092
:101DF0000C2B60D06D4B5A680C231340082B53D02A
:101E0000236A002B60D0694A516B80235B020B432D
:101E1000536300F0CDFA0500644B5B6BDB0366D4C3
:101E200000F0C6FA401B0228F6D90320B9E05F4A49
:101E3000D3695F490B40D361BEE75C4B5A6B042109
:101E40000A435A635A6B03390A435A6300F0B0FAE3
:101E50000500564B5B6B9B0706D400F0A9FA401BAC
:101E60000228F6D903209CE050494B6BF82293439B
:101E7000A269D20013434B63B2E74C4B5A6B042167
:101E80000A435A635A6B03398A435A6300F090FA43
:101E90000500464B5B6B9B07A2D500F089FA401BFF
:101EA0000228F6D903207CE0404B5B68C022520236
:101EB00013409342A4D13D4B5B6BDB0317D5236AE0
:101EC000012B14D001206CE0384A536B39490B4088
:101ED000536300F06DFA0500344B5B6BDB0306D5F2
:101EE00000F066FA401B0228F6D9032059E0636A25
:101EF000002B55D02D4A51680C220A40082A52D096
:101F0000022B12D0294A13682B490B40136000F0B2
:101F10004FFA0400254B1B689B013DD500F048FAA1
:101F2000001B0228F6D903203BE0204A136822490F
:101F30000B40136000F03CFA05001C4B1B689B0132
:101F400006D500F035FA401B0228F6D9032028E018
:101F5000164BDA6A0F218A43216B0A43DA625A6808
:101F600016490A40E16AA06A01430A435A601968A7
:101F7000802252040A431A6000F01AFA04000B4B44
:101F80001B689B0106D400F013FA001B0228F6D947
:101F9000032006E0002004E0002002E0012000E031
:101FA000002002B070BD0120FBE7C04600100240D7
:101FB000FFFFFFEFFFFFFEFFFFFFFFFEFF7FC2FF00
:101FC00030B589B004AA1F4B180032C832C21100C4
:101FD00002680A606A46103313CB13C21B68136091
:101FE000194B5A680C231340082B04D00C2B26D015
:101FF000164809B030BD910C0F23194004A8445C69
:102000001149C96A0B406946C95CC0235B021A408A
:1020100080235B029A4208D0C0235B029A4209D017
:102020000A48FEF771F86043E3E70848FEF76CF8EA
:102030006043DEE70648FEF767F86043D9E70448E7
:10204000D7E7C046C02800080010024000127A00FE
:10205000006CDC0270B505000C00594B1A680123B6
:1020600013408B420BD256490B6801229343234302
:102070000B600B681A40A24201D0012070BD2B6892
:102080009B0706D54F4A5368F0218B43A9680B4341
:1020900053602B68DB0763D56B68012B09D0022BDB
:1020A00028D0032B2CD0474A1268920705D4012070
:1020B000E4E7444A126892037FD542494A68032004
:1020C000824313434B6000F073F906006B68012BE9
:1020D0001CD0022B28D0032B34D03A4B5B680C2247
:1020E0001A423DD000F064F9801B374B9842F4D976
:1020F0000320C3E7334A12689201DED40120BDE712
:10210000304A526BD203D8D40120B7E72D4B5A681E
:102110000C231340042B23D000F04AF9801B2A4BD8
:102120009842F3D90320A9E7264B5A680C231340A1
:10213000082B15D000F03CF9801B234B9842F3D9B3
:1021400003209BE71F4B5A680C2313400C2B07D02E
:1021500000F02EF9801B1C4B9842F3D903208DE729
:10216000174B1A6801231340A3420BD914490B687B
:102170000122934323430B600B681A40A24201D013
:1021800001207BE72B685B0706D50E4A53680F4991
:102190000B40E9680B435360FFF712FF094B5A6885
:1021A00012090F2313400A4AD35CD840094B186028
:1021B000002000F0D3F8002060E701205EE7C04671
:1021C000002002400010024088130000FFF8FFFFCB
:1021D000F828000800000020014B18687047C0462E
:1021E0000000002010B5FFF7F7FF044B5A68120AF1
:1021F00007231340024AD35CD84010BD00100240B0
:102200000829000870B582B004000368DB0335D5E7
:102210004B4BDB69DB0066D4494AD169802040051D
:102220000143D161D36903400193019B0125454BD3
:102230001B68DB0559D5424B1B6AC0229200134034
:1022400013D061680A409A420FD03D4B186A3E4A4B
:1022500002401E6A8021490231431962196A3B4ECD
:10226000314019621A62C30753D4354A136A36499A
:102270000B4061680B431362012D59D02368DB07C3
:1022800006D52F4A136B03218B43A1680B431363BD
:1022900023689B0706D52A4A136B2D490B40E1683A
:1022A0000B43136323689B0606D5254A136B102145
:1022B0008B4321690B43136323689B0306D5204A94
:1022C000136B80218B43A1690B43136323685B0568
:1022D00033D51B4A136B40218B4361690B43136356
:1022E000002002B070BD0025A1E7164A11688023C6
:1022F0005B000B43136000F05BF80600114B1B689A
:10230000DB0598D400F054F8801B6428F6D903202C
:10231000E7E700F04DF80600094B1B6A9B07A4D4C1
:1023200000F046F8801B0B4B9842F5D90320D8E704
:10233000D36909490B40D361A0E70020D1E7C0462B
:102340000010024000700040FFFCFFFFFFFFFEFF97
:10235000FFFFFCFF88130000FFFFFFEF10B5040034
:10236000FFF73AFFFA218900FDF7CEFE00F0ECF905
:10237000012000222100404200F0ACF9002010BDF5
:1023800010B5064A136810210B4313600020FFF7B5
:10239000E5FFFEF7A3F9002010BDC0460020024073
:1023A000024A1368013313607047C046C405002019
:1023B000014B18687047C046C4050020F0B5C646FA
:1023C00000B582B0002338E0042600E00026AE40CD
:1023D00035003D430234A400574EA551574C2568A3
:1023E0004246D4432E0026404A68D20302D54246D4
:1023F00015432E00514D2E606D682E0026404A6810
:10240000920302D5424615432E004C4D6E60AD68D6
:102410002E0026404A68D20202D5424615432E00BD
:10242000464DAE60ED682C404A68920202D54246A5
:102430002A431400414AD46001330A681400DC4086
:1024400076D001259D402A409046F5D04C68022C5C
:1024500001D0122C0ED1DC080834A400275807261E
:102460001E40B6000F22B24097430A69B2401600E0
:102470003E43265002685F0003242600BE40F64318
:10248000324094464A681440BC406246144304609B
:102490004C68621E012A03D9112C01D0122C10D1D4
:1024A00084683440A446CC68BC40624614438460CF
:1024B0004468AC434A681209012515409D402543F4
:1024C0004560C46826408C68BC403443C4604A6898
:1024D000D200B1D51A4DAE6901242643AE61AD6973
:1024E0002C400194019C9C08A51CAD00124EAF59D4
:1024F00003261E40B5000F26AE40B7439026F605D2
:10250000B04200D162E70F4EB0420BD00E4EB04247
:102510000AD00E4EB04209D00D4EB04200D153E762
:10252000052654E7012652E7022650E703264EE728
:1025300002B004BC9046F0BD000001400004014020
:10254000001002400004004800080048000C004849
:1025500000100048002A01D1816270478161FCE7C8
:1025600010B504000368064A944663441800142119
:10257000FDF7CAFD80002064024BE36310BDC04636
:10258000F8FFFDBF0000024070B5041E24D02125D5
:102590000223435501680B68104A1A40436880685B
:1025A0000343E06803432069034360690343A06970
:1025B0000343E069034313430B602000FFF7D0FFA0
:1025C0000023A362E36223636363A3630122625572
:1025D0001F32A354002070BD0120FCE70FC0FFFF95
:1025E00010B52123C35C022B03D004238363012095
:1025F00010BD026813680E218B43136001680A68DE
:1026000001239A430A60C26B1900046CA140516017
:10261000212283541F330022C254436B002B02D06B
:1026200098470020E4E70020E2E770B5C36B1A6822
:1026300004682568016C04238B401A4212D06B0792
:1026400010D523689B0603D4236804229343236098
:10265000C26B0423016C8B405360C36A002B00D013
:10266000984770BD02238B401A4218D0AB0716D58D
:1026700023689B0606D423680A2293432360212300
:10268000093AC254C26B0223016C8B405360202371
:102690000022C254836A002BE3D09847E1E7082365
:1026A0008B401A42DDD02B07DBD523680E229343E3
:1026B0002360C26B01231900046CA1405160836345
:1026C000212283541F330022C254036B002BC8D035
:1026D0009847C6E770B5002811DB8408134DC03455
:1026E000A400625903231840C000FC331E0086403A
:1026F000B24389010B4083401343635170BDC0B2A4
:102700000F220240083A920806329200084BD31872
:102710005D6803242040C000FF2214008440A543CC
:1027200089010A4082402A435A60E7E700E100E05D
:1027300000ED00E01F2318401E3B8340014A136058
:102740007047C04600E100E001380A4B98420FD8BC
:10275000094A50600948036A1B021B0AC021090686
:102760000B4303620023936007331360002070471C
:102770000120FCE7FFFFFF0010E000E000ED00E0BB
:10278000042805D0054A136804218B431360704761
:10279000024A136804210B431360F8E710E000E0DD
:1027A000704710B5FFF7FCFF10BD0000114B1A6811
:1027B00001210A431A605A680F4802405A601A6899
:1027C0000E4802401A601A680D4802401A605A68A2
:1027D0000C4802405A60DA6A0F208243DA621A6BB0
:1027E000094802401A635A6B8A435A6300229A606E
:1027F0007047C046001002400CB8FF08FFFFF6FE0D
:10280000FFFFFBFFFFFFC0FF2CFEFCFF0D488546CE
:102810000D480E490E4A002302E0D458C450043338
:10282000C4188C42F9D30B4A0B4C002301E013600F
:102830000432A242FBD3FFF7B9FF00F011F8FDF715
:10284000CFFEFEE700400020000000200400002032
:102850001829000804000020C8050020FEE7000039
:1028600070B500260C4D0D4C641BA410A64209D176
:10287000002600F019F80A4D0A4C641BA410A64269
:1028800005D170BDB300EB5898470136EEE7B300B1
:10289000EB5898470136F2E7102900081029000884
:1028A0001029000814290008F8B5C046F8BC08BC77
:1028B0009E467047F8B5C046F8BC08BC9E467047B7
:1028C00002030405060708090A0B0C0D0E0F101071
:1028D0000102030405060708090A0B0C0D0E0F1070
:1028E0005372632F73746D3332663078785F68612A
:1028F0006C5F6D73702E630000000000000000002C
:102900000102030406070809000000000102030495
:04291000E9000008D2
:04291400C1000008F6
:0429180000127A002F
:040000050800280DBA
:00000001FF
